{
  "contractName": "SupplyChain",
  "abi": [
    {
      "inputs": [],
      "stateMutability": "payable",
      "type": "constructor"
    },
    {
      "anonymous": false,
      "inputs": [
        {
          "indexed": true,
          "internalType": "address",
          "name": "account",
          "type": "address"
        }
      ],
      "name": "ConsumerAdded",
      "type": "event"
    },
    {
      "anonymous": false,
      "inputs": [
        {
          "indexed": true,
          "internalType": "address",
          "name": "account",
          "type": "address"
        }
      ],
      "name": "ConsumerRemoved",
      "type": "event"
    },
    {
      "anonymous": false,
      "inputs": [
        {
          "indexed": true,
          "internalType": "address",
          "name": "account",
          "type": "address"
        }
      ],
      "name": "DistributorAdded",
      "type": "event"
    },
    {
      "anonymous": false,
      "inputs": [
        {
          "indexed": true,
          "internalType": "address",
          "name": "account",
          "type": "address"
        }
      ],
      "name": "DistributorRemoved",
      "type": "event"
    },
    {
      "anonymous": false,
      "inputs": [
        {
          "indexed": true,
          "internalType": "address",
          "name": "account",
          "type": "address"
        }
      ],
      "name": "FarmerAdded",
      "type": "event"
    },
    {
      "anonymous": false,
      "inputs": [
        {
          "indexed": true,
          "internalType": "address",
          "name": "account",
          "type": "address"
        }
      ],
      "name": "FarmerRemoved",
      "type": "event"
    },
    {
      "anonymous": false,
      "inputs": [
        {
          "indexed": false,
          "internalType": "uint256",
          "name": "upc",
          "type": "uint256"
        }
      ],
      "name": "ForSale",
      "type": "event"
    },
    {
      "anonymous": false,
      "inputs": [
        {
          "indexed": false,
          "internalType": "uint256",
          "name": "upc",
          "type": "uint256"
        }
      ],
      "name": "Harvested",
      "type": "event"
    },
    {
      "anonymous": false,
      "inputs": [
        {
          "indexed": false,
          "internalType": "uint256",
          "name": "upc",
          "type": "uint256"
        }
      ],
      "name": "Packed",
      "type": "event"
    },
    {
      "anonymous": false,
      "inputs": [
        {
          "indexed": false,
          "internalType": "uint256",
          "name": "upc",
          "type": "uint256"
        }
      ],
      "name": "Processed",
      "type": "event"
    },
    {
      "anonymous": false,
      "inputs": [
        {
          "indexed": false,
          "internalType": "uint256",
          "name": "upc",
          "type": "uint256"
        }
      ],
      "name": "Purchased",
      "type": "event"
    },
    {
      "anonymous": false,
      "inputs": [
        {
          "indexed": false,
          "internalType": "uint256",
          "name": "upc",
          "type": "uint256"
        }
      ],
      "name": "Received",
      "type": "event"
    },
    {
      "anonymous": false,
      "inputs": [
        {
          "indexed": true,
          "internalType": "address",
          "name": "account",
          "type": "address"
        }
      ],
      "name": "RetailerAdded",
      "type": "event"
    },
    {
      "anonymous": false,
      "inputs": [
        {
          "indexed": true,
          "internalType": "address",
          "name": "account",
          "type": "address"
        }
      ],
      "name": "RetailerRemoved",
      "type": "event"
    },
    {
      "anonymous": false,
      "inputs": [
        {
          "indexed": false,
          "internalType": "uint256",
          "name": "upc",
          "type": "uint256"
        }
      ],
      "name": "Shipped",
      "type": "event"
    },
    {
      "anonymous": false,
      "inputs": [
        {
          "indexed": false,
          "internalType": "uint256",
          "name": "upc",
          "type": "uint256"
        }
      ],
      "name": "Sold",
      "type": "event"
    },
    {
      "anonymous": false,
      "inputs": [
        {
          "indexed": true,
          "internalType": "address",
          "name": "oldOwner",
          "type": "address"
        },
        {
          "indexed": true,
          "internalType": "address",
          "name": "newOwner",
          "type": "address"
        }
      ],
      "name": "TransferOwnership",
      "type": "event"
    },
    {
      "inputs": [
        {
          "internalType": "address",
          "name": "account",
          "type": "address"
        }
      ],
      "name": "addConsumer",
      "outputs": [],
      "stateMutability": "nonpayable",
      "type": "function"
    },
    {
      "inputs": [
        {
          "internalType": "address",
          "name": "account",
          "type": "address"
        }
      ],
      "name": "addDistributor",
      "outputs": [],
      "stateMutability": "nonpayable",
      "type": "function"
    },
    {
      "inputs": [
        {
          "internalType": "address",
          "name": "account",
          "type": "address"
        }
      ],
      "name": "addFarmer",
      "outputs": [],
      "stateMutability": "nonpayable",
      "type": "function"
    },
    {
      "inputs": [
        {
          "internalType": "address",
          "name": "account",
          "type": "address"
        }
      ],
      "name": "addRetailer",
      "outputs": [],
      "stateMutability": "nonpayable",
      "type": "function"
    },
    {
      "inputs": [
        {
          "internalType": "address",
          "name": "account",
          "type": "address"
        }
      ],
      "name": "isConsumer",
      "outputs": [
        {
          "internalType": "bool",
          "name": "",
          "type": "bool"
        }
      ],
      "stateMutability": "view",
      "type": "function"
    },
    {
      "inputs": [
        {
          "internalType": "address",
          "name": "account",
          "type": "address"
        }
      ],
      "name": "isDistributor",
      "outputs": [
        {
          "internalType": "bool",
          "name": "",
          "type": "bool"
        }
      ],
      "stateMutability": "view",
      "type": "function"
    },
    {
      "inputs": [
        {
          "internalType": "address",
          "name": "account",
          "type": "address"
        }
      ],
      "name": "isFarmer",
      "outputs": [
        {
          "internalType": "bool",
          "name": "",
          "type": "bool"
        }
      ],
      "stateMutability": "view",
      "type": "function"
    },
    {
      "inputs": [
        {
          "internalType": "address",
          "name": "account",
          "type": "address"
        }
      ],
      "name": "isRetailer",
      "outputs": [
        {
          "internalType": "bool",
          "name": "",
          "type": "bool"
        }
      ],
      "stateMutability": "view",
      "type": "function"
    },
    {
      "inputs": [],
      "name": "kill",
      "outputs": [],
      "stateMutability": "nonpayable",
      "type": "function"
    },
    {
      "inputs": [],
      "name": "owner",
      "outputs": [
        {
          "internalType": "address",
          "name": "",
          "type": "address"
        }
      ],
      "stateMutability": "view",
      "type": "function"
    },
    {
      "inputs": [
        {
          "internalType": "address",
          "name": "account",
          "type": "address"
        }
      ],
      "name": "renounceConsumer",
      "outputs": [],
      "stateMutability": "nonpayable",
      "type": "function"
    },
    {
      "inputs": [
        {
          "internalType": "address",
          "name": "account",
          "type": "address"
        }
      ],
      "name": "renounceDistributor",
      "outputs": [],
      "stateMutability": "nonpayable",
      "type": "function"
    },
    {
      "inputs": [
        {
          "internalType": "address",
          "name": "account",
          "type": "address"
        }
      ],
      "name": "renounceFarmer",
      "outputs": [],
      "stateMutability": "nonpayable",
      "type": "function"
    },
    {
      "inputs": [],
      "name": "renounceOwnership",
      "outputs": [],
      "stateMutability": "nonpayable",
      "type": "function"
    },
    {
      "inputs": [
        {
          "internalType": "address",
          "name": "account",
          "type": "address"
        }
      ],
      "name": "renounceRetailer",
      "outputs": [],
      "stateMutability": "nonpayable",
      "type": "function"
    },
    {
      "inputs": [
        {
          "internalType": "address payable",
          "name": "newOwner",
          "type": "address"
        }
      ],
      "name": "transferOwnership",
      "outputs": [],
      "stateMutability": "nonpayable",
      "type": "function"
    },
    {
      "inputs": [
        {
          "internalType": "uint256",
          "name": "_upc",
          "type": "uint256"
        },
        {
          "internalType": "string",
          "name": "state",
          "type": "string"
        }
      ],
      "name": "getItemHistory",
      "outputs": [
        {
          "internalType": "address",
          "name": "",
          "type": "address"
        }
      ],
      "stateMutability": "view",
      "type": "function"
    },
    {
      "inputs": [
        {
          "internalType": "uint256",
          "name": "_upc",
          "type": "uint256"
        },
        {
          "internalType": "address payable",
          "name": "_originFarmerID",
          "type": "address"
        },
        {
          "internalType": "string",
          "name": "_originFarmName",
          "type": "string"
        },
        {
          "internalType": "string",
          "name": "_originFarmInformation",
          "type": "string"
        },
        {
          "internalType": "string",
          "name": "_originFarmLatitude",
          "type": "string"
        },
        {
          "internalType": "string",
          "name": "_originFarmLongitude",
          "type": "string"
        },
        {
          "internalType": "string",
          "name": "_productNotes",
          "type": "string"
        }
      ],
      "name": "harvestItem",
      "outputs": [],
      "stateMutability": "nonpayable",
      "type": "function"
    },
    {
      "inputs": [
        {
          "internalType": "uint256",
          "name": "_upc",
          "type": "uint256"
        }
      ],
      "name": "processItem",
      "outputs": [],
      "stateMutability": "nonpayable",
      "type": "function"
    },
    {
      "inputs": [
        {
          "internalType": "uint256",
          "name": "_upc",
          "type": "uint256"
        }
      ],
      "name": "packItem",
      "outputs": [],
      "stateMutability": "nonpayable",
      "type": "function"
    },
    {
      "inputs": [
        {
          "internalType": "uint256",
          "name": "_upc",
          "type": "uint256"
        },
        {
          "internalType": "uint256",
          "name": "_price",
          "type": "uint256"
        }
      ],
      "name": "sellItem",
      "outputs": [],
      "stateMutability": "nonpayable",
      "type": "function"
    },
    {
      "inputs": [
        {
          "internalType": "uint256",
          "name": "_upc",
          "type": "uint256"
        }
      ],
      "name": "buyItem",
      "outputs": [],
      "stateMutability": "payable",
      "type": "function"
    },
    {
      "inputs": [
        {
          "internalType": "uint256",
          "name": "_upc",
          "type": "uint256"
        }
      ],
      "name": "shipItem",
      "outputs": [],
      "stateMutability": "nonpayable",
      "type": "function"
    },
    {
      "inputs": [
        {
          "internalType": "uint256",
          "name": "_upc",
          "type": "uint256"
        }
      ],
      "name": "receiveItem",
      "outputs": [],
      "stateMutability": "nonpayable",
      "type": "function"
    },
    {
      "inputs": [
        {
          "internalType": "uint256",
          "name": "_upc",
          "type": "uint256"
        }
      ],
      "name": "purchaseItem",
      "outputs": [],
      "stateMutability": "payable",
      "type": "function"
    },
    {
      "inputs": [
        {
          "internalType": "uint256",
          "name": "_upc",
          "type": "uint256"
        }
      ],
      "name": "fetchItemBufferOne",
      "outputs": [
        {
          "internalType": "uint256",
          "name": "itemSKU",
          "type": "uint256"
        },
        {
          "internalType": "uint256",
          "name": "itemUPC",
          "type": "uint256"
        },
        {
          "internalType": "address",
          "name": "ownerID",
          "type": "address"
        },
        {
          "internalType": "address",
          "name": "originFarmerID",
          "type": "address"
        },
        {
          "internalType": "string",
          "name": "originFarmName",
          "type": "string"
        },
        {
          "internalType": "string",
          "name": "originFarmInformation",
          "type": "string"
        },
        {
          "internalType": "string",
          "name": "originFarmLatitude",
          "type": "string"
        },
        {
          "internalType": "string",
          "name": "originFarmLongitude",
          "type": "string"
        }
      ],
      "stateMutability": "view",
      "type": "function"
    }
  ],
  "bytecode": "0x6080604052336000806101000a81548173ffffffffffffffffffffffffffffffffffffffff021916908373ffffffffffffffffffffffffffffffffffffffff16021790555060008054906101000a900473ffffffffffffffffffffffffffffffffffffffff1673ffffffffffffffffffffffffffffffffffffffff16600073ffffffffffffffffffffffffffffffffffffffff167f5c486528ec3e3f0ea91181cff8116f02bfa350e03b8b6f12e00765adbb5af85c60405160405180910390a3620000d0336200011960201b60201c565b620000e1336200017a60201b60201c565b620000f233620001db60201b60201c565b62000103336200023c60201b60201c565b60016006819055506001600581905550620005a7565b620001348160016200029d60201b62002a661790919060201c565b8073ffffffffffffffffffffffffffffffffffffffff167f2e0ded4123377a3c2bc9a26f1717655a129e2f20752924d42e730ec89c83dbd060405160405180910390a250565b620001958160026200029d60201b62002a661790919060201c565b8073ffffffffffffffffffffffffffffffffffffffff167fddbf200aa634dc3fb81cfd68583dd1040d1c751d335e1d86b631bde3e977fea860405160405180910390a250565b620001f68160036200029d60201b62002a661790919060201c565b8073ffffffffffffffffffffffffffffffffffffffff167f71ae26cad02663e3d92efd6ec56031a80d74a20c0ab4183faa8bf262261c9baa60405160405180910390a250565b620002578160046200029d60201b62002a661790919060201c565b8073ffffffffffffffffffffffffffffffffffffffff167f28b26e7a3d20aedbc5f8f2ebf7da671c0491723a2b78f47a097b0e46dee0714260405160405180910390a250565b600073ffffffffffffffffffffffffffffffffffffffff168173ffffffffffffffffffffffffffffffffffffffff16036200030f576040517f08c379a00000000000000000000000000000000000000000000000000000000081526004016200030690620004ed565b60405180910390fd5b620003218282620003c260201b60201c565b1562000364576040517f08c379a00000000000000000000000000000000000000000000000000000000081526004016200035b9062000585565b60405180910390fd5b60018260000160008373ffffffffffffffffffffffffffffffffffffffff1673ffffffffffffffffffffffffffffffffffffffff16815260200190815260200160002060006101000a81548160ff0219169083151502179055505050565b60008073ffffffffffffffffffffffffffffffffffffffff168273ffffffffffffffffffffffffffffffffffffffff160362000435576040517f08c379a00000000000000000000000000000000000000000000000000000000081526004016200042c90620004ed565b60405180910390fd5b8260000160008373ffffffffffffffffffffffffffffffffffffffff1673ffffffffffffffffffffffffffffffffffffffff16815260200190815260200160002060009054906101000a900460ff16905092915050565b600082825260208201905092915050565b7f416464726573732063616e6e6f74206265207a65726f20616464726573730000600082015250565b6000620004d5601e836200048c565b9150620004e2826200049d565b602082019050919050565b600060208201905081810360008301526200050881620004c6565b9050919050565b7f54686973206164647265737320616c726561647920686173207468697320726f60008201527f6c65000000000000000000000000000000000000000000000000000000000000602082015250565b60006200056d6022836200048c565b91506200057a826200050f565b604082019050919050565b60006020820190508181036000830152620005a0816200055e565b9050919050565b61436680620005b76000396000f3fe6080604052600436106101815760003560e01c80638da5cb5b116100d1578063bdd8a6a81161008a578063f2fde38b11610064578063f2fde38b1461054f578063f30fc48014610578578063f487d48d146105a1578063f61c899a146105ca57610181565b8063bdd8a6a8146104ee578063d38ea5bf14610517578063e7fb74c71461053357610181565b80638da5cb5b146103ce5780638ec4f505146103f95780638f0c86fa14610422578063a26be9991461045f578063b942906914610488578063bbb67db9146104c557610181565b80634d04321a1161013e5780637250e224116101185780637250e224146102fb57806377c459131461032457806380c3f96d14610368578063834ff7391461039157610181565b80634d04321a1461027e5780635da09b88146102a7578063715018a6146102e457610181565b80630ca7143214610186578063112940f9146101af5780632c98e64d146101d85780632d9235611461021557806341c0e1b51461023e57806349dae76614610255575b600080fd5b34801561019257600080fd5b506101ad60048036038101906101a89190612f65565b6105f3565b005b3480156101bb57600080fd5b506101d660048036038101906101d19190612f65565b61064d565b005b3480156101e457600080fd5b506101ff60048036038101906101fa919061310e565b6106a7565b60405161020c9190613179565b60405180910390f35b34801561022157600080fd5b5061023c60048036038101906102379190613194565b610701565b005b34801561024a57600080fd5b50610253610970565b005b34801561026157600080fd5b5061027c600480360381019061027791906131d4565b6109fe565b005b34801561028a57600080fd5b506102a560048036038101906102a09190612f65565b610c63565b005b3480156102b357600080fd5b506102ce60048036038101906102c99190612f65565b610cbd565b6040516102db919061321c565b60405180910390f35b3480156102f057600080fd5b506102f9610cda565b005b34801561030757600080fd5b50610322600480360381019061031d9190612f65565b610e26565b005b34801561033057600080fd5b5061034b600480360381019061034691906131d4565b610e80565b60405161035f9897969594939291906132ce565b60405180910390f35b34801561037457600080fd5b5061038f600480360381019061038a9190612f65565b6113de565b005b34801561039d57600080fd5b506103b860048036038101906103b39190612f65565b611438565b6040516103c5919061321c565b60405180910390f35b3480156103da57600080fd5b506103e3611455565b6040516103f09190613179565b60405180910390f35b34801561040557600080fd5b50610420600480360381019061041b9190612f65565b61147e565b005b34801561042e57600080fd5b5061044960048036038101906104449190612f65565b6114d8565b604051610456919061321c565b60405180910390f35b34801561046b57600080fd5b50610486600480360381019061048191906131d4565b6114f5565b005b34801561049457600080fd5b506104af60048036038101906104aa9190612f65565b611745565b6040516104bc919061321c565b60405180910390f35b3480156104d157600080fd5b506104ec60048036038101906104e79190612f65565b611762565b005b3480156104fa57600080fd5b50610515600480360381019061051091906133a6565b6117bc565b005b610531600480360381019061052c91906131d4565b611c36565b005b61054d600480360381019061054891906131d4565b611f8d565b005b34801561055b57600080fd5b50610576600480360381019061057191906134d4565b61237d565b005b34801561058457600080fd5b5061059f600480360381019061059a91906131d4565b612537565b005b3480156105ad57600080fd5b506105c860048036038101906105c39190612f65565b61279c565b005b3480156105d657600080fd5b506105f160048036038101906105ec91906131d4565b6127f6565b005b610607816003612b7d90919063ffffffff16565b8073ffffffffffffffffffffffffffffffffffffffff167fdb7176e79cffef81cb01767dd0447a0b24bb72ca9778d4b245581086b2a7e6db60405160405180910390a250565b610661816004612a6690919063ffffffff16565b8073ffffffffffffffffffffffffffffffffffffffff167f28b26e7a3d20aedbc5f8f2ebf7da671c0491723a2b78f47a097b0e46dee0714260405160405180910390a250565b600060086000848152602001908152602001600020826040516106ca919061353d565b908152602001604051809103902060009054906101000a900473ffffffffffffffffffffffffffffffffffffffff16905092915050565b61070a33611745565b610749576040517f08c379a0000000000000000000000000000000000000000000000000000000008152600401610740906135c6565b60405180910390fd5b816002600781111561075e5761075d6135e6565b5b60076000838152602001908152602001600020600b0160009054906101000a900460ff166007811115610794576107936135e6565b5b146107d4576040517f08c379a00000000000000000000000000000000000000000000000000000000081526004016107cb90613661565b60405180910390fd5b6007600084815260200190815260200160002060030160009054906101000a900473ffffffffffffffffffffffffffffffffffffffff168073ffffffffffffffffffffffffffffffffffffffff163373ffffffffffffffffffffffffffffffffffffffff1614610879576040517f08c379a0000000000000000000000000000000000000000000000000000000008152600401610870906136f3565b60405180910390fd5b6000600760008681526020019081526020016000209050600381600b0160006101000a81548160ff021916908360078111156108b8576108b76135e6565b5b02179055508381600a018190555032600860008781526020019081526020016000206040516108e69061375f565b908152602001604051809103902060006101000a81548173ffffffffffffffffffffffffffffffffffffffff021916908373ffffffffffffffffffffffffffffffffffffffff1602179055507fa96ae0fc3224ebd79eebfe54bd130cc9cb94416cddd1f2386115e00b72532468856040516109619190613774565b60405180910390a15050505050565b60008054906101000a900473ffffffffffffffffffffffffffffffffffffffff1673ffffffffffffffffffffffffffffffffffffffff163373ffffffffffffffffffffffffffffffffffffffff16036109fc5760008054906101000a900473ffffffffffffffffffffffffffffffffffffffff1673ffffffffffffffffffffffffffffffffffffffff16ff5b565b610a0733611745565b610a46576040517f08c379a0000000000000000000000000000000000000000000000000000000008152600401610a3d906135c6565b60405180910390fd5b8060006007811115610a5b57610a5a6135e6565b5b60076000838152602001908152602001600020600b0160009054906101000a900460ff166007811115610a9157610a906135e6565b5b14610ad1576040517f08c379a0000000000000000000000000000000000000000000000000000000008152600401610ac890613801565b60405180910390fd5b6007600083815260200190815260200160002060030160009054906101000a900473ffffffffffffffffffffffffffffffffffffffff168073ffffffffffffffffffffffffffffffffffffffff163373ffffffffffffffffffffffffffffffffffffffff1614610b76576040517f08c379a0000000000000000000000000000000000000000000000000000000008152600401610b6d906136f3565b60405180910390fd5b6000600760008581526020019081526020016000209050600181600b0160006101000a81548160ff02191690836007811115610bb557610bb46135e6565b5b02179055503260086000868152602001908152602001600020604051610bda9061386d565b908152602001604051809103902060006101000a81548173ffffffffffffffffffffffffffffffffffffffff021916908373ffffffffffffffffffffffffffffffffffffffff1602179055507f5afe3b1bf87069693c075da5c22a98d63d1aef98a30dbbe538d0781a98b77ee584604051610c559190613774565b60405180910390a150505050565b610c77816001612b7d90919063ffffffff16565b8073ffffffffffffffffffffffffffffffffffffffff167fa5e0f060af304ab17dd418c7927e3da3ae7868189bf387aee09ab179ccc572f260405160405180910390a250565b6000610cd3826003612c9390919063ffffffff16565b9050919050565b60008054906101000a900473ffffffffffffffffffffffffffffffffffffffff1673ffffffffffffffffffffffffffffffffffffffff163373ffffffffffffffffffffffffffffffffffffffff1614610d68576040517f08c379a0000000000000000000000000000000000000000000000000000000008152600401610d5f906138f4565b60405180910390fd5b600073ffffffffffffffffffffffffffffffffffffffff1660008054906101000a900473ffffffffffffffffffffffffffffffffffffffff1673ffffffffffffffffffffffffffffffffffffffff167f5c486528ec3e3f0ea91181cff8116f02bfa350e03b8b6f12e00765adbb5af85c60405160405180910390a360008060006101000a81548173ffffffffffffffffffffffffffffffffffffffff021916908373ffffffffffffffffffffffffffffffffffffffff160217905550565b610e3a816002612a6690919063ffffffff16565b8073ffffffffffffffffffffffffffffffffffffffff167fddbf200aa634dc3fb81cfd68583dd1040d1c751d335e1d86b631bde3e977fea860405160405180910390a250565b6000806000806060806060806000600760008b8152602001908152602001600020604051806101e001604052908160008201548152602001600182015481526020016002820160009054906101000a900473ffffffffffffffffffffffffffffffffffffffff1673ffffffffffffffffffffffffffffffffffffffff1673ffffffffffffffffffffffffffffffffffffffff1681526020016003820160009054906101000a900473ffffffffffffffffffffffffffffffffffffffff1673ffffffffffffffffffffffffffffffffffffffff1673ffffffffffffffffffffffffffffffffffffffff168152602001600482018054610f7d90613943565b80601f0160208091040260200160405190810160405280929190818152602001828054610fa990613943565b8015610ff65780601f10610fcb57610100808354040283529160200191610ff6565b820191906000526020600020905b815481529060010190602001808311610fd957829003601f168201915b5050505050815260200160058201805461100f90613943565b80601f016020809104026020016040519081016040528092919081815260200182805461103b90613943565b80156110885780601f1061105d57610100808354040283529160200191611088565b820191906000526020600020905b81548152906001019060200180831161106b57829003601f168201915b505050505081526020016006820180546110a190613943565b80601f01602080910402602001604051908101604052809291908181526020018280546110cd90613943565b801561111a5780601f106110ef5761010080835404028352916020019161111a565b820191906000526020600020905b8154815290600101906020018083116110fd57829003601f168201915b5050505050815260200160078201805461113390613943565b80601f016020809104026020016040519081016040528092919081815260200182805461115f90613943565b80156111ac5780601f10611181576101008083540402835291602001916111ac565b820191906000526020600020905b81548152906001019060200180831161118f57829003601f168201915b50505050508152602001600882015481526020016009820180546111cf90613943565b80601f01602080910402602001604051908101604052809291908181526020018280546111fb90613943565b80156112485780601f1061121d57610100808354040283529160200191611248565b820191906000526020600020905b81548152906001019060200180831161122b57829003601f168201915b50505050508152602001600a8201548152602001600b820160009054906101000a900460ff1660078111156112805761127f6135e6565b5b6007811115611292576112916135e6565b5b8152602001600b820160019054906101000a900473ffffffffffffffffffffffffffffffffffffffff1673ffffffffffffffffffffffffffffffffffffffff1673ffffffffffffffffffffffffffffffffffffffff168152602001600c820160009054906101000a900473ffffffffffffffffffffffffffffffffffffffff1673ffffffffffffffffffffffffffffffffffffffff1673ffffffffffffffffffffffffffffffffffffffff168152602001600d820160009054906101000a900473ffffffffffffffffffffffffffffffffffffffff1673ffffffffffffffffffffffffffffffffffffffff1673ffffffffffffffffffffffffffffffffffffffff1681525050905080600001519850806020015197508060400151965080606001519550806080015194508060a0015193508060c0015192508060e00151915050919395975091939597565b6113f2816001612a6690919063ffffffff16565b8073ffffffffffffffffffffffffffffffffffffffff167f2e0ded4123377a3c2bc9a26f1717655a129e2f20752924d42e730ec89c83dbd060405160405180910390a250565b600061144e826004612c9390919063ffffffff16565b9050919050565b60008060009054906101000a900473ffffffffffffffffffffffffffffffffffffffff16905090565b611492816003612a6690919063ffffffff16565b8073ffffffffffffffffffffffffffffffffffffffff167f71ae26cad02663e3d92efd6ec56031a80d74a20c0ab4183faa8bf262261c9baa60405160405180910390a250565b60006114ee826002612c9390919063ffffffff16565b9050919050565b611509336003612c9390919063ffffffff16565b611548576040517f08c379a000000000000000000000000000000000000000000000000000000000815260040161153f906139e6565b60405180910390fd5b806005600781111561155d5761155c6135e6565b5b60076000838152602001908152602001600020600b0160009054906101000a900460ff166007811115611593576115926135e6565b5b146115d3576040517f08c379a00000000000000000000000000000000000000000000000000000000081526004016115ca90613a78565b60405180910390fd5b6000600760008481526020019081526020016000209050338160020160006101000a81548173ffffffffffffffffffffffffffffffffffffffff021916908373ffffffffffffffffffffffffffffffffffffffff160217905550600681600b0160006101000a81548160ff02191690836007811115611655576116546135e6565b5b02179055503381600c0160006101000a81548173ffffffffffffffffffffffffffffffffffffffff021916908373ffffffffffffffffffffffffffffffffffffffff16021790555032600860008581526020019081526020016000206040516116bd90613ae4565b908152602001604051809103902060006101000a81548173ffffffffffffffffffffffffffffffffffffffff021916908373ffffffffffffffffffffffffffffffffffffffff1602179055507fa8142743f8f70a4c26f3691cf4ed59718381fb2f18070ec52be1f1022d855557836040516117389190613774565b60405180910390a1505050565b600061175b826001612c9390919063ffffffff16565b9050919050565b611776816002612b7d90919063ffffffff16565b8073ffffffffffffffffffffffffffffffffffffffff167f126174f6cf49c81cdb4a9214c6b8f037bef55b4ec31e4fc776cea2a1c8a88d5960405160405180910390a250565b6117c533611745565b611804576040517f08c379a00000000000000000000000000000000000000000000000000000000081526004016117fb906135c6565b60405180910390fd5b61180c612d5a565b8781602001818152505086816040019073ffffffffffffffffffffffffffffffffffffffff16908173ffffffffffffffffffffffffffffffffffffffff168152505086816060019073ffffffffffffffffffffffffffffffffffffffff16908173ffffffffffffffffffffffffffffffffffffffff1681525050858160800181905250848160a00181905250838160c00181905250828160e0018190525081816101200181905250600654816000018181525050600654886118ce9190613b28565b8161010001818152505032600860008a81526020019081526020016000206040516118f890613bca565b908152602001604051809103902060006101000a81548173ffffffffffffffffffffffffffffffffffffffff021916908373ffffffffffffffffffffffffffffffffffffffff16021790555060016006546119539190613b28565b60068190555060008161016001906007811115611973576119726135e6565b5b90816007811115611987576119866135e6565b5b8152505080600760008a8152602001908152602001600020600082015181600001556020820151816001015560408201518160020160006101000a81548173ffffffffffffffffffffffffffffffffffffffff021916908373ffffffffffffffffffffffffffffffffffffffff16021790555060608201518160030160006101000a81548173ffffffffffffffffffffffffffffffffffffffff021916908373ffffffffffffffffffffffffffffffffffffffff1602179055506080820151816004019080519060200190611a5d929190612e50565b5060a0820151816005019080519060200190611a7a929190612e50565b5060c0820151816006019080519060200190611a97929190612e50565b5060e0820151816007019080519060200190611ab4929190612e50565b506101008201518160080155610120820151816009019080519060200190611add929190612e50565b5061014082015181600a015561016082015181600b0160006101000a81548160ff02191690836007811115611b1557611b146135e6565b5b021790555061018082015181600b0160016101000a81548173ffffffffffffffffffffffffffffffffffffffff021916908373ffffffffffffffffffffffffffffffffffffffff1602179055506101a082015181600c0160006101000a81548173ffffffffffffffffffffffffffffffffffffffff021916908373ffffffffffffffffffffffffffffffffffffffff1602179055506101c082015181600d0160006101000a81548173ffffffffffffffffffffffffffffffffffffffff021916908373ffffffffffffffffffffffffffffffffffffffff1602179055509050507f8e55ccfc9778ff8eba1646d765cf1982537ce0f9257054a17b48aad74525018388604051611c249190613774565b60405180910390a15050505050505050565b611c4a336004612c9390919063ffffffff16565b611c89576040517f08c379a0000000000000000000000000000000000000000000000000000000008152600401611c8090613c51565b60405180910390fd5b8060066007811115611c9e57611c9d6135e6565b5b60076000838152602001908152602001600020600b0160009054906101000a900460ff166007811115611cd457611cd36135e6565b5b14611d14576040517f08c379a0000000000000000000000000000000000000000000000000000000008152600401611d0b90613ce3565b60405180910390fd5b60076000838152602001908152602001600020600a015480341015611d6e576040517f08c379a0000000000000000000000000000000000000000000000000000000008152600401611d6590613d75565b60405180910390fd5b826000600760008681526020019081526020016000209050338160020160006101000a81548173ffffffffffffffffffffffffffffffffffffffff021916908373ffffffffffffffffffffffffffffffffffffffff160217905550600781600b0160006101000a81548160ff02191690836007811115611df157611df06135e6565b5b02179055503381600d0160006101000a81548173ffffffffffffffffffffffffffffffffffffffff021916908373ffffffffffffffffffffffffffffffffffffffff1602179055503260086000878152602001908152602001600020604051611e5990613de1565b908152602001604051809103902060006101000a81548173ffffffffffffffffffffffffffffffffffffffff021916908373ffffffffffffffffffffffffffffffffffffffff1602179055507f653d56639fee6b566a5c804764e9689de38645f0b733df89a36a1b7b42173dd885604051611ed49190613774565b60405180910390a150600060076000838152602001908152602001600020600a0154905060008134611f069190613df6565b905060076000848152602001908152602001600020600d0160009054906101000a900473ffffffffffffffffffffffffffffffffffffffff1673ffffffffffffffffffffffffffffffffffffffff166108fc829081150290604051600060405180830381858888f19350505050158015611f84573d6000803e3d6000fd5b50505050505050565b611fa1336002612c9390919063ffffffff16565b611fe0576040517f08c379a0000000000000000000000000000000000000000000000000000000008152600401611fd790613e9c565b60405180910390fd5b8060036007811115611ff557611ff46135e6565b5b60076000838152602001908152602001600020600b0160009054906101000a900460ff16600781111561202b5761202a6135e6565b5b1461206b576040517f08c379a000000000000000000000000000000000000000000000000000000000815260040161206290613f2e565b60405180910390fd5b60076000838152602001908152602001600020600a0154803410156120c5576040517f08c379a00000000000000000000000000000000000000000000000000000000081526004016120bc90613d75565b60405180910390fd5b826000600760008681526020019081526020016000209050338160020160006101000a81548173ffffffffffffffffffffffffffffffffffffffff021916908373ffffffffffffffffffffffffffffffffffffffff160217905550600481600b0160006101000a81548160ff02191690836007811115612148576121476135e6565b5b02179055503381600b0160016101000a81548173ffffffffffffffffffffffffffffffffffffffff021916908373ffffffffffffffffffffffffffffffffffffffff160217905550600060076000878152602001908152602001600020600a015490506007600087815260200190815260200160002060030160009054906101000a900473ffffffffffffffffffffffffffffffffffffffff1673ffffffffffffffffffffffffffffffffffffffff166108fc829081150290604051600060405180830381858888f19350505050158015612227573d6000803e3d6000fd5b5032600860008881526020019081526020016000206040516122489061375f565b908152602001604051809103902060006101000a81548173ffffffffffffffffffffffffffffffffffffffff021916908373ffffffffffffffffffffffffffffffffffffffff1602179055507f92f64ca637d023f354075a4be751b169c1a8a9ccb6d33cdd0cb3520543995727866040516122c39190613774565b60405180910390a15050600060076000838152602001908152602001600020600a01549050600081346122f69190613df6565b905060076000848152602001908152602001600020600b0160019054906101000a900473ffffffffffffffffffffffffffffffffffffffff1673ffffffffffffffffffffffffffffffffffffffff166108fc829081150290604051600060405180830381858888f19350505050158015612374573d6000803e3d6000fd5b50505050505050565b60008054906101000a900473ffffffffffffffffffffffffffffffffffffffff1673ffffffffffffffffffffffffffffffffffffffff163373ffffffffffffffffffffffffffffffffffffffff161461240b576040517f08c379a0000000000000000000000000000000000000000000000000000000008152600401612402906138f4565b60405180910390fd5b600073ffffffffffffffffffffffffffffffffffffffff168173ffffffffffffffffffffffffffffffffffffffff160361247a576040517f08c379a000000000000000000000000000000000000000000000000000000000815260040161247190613fc0565b60405180910390fd5b8073ffffffffffffffffffffffffffffffffffffffff1660008054906101000a900473ffffffffffffffffffffffffffffffffffffffff1673ffffffffffffffffffffffffffffffffffffffff167f5c486528ec3e3f0ea91181cff8116f02bfa350e03b8b6f12e00765adbb5af85c60405160405180910390a3806000806101000a81548173ffffffffffffffffffffffffffffffffffffffff021916908373ffffffffffffffffffffffffffffffffffffffff16021790555050565b61254033611745565b61257f576040517f08c379a0000000000000000000000000000000000000000000000000000000008152600401612576906135c6565b60405180910390fd5b8060016007811115612594576125936135e6565b5b60076000838152602001908152602001600020600b0160009054906101000a900460ff1660078111156125ca576125c96135e6565b5b1461260a576040517f08c379a000000000000000000000000000000000000000000000000000000000815260040161260190614052565b60405180910390fd5b6007600083815260200190815260200160002060030160009054906101000a900473ffffffffffffffffffffffffffffffffffffffff168073ffffffffffffffffffffffffffffffffffffffff163373ffffffffffffffffffffffffffffffffffffffff16146126af576040517f08c379a00000000000000000000000000000000000000000000000000000000081526004016126a6906136f3565b60405180910390fd5b6000600760008581526020019081526020016000209050600281600b0160006101000a81548160ff021916908360078111156126ee576126ed6135e6565b5b02179055503260086000868152602001908152602001600020604051612713906140be565b908152602001604051809103902060006101000a81548173ffffffffffffffffffffffffffffffffffffffff021916908373ffffffffffffffffffffffffffffffffffffffff1602179055507f9b3b66e2380b690bae22c73ef1428fb0c91e72fe14a4b6defa13035214187aff8460405161278e9190613774565b60405180910390a150505050565b6127b0816004612b7d90919063ffffffff16565b8073ffffffffffffffffffffffffffffffffffffffff167fe3f5ed5f263f1f01764a96edfc7d025f511ec5f7d180e8816908b78bcf74f09860405160405180910390a250565b61280a336002612c9390919063ffffffff16565b612849576040517f08c379a000000000000000000000000000000000000000000000000000000000815260040161284090613e9c565b60405180910390fd5b806004600781111561285e5761285d6135e6565b5b60076000838152602001908152602001600020600b0160009054906101000a900460ff166007811115612894576128936135e6565b5b146128d4576040517f08c379a00000000000000000000000000000000000000000000000000000000081526004016128cb9061411f565b60405180910390fd5b60076000838152602001908152602001600020600b0160019054906101000a900473ffffffffffffffffffffffffffffffffffffffff168073ffffffffffffffffffffffffffffffffffffffff163373ffffffffffffffffffffffffffffffffffffffff1614612979576040517f08c379a0000000000000000000000000000000000000000000000000000000008152600401612970906136f3565b60405180910390fd5b6000600760008581526020019081526020016000209050600581600b0160006101000a81548160ff021916908360078111156129b8576129b76135e6565b5b021790555032600860008681526020019081526020016000206040516129dd9061418b565b908152602001604051809103902060006101000a81548173ffffffffffffffffffffffffffffffffffffffff021916908373ffffffffffffffffffffffffffffffffffffffff1602179055507ff00b9a5725b80c54016f42114f6ed7792d22eecb116011c4afac29c57bef6c9584604051612a589190613774565b60405180910390a150505050565b600073ffffffffffffffffffffffffffffffffffffffff168173ffffffffffffffffffffffffffffffffffffffff1603612ad5576040517f08c379a0000000000000000000000000000000000000000000000000000000008152600401612acc906141ec565b60405180910390fd5b612adf8282612c93565b15612b1f576040517f08c379a0000000000000000000000000000000000000000000000000000000008152600401612b169061427e565b60405180910390fd5b60018260000160008373ffffffffffffffffffffffffffffffffffffffff1673ffffffffffffffffffffffffffffffffffffffff16815260200190815260200160002060006101000a81548160ff0219169083151502179055505050565b600073ffffffffffffffffffffffffffffffffffffffff168173ffffffffffffffffffffffffffffffffffffffff1603612bec576040517f08c379a0000000000000000000000000000000000000000000000000000000008152600401612be3906141ec565b60405180910390fd5b612bf68282612c93565b612c35576040517f08c379a0000000000000000000000000000000000000000000000000000000008152600401612c2c90614310565b60405180910390fd5b60008260000160008373ffffffffffffffffffffffffffffffffffffffff1673ffffffffffffffffffffffffffffffffffffffff16815260200190815260200160002060006101000a81548160ff0219169083151502179055505050565b60008073ffffffffffffffffffffffffffffffffffffffff168273ffffffffffffffffffffffffffffffffffffffff1603612d03576040517f08c379a0000000000000000000000000000000000000000000000000000000008152600401612cfa906141ec565b60405180910390fd5b8260000160008373ffffffffffffffffffffffffffffffffffffffff1673ffffffffffffffffffffffffffffffffffffffff16815260200190815260200160002060009054906101000a900460ff16905092915050565b604051806101e001604052806000815260200160008152602001600073ffffffffffffffffffffffffffffffffffffffff168152602001600073ffffffffffffffffffffffffffffffffffffffff1681526020016060815260200160608152602001606081526020016060815260200160008152602001606081526020016000815260200160006007811115612df357612df26135e6565b5b8152602001600073ffffffffffffffffffffffffffffffffffffffff168152602001600073ffffffffffffffffffffffffffffffffffffffff168152602001600073ffffffffffffffffffffffffffffffffffffffff1681525090565b828054612e5c90613943565b90600052602060002090601f016020900481019282612e7e5760008555612ec5565b82601f10612e9757805160ff1916838001178555612ec5565b82800160010185558215612ec5579182015b82811115612ec4578251825591602001919060010190612ea9565b5b509050612ed29190612ed6565b5090565b5b80821115612eef576000816000905550600101612ed7565b5090565b6000604051905090565b600080fd5b600080fd5b600073ffffffffffffffffffffffffffffffffffffffff82169050919050565b6000612f3282612f07565b9050919050565b612f4281612f27565b8114612f4d57600080fd5b50565b600081359050612f5f81612f39565b92915050565b600060208284031215612f7b57612f7a612efd565b5b6000612f8984828501612f50565b91505092915050565b6000819050919050565b612fa581612f92565b8114612fb057600080fd5b50565b600081359050612fc281612f9c565b92915050565b600080fd5b600080fd5b6000601f19601f8301169050919050565b7f4e487b7100000000000000000000000000000000000000000000000000000000600052604160045260246000fd5b61301b82612fd2565b810181811067ffffffffffffffff8211171561303a57613039612fe3565b5b80604052505050565b600061304d612ef3565b90506130598282613012565b919050565b600067ffffffffffffffff82111561307957613078612fe3565b5b61308282612fd2565b9050602081019050919050565b82818337600083830152505050565b60006130b16130ac8461305e565b613043565b9050828152602081018484840111156130cd576130cc612fcd565b5b6130d884828561308f565b509392505050565b600082601f8301126130f5576130f4612fc8565b5b813561310584826020860161309e565b91505092915050565b6000806040838503121561312557613124612efd565b5b600061313385828601612fb3565b925050602083013567ffffffffffffffff81111561315457613153612f02565b5b613160858286016130e0565b9150509250929050565b61317381612f27565b82525050565b600060208201905061318e600083018461316a565b92915050565b600080604083850312156131ab576131aa612efd565b5b60006131b985828601612fb3565b92505060206131ca85828601612fb3565b9150509250929050565b6000602082840312156131ea576131e9612efd565b5b60006131f884828501612fb3565b91505092915050565b60008115159050919050565b61321681613201565b82525050565b6000602082019050613231600083018461320d565b92915050565b61324081612f92565b82525050565b600081519050919050565b600082825260208201905092915050565b60005b83811015613280578082015181840152602081019050613265565b8381111561328f576000848401525b50505050565b60006132a082613246565b6132aa8185613251565b93506132ba818560208601613262565b6132c381612fd2565b840191505092915050565b6000610100820190506132e4600083018b613237565b6132f1602083018a613237565b6132fe604083018961316a565b61330b606083018861316a565b818103608083015261331d8187613295565b905081810360a08301526133318186613295565b905081810360c08301526133458185613295565b905081810360e08301526133598184613295565b90509998505050505050505050565b600061337382612f07565b9050919050565b61338381613368565b811461338e57600080fd5b50565b6000813590506133a08161337a565b92915050565b600080600080600080600060e0888a0312156133c5576133c4612efd565b5b60006133d38a828b01612fb3565b97505060206133e48a828b01613391565b965050604088013567ffffffffffffffff81111561340557613404612f02565b5b6134118a828b016130e0565b955050606088013567ffffffffffffffff81111561343257613431612f02565b5b61343e8a828b016130e0565b945050608088013567ffffffffffffffff81111561345f5761345e612f02565b5b61346b8a828b016130e0565b93505060a088013567ffffffffffffffff81111561348c5761348b612f02565b5b6134988a828b016130e0565b92505060c088013567ffffffffffffffff8111156134b9576134b8612f02565b5b6134c58a828b016130e0565b91505092959891949750929550565b6000602082840312156134ea576134e9612efd565b5b60006134f884828501613391565b91505092915050565b600081905092915050565b600061351782613246565b6135218185613501565b9350613531818560208601613262565b80840191505092915050565b6000613549828461350c565b915081905092915050565b7f54686973206163636f756e7420686173206e6f2061204661726d657220526f6c60008201527f6500000000000000000000000000000000000000000000000000000000000000602082015250565b60006135b0602183613251565b91506135bb82613554565b604082019050919050565b600060208201905081810360008301526135df816135a3565b9050919050565b7f4e487b7100000000000000000000000000000000000000000000000000000000600052602160045260246000fd5b7f546865204974656d206973206e6f7420696e205061636b656420737461746521600082015250565b600061364b602083613251565b915061365682613615565b602082019050919050565b6000602082019050818103600083015261367a8161363e565b9050919050565b7f54686973206163636f756e74206973206e6f7420746865206f776e6572206f6660008201527f2074686973206974656d00000000000000000000000000000000000000000000602082015250565b60006136dd602a83613251565b91506136e882613681565b604082019050919050565b6000602082019050818103600083015261370c816136d0565b9050919050565b7f536f6c6400000000000000000000000000000000000000000000000000000000600082015250565b6000613749600483613501565b915061375482613713565b600482019050919050565b600061376a8261373c565b9150819050919050565b60006020820190506137896000830184613237565b92915050565b7f546865204974656d206973206e6f7420696e204861727665737465642073746160008201527f7465210000000000000000000000000000000000000000000000000000000000602082015250565b60006137eb602383613251565b91506137f68261378f565b604082019050919050565b6000602082019050818103600083015261381a816137de565b9050919050565b7f50726f6365737365640000000000000000000000000000000000000000000000600082015250565b6000613857600983613501565b915061386282613821565b600982019050919050565b60006138788261384a565b9150819050919050565b7f4f6e6c7920746865206f776e65722063616e20706572666f726d20746869732060008201527f6f7065726174696f6e0000000000000000000000000000000000000000000000602082015250565b60006138de602983613251565b91506138e982613882565b604082019050919050565b6000602082019050818103600083015261390d816138d1565b9050919050565b7f4e487b7100000000000000000000000000000000000000000000000000000000600052602260045260246000fd5b6000600282049050600182168061395b57607f821691505b60208210810361396e5761396d613914565b5b50919050565b7f54686973206163636f756e7420686173206e6f2052657461696c657220726f6c60008201527f6500000000000000000000000000000000000000000000000000000000000000602082015250565b60006139d0602183613251565b91506139db82613974565b604082019050919050565b600060208201905081810360008301526139ff816139c3565b9050919050565b7f546865204974656d206973206e6f7420696e205368697070656420737461746560008201527f2100000000000000000000000000000000000000000000000000000000000000602082015250565b6000613a62602183613251565b9150613a6d82613a06565b604082019050919050565b60006020820190508181036000830152613a9181613a55565b9050919050565b7f5265636569766564000000000000000000000000000000000000000000000000600082015250565b6000613ace600883613501565b9150613ad982613a98565b600882019050919050565b6000613aef82613ac1565b9150819050919050565b7f4e487b7100000000000000000000000000000000000000000000000000000000600052601160045260246000fd5b6000613b3382612f92565b9150613b3e83612f92565b9250827fffffffffffffffffffffffffffffffffffffffffffffffffffffffffffffffff03821115613b7357613b72613af9565b5b828201905092915050565b7f4861727665737465640000000000000000000000000000000000000000000000600082015250565b6000613bb4600983613501565b9150613bbf82613b7e565b600982019050919050565b6000613bd582613ba7565b9150819050919050565b7f54686973206163636f756e7420686173206e6f20436f6e73756d657220526f6c60008201527f6500000000000000000000000000000000000000000000000000000000000000602082015250565b6000613c3b602183613251565b9150613c4682613bdf565b604082019050919050565b60006020820190508181036000830152613c6a81613c2e565b9050919050565b7f546865204974656d206973206e6f7420696e205265636569766564207374617460008201527f6521000000000000000000000000000000000000000000000000000000000000602082015250565b6000613ccd602283613251565b9150613cd882613c71565b604082019050919050565b60006020820190508181036000830152613cfc81613cc0565b9050919050565b7f54686520616d6f756e742073656e74206973206e6f742073756666696369656e60008201527f7420666f72207468652070726963650000000000000000000000000000000000602082015250565b6000613d5f602f83613251565b9150613d6a82613d03565b604082019050919050565b60006020820190508181036000830152613d8e81613d52565b9050919050565b7f5075726368617365640000000000000000000000000000000000000000000000600082015250565b6000613dcb600983613501565b9150613dd682613d95565b600982019050919050565b6000613dec82613dbe565b9150819050919050565b6000613e0182612f92565b9150613e0c83612f92565b925082821015613e1f57613e1e613af9565b5b828203905092915050565b7f54686973206163636f756e7420686173206e6f204469737472696275746f722060008201527f526f6c6500000000000000000000000000000000000000000000000000000000602082015250565b6000613e86602483613251565b9150613e9182613e2a565b604082019050919050565b60006020820190508181036000830152613eb581613e79565b9050919050565b7f546865204974656d206973206e6f7420696e20466f7253616c6520737461746560008201527f2100000000000000000000000000000000000000000000000000000000000000602082015250565b6000613f18602183613251565b9150613f2382613ebc565b604082019050919050565b60006020820190508181036000830152613f4781613f0b565b9050919050565b7f546865206e6577204f776e65722063616e6e6f7420626520616464726573732060008201527f3000000000000000000000000000000000000000000000000000000000000000602082015250565b6000613faa602183613251565b9150613fb582613f4e565b604082019050919050565b60006020820190508181036000830152613fd981613f9d565b9050919050565b7f546865204974656d206973206e6f7420696e2050726f6365737365642073746160008201527f7465210000000000000000000000000000000000000000000000000000000000602082015250565b600061403c602383613251565b915061404782613fe0565b604082019050919050565b6000602082019050818103600083015261406b8161402f565b9050919050565b7f5061636b65640000000000000000000000000000000000000000000000000000600082015250565b60006140a8600683613501565b91506140b382614072565b600682019050919050565b60006140c98261409b565b9150819050919050565b7f546865204974656d206973206e6f7420696e20536f6c64207374617465210000600082015250565b6000614109601e83613251565b9150614114826140d3565b602082019050919050565b60006020820190508181036000830152614138816140fc565b9050919050565b7f5368697070656400000000000000000000000000000000000000000000000000600082015250565b6000614175600783613501565b91506141808261413f565b600782019050919050565b600061419682614168565b9150819050919050565b7f416464726573732063616e6e6f74206265207a65726f20616464726573730000600082015250565b60006141d6601e83613251565b91506141e1826141a0565b602082019050919050565b60006020820190508181036000830152614205816141c9565b9050919050565b7f54686973206164647265737320616c726561647920686173207468697320726f60008201527f6c65000000000000000000000000000000000000000000000000000000000000602082015250565b6000614268602283613251565b91506142738261420c565b604082019050919050565b600060208201905081810360008301526142978161425b565b9050919050565b7f54686973206164647265737320646f6573206e6f74206861766520746869732060008201527f726f6c6520796574000000000000000000000000000000000000000000000000602082015250565b60006142fa602883613251565b91506143058261429e565b604082019050919050565b60006020820190508181036000830152614329816142ed565b905091905056fea26469706673582212204522dbc74a1a337a387ea789642cfb02aa38f067c9afbae537aa46a5bd71c4d264736f6c634300080e0033",
  "immutableReferences": {},
  "source": "// SPDX-License-Identifier: MIT\npragma solidity >=0.4.22 <0.9.0;\n\nimport \"./Ownable.sol\";\nimport \"./Roles/Farmer.sol\";\nimport \"./Roles/Distributor.sol\";\nimport \"./Roles/Retailer.sol\";\nimport \"./Roles/Consumer.sol\";\nimport \"./utilities/Enums.sol\";\nimport \"./utilities/Structs.sol\";\n\n/**\n * @title Supplychain\n * @dev Contract for managing the entire supplychain\n */\ncontract SupplyChain is Ownable, Farmer, Distributor, Retailer, Consumer {\n    // Define a variable called 'upc' for Universal Product Code (UPC)\n    uint256 upc;\n    // Define a variable called 'sku' for Stock Keeping Unit (SKU)\n    uint256 sku;\n    // Define a public mapping 'items' that maps the UPC to an Item.\n    mapping(uint256 => Item) items;\n    // Define a public mapping 'itemsHistory' that maps the UPC to an array of TxHash, that track its journey through the supply chain -- to be sent from DApp.\n    mapping(uint256 => mapping(string => address)) itemsHistory;\n    // Default Product State\n    StateProduct constant defaultState = StateProduct.Harvested;\n\n    // Define 8 events with the same 8 state values and accept 'upc' as input argument\n    event Harvested(uint256 upc);\n    event Processed(uint256 upc);\n    event Packed(uint256 upc);\n    event ForSale(uint256 upc);\n    event Sold(uint256 upc);\n    event Shipped(uint256 upc);\n    event Received(uint256 upc);\n    event Purchased(uint256 upc);\n\n    // Using Ownable to define the owner\n    constructor() payable {\n        sku = 1;\n        upc = 1;\n    }\n\n    /** GENERAL MODIFIERS */\n    // Define a modifier that verifies the Caller\n    modifier verifyCaller(address _address) {\n        require(\n            msg.sender == _address,\n            \"This account is not the owner of this item\"\n        );\n        _;\n    }\n    // Define a modifier that checks if the paid amount is sufficient to cover the price\n    modifier paidEnough(uint256 _price) {\n        require(\n            msg.value >= _price,\n            \"The amount sent is not sufficient for the price\"\n        );\n        _;\n    }\n    // Define a modifier that checks the price and refunds the remaining balance to the Distributor\n    modifier checkValueForDistributor(uint256 _upc) {\n        _;\n        uint256 _price = items[_upc].productPrice;\n        uint256 amountToReturn = msg.value - _price;\n        items[_upc].distributorID.transfer(amountToReturn);\n    }\n    // Define a modifier that checks the price and refunds the remaining balance to the Consumer\n    modifier checkValueForConsumer(uint256 _upc) {\n        _;\n        uint256 _price = items[_upc].productPrice;\n        uint256 amountToReturn = msg.value - _price;\n        items[_upc].consumerID.transfer(amountToReturn);\n    }\n\n    /** PRODUCT STATE MODIFIERS */\n    // Define a modifier that checks if an item.state of a upc is Harvested\n    modifier harvested(uint256 _upc) {\n        require(\n            items[_upc].itemState == StateProduct.Harvested,\n            \"The Item is not in Harvested state!\"\n        );\n        _;\n    }\n    // Define a modifier that checks if an item.state of a upc is Processed\n    modifier processed(uint256 _upc) {\n        require(\n            items[_upc].itemState == StateProduct.Processed,\n            \"The Item is not in Processed state!\"\n        );\n        _;\n    }\n    // Define a modifier that checks if an item.state of a upc is Packed\n    modifier packed(uint256 _upc) {\n        require(\n            items[_upc].itemState == StateProduct.Packed,\n            \"The Item is not in Packed state!\"\n        );\n        _;\n    }\n    // Define a modifier that checks if an item.state of a upc is ForSale\n    modifier forSale(uint256 _upc) {\n        require(\n            items[_upc].itemState == StateProduct.ForSale,\n            \"The Item is not in ForSale state!\"\n        );\n        _;\n    }\n    // Define a modifier that checks if an item.state of a upc is Sold\n    modifier sold(uint256 _upc) {\n        require(\n            items[_upc].itemState == StateProduct.Sold,\n            \"The Item is not in Sold state!\"\n        );\n        _;\n    }\n    // Define a modifier that checks if an item.state of a upc is Shipped\n    modifier shipped(uint256 _upc) {\n        require(\n            items[_upc].itemState == StateProduct.Shipped,\n            \"The Item is not in Shipped state!\"\n        );\n        _;\n    }\n    // Define a modifier that checks if an item.state of a upc is Received\n    modifier received(uint256 _upc) {\n        require(\n            items[_upc].itemState == StateProduct.Received,\n            \"The Item is not in Received state!\"\n        );\n        _;\n    }\n    // Define a modifier that checks if an item.state of a upc is Purchased\n    modifier purchased(uint256 _upc) {\n        require(\n            items[_upc].itemState == StateProduct.Purchased,\n            \"The Item is not in Purchased state!\"\n        );\n        _;\n    }\n\n    /** FUNCTIONS (GETTERS) */\n    // Get The Item History\n    function getItemHistory(uint256 _upc, string memory state)\n        public\n        view\n        returns (address)\n    {\n        return itemsHistory[_upc][state];\n    }\n\n    /** FUNCTIONS (STATE) */\n    // Define a function 'harvestItem' that allows a farmer to mark an item 'Harvested'\n    function harvestItem(\n        uint256 _upc,\n        address payable _originFarmerID,\n        string memory _originFarmName,\n        string memory _originFarmInformation,\n        string memory _originFarmLatitude,\n        string memory _originFarmLongitude,\n        string memory _productNotes\n    ) public onlyFarmer {\n        // Add the new item as part of Harvest\n        Item memory newItem;\n        newItem.upc = _upc;\n        newItem.ownerID = _originFarmerID;\n        newItem.originFarmerID = _originFarmerID;\n        newItem.originFarmName = _originFarmName;\n        newItem.originFarmInformation = _originFarmInformation;\n        newItem.originFarmLatitude = _originFarmLatitude;\n        newItem.originFarmLongitude = _originFarmLongitude;\n        newItem.productNotes = _productNotes;\n        newItem.sku = sku;\n        newItem.productID = _upc + sku;\n        // Add Harvest to Item History\n        itemsHistory[_upc][\"Harvested\"] = tx.origin;\n        // Increment sku\n        sku = sku + 1;\n        // Setting state\n        newItem.itemState = StateProduct.Harvested;\n        // Adding new Item to map\n        items[_upc] = newItem;\n        // Emit the appropriate event\n        emit Harvested(_upc);\n    }\n\n    // Define a function 'processtItem' that allows a farmer to mark an item 'Processed'\n    function processItem(uint256 _upc)\n        public\n        //Only Farmer\n        onlyFarmer\n        // Call modifier to check if upc has passed previous supply chain stage\n        harvested(_upc)\n        // Call modifier to verify caller of this function\n        verifyCaller(items[_upc].originFarmerID)\n    {\n        // Update the appropriate fields\n        Item storage existingItem = items[_upc];\n        existingItem.itemState = StateProduct.Processed;\n        // Add Harvest to Item History\n        itemsHistory[_upc][\"Processed\"] = tx.origin;\n        // Emit the appropriate event\n        emit Processed(_upc);\n    }\n\n    // Define a function 'packItem' that allows a farmer to mark an item 'Packed'\n    function packItem(uint256 _upc)\n        public\n        //Only Farmer\n        onlyFarmer\n        // Call modifier to check if upc has passed previous supply chain stage\n        processed(_upc)\n        // Call modifier to verify caller of this function\n        verifyCaller(items[_upc].originFarmerID)\n    {\n        // Update the appropriate fields\n        Item storage existingItem = items[_upc];\n        existingItem.itemState = StateProduct.Packed;\n        // Add Harvest to Item History\n        itemsHistory[_upc][\"Packed\"] = tx.origin;\n        // Emit the appropriate event\n        emit Packed(_upc);\n    }\n\n    // Define a function 'sellItem' that allows a farmer to mark an item is 'ForSale'\n    function sellItem(uint256 _upc, uint256 _price)\n        public\n        //Only Farmer\n        onlyFarmer\n        // Call modifier to check if upc has passed previous supply chain stage\n        packed(_upc)\n        // Call modifier to verify caller of this function\n        verifyCaller(items[_upc].originFarmerID)\n    {\n        // Update the appropriate fields\n        Item storage existingItem = items[_upc];\n        existingItem.itemState = StateProduct.ForSale;\n        existingItem.productPrice = _price;\n        // Add Harvest to Item History\n        itemsHistory[_upc][\"Sold\"] = tx.origin;\n        // Emit the appropriate event\n        emit ForSale(_upc);\n    }\n\n    // Define a function 'buyItem' that allows the disributor to mark an item 'Sold'\n    // Use the above defined modifiers to check if the item is available for sale, if the buyer has paid enough,\n    // and any excess ether sent is refunded back to the buyer\n    function buyItem(uint256 _upc)\n        public\n        payable\n        // Only Distributor\n        onlyDistributor\n        // Call modifier to check if upc has passed previous supply chain stage\n        forSale(_upc)\n        // Call modifer to check if buyer has paid enough\n        paidEnough(items[_upc].productPrice)\n        // Call modifer to send any excess ether back to buyer\n        checkValueForDistributor(_upc)\n    {\n        // Update the appropriate fields - ownerID, distributorID, itemState\n        Item storage existingItem = items[_upc];\n        existingItem.ownerID = payable(msg.sender);\n        existingItem.itemState = StateProduct.Sold;\n        existingItem.distributorID = payable(msg.sender);\n        // Transfer money to farmer\n        uint256 productPrice = items[_upc].productPrice;\n        items[_upc].originFarmerID.transfer(productPrice);\n        // Add Harvest to Item History\n        itemsHistory[_upc][\"Sold\"] = tx.origin;\n        // emit the appropriate event\n        emit Sold(_upc);\n    }\n\n    // Define a function 'shipItem' that allows the distributor to mark an item 'Shipped'\n    // Use the above modifers to check if the item is sold\n    function shipItem(uint256 _upc)\n        public\n        // Only Distributor\n        onlyDistributor\n        // Call modifier to check if upc has passed previous supply chain stage\n        sold(_upc)\n        // Call modifier to verify caller of this function\n        verifyCaller(items[_upc].distributorID)\n    {\n        // Update the appropriate fields\n        Item storage existingItem = items[_upc];\n        existingItem.itemState = StateProduct.Shipped;\n        // Add Harvest to Item History\n        itemsHistory[_upc][\"Shipped\"] = tx.origin;\n        // Emit the appropriate event\n        emit Shipped(_upc);\n    }\n\n    // Define a function 'receiveItem' that allows the retailer to mark an item 'Received'\n    // Use the above modifiers to check if the item is shipped\n    function receiveItem(uint256 _upc)\n        public\n        // Only Retailer\n        onlyRetailer\n        // Call modifier to check if upc has passed previous supply chain stage\n        shipped(_upc)\n    // Access Control List enforced by calling Smart Contract / DApp\n    {\n        // Update the appropriate fields - ownerID, retailerID, itemState\n        Item storage existingItem = items[_upc];\n        existingItem.ownerID = payable(msg.sender);\n        existingItem.itemState = StateProduct.Received;\n        existingItem.retailerID = payable(msg.sender);\n        // Add Harvest to Item History\n        itemsHistory[_upc][\"Received\"] = tx.origin;\n        // Emit the appropriate event\n        emit Received(_upc);\n    }\n\n    // Define a function 'purchaseItem' that allows the consumer to mark an item 'Purchased'\n    // Use the above modifiers to check if the item is received\n    function purchaseItem(uint256 _upc)\n        public\n        payable\n        //Only Consumer\n        onlyConsumer\n        // Call modifier to check if upc has passed previous supply chain stage\n        received(_upc)\n        // Make sure paid enough\n        paidEnough(items[_upc].productPrice)\n        // Access Control List enforced by calling Smart Contract / DApp\n        checkValueForConsumer(_upc)\n    {\n        // Update the appropriate fields - ownerID, consumerID, itemState\n        Item storage existingItem = items[_upc];\n        existingItem.ownerID = payable(msg.sender);\n        existingItem.itemState = StateProduct.Purchased;\n        existingItem.consumerID = payable(msg.sender);\n        // Add Harvest to Item History\n        itemsHistory[_upc][\"Purchased\"] = tx.origin;\n        // Emit the appropriate event\n        emit Purchased(_upc);\n    }\n\n    // Define a function 'fetchItemBufferOne' that fetches the data\n    function fetchItemBufferOne(uint256 _upc)\n        public\n        view\n        returns (\n            uint256 itemSKU,\n            uint256 itemUPC,\n            address ownerID,\n            address originFarmerID,\n            string memory originFarmName,\n            string memory originFarmInformation,\n            string memory originFarmLatitude,\n            string memory originFarmLongitude\n        )\n    {\n        // Assign values to the 8 parameters\n        Item memory existingItem = items[_upc];\n\n        itemSKU = existingItem.sku;\n        itemUPC = existingItem.upc;\n        ownerID = existingItem.ownerID;\n        originFarmerID = existingItem.originFarmerID;\n        originFarmName = existingItem.originFarmName;\n        originFarmInformation = existingItem.originFarmInformation;\n        originFarmLatitude = existingItem.originFarmLatitude;\n        originFarmLongitude = existingItem.originFarmLongitude;\n\n        return (\n            itemSKU,\n            itemUPC,\n            ownerID,\n            originFarmerID,\n            originFarmName,\n            originFarmInformation,\n            originFarmLatitude,\n            originFarmLongitude\n        );\n    }\n}\n",
  "sourcePath": "/home/hakim/Templates/supply-chain-dapp/contracts/SupplyChain.sol",
  "compiler": {
    "name": "solc",
    "version": "0.8.14+commit.80d49f37.Emscripten.clang"
  },
  "schemaVersion": "3.4.7",
  "updatedAt": "2022-05-31T14:43:05.092Z",
  "devdoc": {
    "details": "Contract for managing the entire supplychain",
    "kind": "dev",
    "methods": {
      "kill()": {
        "details": "Define a function 'kill' if required"
      },
      "owner()": {
        "details": "Look up the address of the owner"
      },
      "renounceOwnership()": {
        "details": "Define a function to renounce ownerhip"
      },
      "transferOwnership(address)": {
        "details": "Define an public function to transfer ownership"
      }
    },
    "title": "Supplychain",
    "version": 1
  },
  "userdoc": {
    "kind": "user",
    "methods": {
      "getItemHistory(uint256,string)": {
        "notice": "FUNCTIONS (GETTERS) "
      },
      "harvestItem(uint256,address,string,string,string,string,string)": {
        "notice": "FUNCTIONS (STATE) "
      }
    },
    "version": 1
  }
}