{
  "contractName": "SupplyChain",
  "abi": [
    {
      "inputs": [],
      "stateMutability": "payable",
      "type": "constructor",
      "payable": true
    },
    {
      "anonymous": false,
      "inputs": [
        {
          "indexed": true,
          "internalType": "address",
          "name": "account",
          "type": "address"
        }
      ],
      "name": "ConsumerAdded",
      "type": "event"
    },
    {
      "anonymous": false,
      "inputs": [
        {
          "indexed": true,
          "internalType": "address",
          "name": "account",
          "type": "address"
        }
      ],
      "name": "ConsumerRemoved",
      "type": "event"
    },
    {
      "anonymous": false,
      "inputs": [
        {
          "indexed": true,
          "internalType": "address",
          "name": "account",
          "type": "address"
        }
      ],
      "name": "DistributorAdded",
      "type": "event"
    },
    {
      "anonymous": false,
      "inputs": [
        {
          "indexed": true,
          "internalType": "address",
          "name": "account",
          "type": "address"
        }
      ],
      "name": "DistributorRemoved",
      "type": "event"
    },
    {
      "anonymous": false,
      "inputs": [
        {
          "indexed": true,
          "internalType": "address",
          "name": "account",
          "type": "address"
        }
      ],
      "name": "FarmerAdded",
      "type": "event"
    },
    {
      "anonymous": false,
      "inputs": [
        {
          "indexed": true,
          "internalType": "address",
          "name": "account",
          "type": "address"
        }
      ],
      "name": "FarmerRemoved",
      "type": "event"
    },
    {
      "anonymous": false,
      "inputs": [
        {
          "indexed": false,
          "internalType": "uint256",
          "name": "upc",
          "type": "uint256"
        }
      ],
      "name": "ForSale",
      "type": "event"
    },
    {
      "anonymous": false,
      "inputs": [
        {
          "indexed": false,
          "internalType": "uint256",
          "name": "upc",
          "type": "uint256"
        }
      ],
      "name": "Harvested",
      "type": "event"
    },
    {
      "anonymous": false,
      "inputs": [
        {
          "indexed": false,
          "internalType": "uint256",
          "name": "upc",
          "type": "uint256"
        }
      ],
      "name": "Packed",
      "type": "event"
    },
    {
      "anonymous": false,
      "inputs": [
        {
          "indexed": false,
          "internalType": "uint256",
          "name": "upc",
          "type": "uint256"
        }
      ],
      "name": "Processed",
      "type": "event"
    },
    {
      "anonymous": false,
      "inputs": [
        {
          "indexed": false,
          "internalType": "uint256",
          "name": "upc",
          "type": "uint256"
        }
      ],
      "name": "Purchased",
      "type": "event"
    },
    {
      "anonymous": false,
      "inputs": [
        {
          "indexed": false,
          "internalType": "uint256",
          "name": "upc",
          "type": "uint256"
        }
      ],
      "name": "Received",
      "type": "event"
    },
    {
      "anonymous": false,
      "inputs": [
        {
          "indexed": true,
          "internalType": "address",
          "name": "account",
          "type": "address"
        }
      ],
      "name": "RetailerAdded",
      "type": "event"
    },
    {
      "anonymous": false,
      "inputs": [
        {
          "indexed": true,
          "internalType": "address",
          "name": "account",
          "type": "address"
        }
      ],
      "name": "RetailerRemoved",
      "type": "event"
    },
    {
      "anonymous": false,
      "inputs": [
        {
          "indexed": false,
          "internalType": "uint256",
          "name": "upc",
          "type": "uint256"
        }
      ],
      "name": "Shipped",
      "type": "event"
    },
    {
      "anonymous": false,
      "inputs": [
        {
          "indexed": false,
          "internalType": "uint256",
          "name": "upc",
          "type": "uint256"
        }
      ],
      "name": "Sold",
      "type": "event"
    },
    {
      "anonymous": false,
      "inputs": [
        {
          "indexed": true,
          "internalType": "address",
          "name": "oldOwner",
          "type": "address"
        },
        {
          "indexed": true,
          "internalType": "address",
          "name": "newOwner",
          "type": "address"
        }
      ],
      "name": "TransferOwnership",
      "type": "event"
    },
    {
      "inputs": [
        {
          "internalType": "address",
          "name": "account",
          "type": "address"
        }
      ],
      "name": "addConsumer",
      "outputs": [],
      "stateMutability": "nonpayable",
      "type": "function"
    },
    {
      "inputs": [
        {
          "internalType": "address",
          "name": "account",
          "type": "address"
        }
      ],
      "name": "addDistributor",
      "outputs": [],
      "stateMutability": "nonpayable",
      "type": "function"
    },
    {
      "inputs": [
        {
          "internalType": "address",
          "name": "account",
          "type": "address"
        }
      ],
      "name": "addFarmer",
      "outputs": [],
      "stateMutability": "nonpayable",
      "type": "function"
    },
    {
      "inputs": [
        {
          "internalType": "address",
          "name": "account",
          "type": "address"
        }
      ],
      "name": "addRetailer",
      "outputs": [],
      "stateMutability": "nonpayable",
      "type": "function"
    },
    {
      "inputs": [
        {
          "internalType": "address",
          "name": "account",
          "type": "address"
        }
      ],
      "name": "isConsumer",
      "outputs": [
        {
          "internalType": "bool",
          "name": "",
          "type": "bool"
        }
      ],
      "stateMutability": "view",
      "type": "function",
      "constant": true
    },
    {
      "inputs": [
        {
          "internalType": "address",
          "name": "account",
          "type": "address"
        }
      ],
      "name": "isDistributor",
      "outputs": [
        {
          "internalType": "bool",
          "name": "",
          "type": "bool"
        }
      ],
      "stateMutability": "view",
      "type": "function",
      "constant": true
    },
    {
      "inputs": [
        {
          "internalType": "address",
          "name": "account",
          "type": "address"
        }
      ],
      "name": "isFarmer",
      "outputs": [
        {
          "internalType": "bool",
          "name": "",
          "type": "bool"
        }
      ],
      "stateMutability": "view",
      "type": "function",
      "constant": true
    },
    {
      "inputs": [
        {
          "internalType": "address",
          "name": "account",
          "type": "address"
        }
      ],
      "name": "isRetailer",
      "outputs": [
        {
          "internalType": "bool",
          "name": "",
          "type": "bool"
        }
      ],
      "stateMutability": "view",
      "type": "function",
      "constant": true
    },
    {
      "inputs": [],
      "name": "kill",
      "outputs": [],
      "stateMutability": "nonpayable",
      "type": "function"
    },
    {
      "inputs": [],
      "name": "owner",
      "outputs": [
        {
          "internalType": "address",
          "name": "",
          "type": "address"
        }
      ],
      "stateMutability": "view",
      "type": "function",
      "constant": true
    },
    {
      "inputs": [
        {
          "internalType": "address",
          "name": "account",
          "type": "address"
        }
      ],
      "name": "renounceConsumer",
      "outputs": [],
      "stateMutability": "nonpayable",
      "type": "function"
    },
    {
      "inputs": [
        {
          "internalType": "address",
          "name": "account",
          "type": "address"
        }
      ],
      "name": "renounceDistributor",
      "outputs": [],
      "stateMutability": "nonpayable",
      "type": "function"
    },
    {
      "inputs": [
        {
          "internalType": "address",
          "name": "account",
          "type": "address"
        }
      ],
      "name": "renounceFarmer",
      "outputs": [],
      "stateMutability": "nonpayable",
      "type": "function"
    },
    {
      "inputs": [],
      "name": "renounceOwnership",
      "outputs": [],
      "stateMutability": "nonpayable",
      "type": "function"
    },
    {
      "inputs": [
        {
          "internalType": "address",
          "name": "account",
          "type": "address"
        }
      ],
      "name": "renounceRetailer",
      "outputs": [],
      "stateMutability": "nonpayable",
      "type": "function"
    },
    {
      "inputs": [
        {
          "internalType": "address payable",
          "name": "newOwner",
          "type": "address"
        }
      ],
      "name": "transferOwnership",
      "outputs": [],
      "stateMutability": "nonpayable",
      "type": "function"
    },
    {
      "inputs": [
        {
          "internalType": "uint256",
          "name": "_upc",
          "type": "uint256"
        },
        {
          "internalType": "string",
          "name": "state",
          "type": "string"
        }
      ],
      "name": "getItemHistory",
      "outputs": [
        {
          "internalType": "address",
          "name": "",
          "type": "address"
        }
      ],
      "stateMutability": "view",
      "type": "function",
      "constant": true
    },
    {
      "inputs": [
        {
          "internalType": "uint256",
          "name": "_upc",
          "type": "uint256"
        },
        {
          "internalType": "address payable",
          "name": "_originFarmerID",
          "type": "address"
        },
        {
          "internalType": "string",
          "name": "_originFarmName",
          "type": "string"
        },
        {
          "internalType": "string",
          "name": "_originFarmInformation",
          "type": "string"
        },
        {
          "internalType": "string",
          "name": "_originFarmLatitude",
          "type": "string"
        },
        {
          "internalType": "string",
          "name": "_originFarmLongitude",
          "type": "string"
        },
        {
          "internalType": "string",
          "name": "_productNotes",
          "type": "string"
        }
      ],
      "name": "harvestItem",
      "outputs": [],
      "stateMutability": "nonpayable",
      "type": "function"
    },
    {
      "inputs": [
        {
          "internalType": "uint256",
          "name": "_upc",
          "type": "uint256"
        }
      ],
      "name": "processItem",
      "outputs": [],
      "stateMutability": "nonpayable",
      "type": "function"
    },
    {
      "inputs": [
        {
          "internalType": "uint256",
          "name": "_upc",
          "type": "uint256"
        }
      ],
      "name": "packItem",
      "outputs": [],
      "stateMutability": "nonpayable",
      "type": "function"
    },
    {
      "inputs": [
        {
          "internalType": "uint256",
          "name": "_upc",
          "type": "uint256"
        },
        {
          "internalType": "uint256",
          "name": "_price",
          "type": "uint256"
        }
      ],
      "name": "sellItem",
      "outputs": [],
      "stateMutability": "nonpayable",
      "type": "function"
    },
    {
      "inputs": [
        {
          "internalType": "uint256",
          "name": "_upc",
          "type": "uint256"
        }
      ],
      "name": "buyItem",
      "outputs": [],
      "stateMutability": "payable",
      "type": "function",
      "payable": true
    },
    {
      "inputs": [
        {
          "internalType": "uint256",
          "name": "_upc",
          "type": "uint256"
        }
      ],
      "name": "shipItem",
      "outputs": [],
      "stateMutability": "nonpayable",
      "type": "function"
    },
    {
      "inputs": [
        {
          "internalType": "uint256",
          "name": "_upc",
          "type": "uint256"
        }
      ],
      "name": "receiveItem",
      "outputs": [],
      "stateMutability": "nonpayable",
      "type": "function"
    },
    {
      "inputs": [
        {
          "internalType": "uint256",
          "name": "_upc",
          "type": "uint256"
        }
      ],
      "name": "purchaseItem",
      "outputs": [],
      "stateMutability": "payable",
      "type": "function",
      "payable": true
    },
    {
      "inputs": [
        {
          "internalType": "uint256",
          "name": "_upc",
          "type": "uint256"
        }
      ],
      "name": "fetchItem",
      "outputs": [
        {
          "components": [
            {
              "internalType": "uint256",
              "name": "sku",
              "type": "uint256"
            },
            {
              "internalType": "uint256",
              "name": "upc",
              "type": "uint256"
            },
            {
              "internalType": "address payable",
              "name": "ownerID",
              "type": "address"
            },
            {
              "internalType": "address payable",
              "name": "originFarmerID",
              "type": "address"
            },
            {
              "internalType": "string",
              "name": "originFarmName",
              "type": "string"
            },
            {
              "internalType": "string",
              "name": "originFarmInformation",
              "type": "string"
            },
            {
              "internalType": "string",
              "name": "originFarmLatitude",
              "type": "string"
            },
            {
              "internalType": "string",
              "name": "originFarmLongitude",
              "type": "string"
            },
            {
              "internalType": "uint256",
              "name": "productID",
              "type": "uint256"
            },
            {
              "internalType": "string",
              "name": "productNotes",
              "type": "string"
            },
            {
              "internalType": "uint256",
              "name": "productPrice",
              "type": "uint256"
            },
            {
              "internalType": "enum StateProduct",
              "name": "itemState",
              "type": "uint8"
            },
            {
              "internalType": "address payable",
              "name": "distributorID",
              "type": "address"
            },
            {
              "internalType": "address payable",
              "name": "retailerID",
              "type": "address"
            },
            {
              "internalType": "address payable",
              "name": "consumerID",
              "type": "address"
            }
          ],
          "internalType": "struct Item",
          "name": "",
          "type": "tuple"
        }
      ],
      "stateMutability": "view",
      "type": "function",
      "constant": true
    }
  ],
  "bytecode": "0x6080604052336000806101000a81548173ffffffffffffffffffffffffffffffffffffffff021916908373ffffffffffffffffffffffffffffffffffffffff16021790555060008054906101000a900473ffffffffffffffffffffffffffffffffffffffff1673ffffffffffffffffffffffffffffffffffffffff16600073ffffffffffffffffffffffffffffffffffffffff167f5c486528ec3e3f0ea91181cff8116f02bfa350e03b8b6f12e00765adbb5af85c60405160405180910390a3620000d0336200011960201b60201c565b620000e1336200017a60201b60201c565b620000f233620001db60201b60201c565b62000103336200023c60201b60201c565b60016006819055506001600581905550620005a7565b620001348160016200029d60201b62002a201790919060201c565b8073ffffffffffffffffffffffffffffffffffffffff167f2e0ded4123377a3c2bc9a26f1717655a129e2f20752924d42e730ec89c83dbd060405160405180910390a250565b620001958160026200029d60201b62002a201790919060201c565b8073ffffffffffffffffffffffffffffffffffffffff167fddbf200aa634dc3fb81cfd68583dd1040d1c751d335e1d86b631bde3e977fea860405160405180910390a250565b620001f68160036200029d60201b62002a201790919060201c565b8073ffffffffffffffffffffffffffffffffffffffff167f71ae26cad02663e3d92efd6ec56031a80d74a20c0ab4183faa8bf262261c9baa60405160405180910390a250565b620002578160046200029d60201b62002a201790919060201c565b8073ffffffffffffffffffffffffffffffffffffffff167f28b26e7a3d20aedbc5f8f2ebf7da671c0491723a2b78f47a097b0e46dee0714260405160405180910390a250565b600073ffffffffffffffffffffffffffffffffffffffff168173ffffffffffffffffffffffffffffffffffffffff16036200030f576040517f08c379a00000000000000000000000000000000000000000000000000000000081526004016200030690620004ed565b60405180910390fd5b620003218282620003c260201b60201c565b1562000364576040517f08c379a00000000000000000000000000000000000000000000000000000000081526004016200035b9062000585565b60405180910390fd5b60018260000160008373ffffffffffffffffffffffffffffffffffffffff1673ffffffffffffffffffffffffffffffffffffffff16815260200190815260200160002060006101000a81548160ff0219169083151502179055505050565b60008073ffffffffffffffffffffffffffffffffffffffff168273ffffffffffffffffffffffffffffffffffffffff160362000435576040517f08c379a00000000000000000000000000000000000000000000000000000000081526004016200042c90620004ed565b60405180910390fd5b8260000160008373ffffffffffffffffffffffffffffffffffffffff1673ffffffffffffffffffffffffffffffffffffffff16815260200190815260200160002060009054906101000a900460ff16905092915050565b600082825260208201905092915050565b7f416464726573732063616e6e6f74206265207a65726f20616464726573730000600082015250565b6000620004d5601e836200048c565b9150620004e2826200049d565b602082019050919050565b600060208201905081810360008301526200050881620004c6565b9050919050565b7f54686973206164647265737320616c726561647920686173207468697320726f60008201527f6c65000000000000000000000000000000000000000000000000000000000000602082015250565b60006200056d6022836200048c565b91506200057a826200050f565b604082019050919050565b60006020820190508181036000830152620005a0816200055e565b9050919050565b6144df80620005b76000396000f3fe6080604052600436106101815760003560e01c80638ec4f505116100d1578063bdd8a6a81161008a578063f2fde38b11610064578063f2fde38b14610548578063f30fc48014610571578063f487d48d1461059a578063f61c899a146105c357610181565b8063bdd8a6a8146104e7578063d38ea5bf14610510578063e7fb74c71461052c57610181565b80638ec4f505146103b55780638f0c86fa146103de578063a26be9991461041b578063ad4b9cfb14610444578063b942906914610481578063bbb67db9146104be57610181565b80634d04321a1161013e5780637250e224116101185780637250e224146102fb57806380c3f96d14610324578063834ff7391461034d5780638da5cb5b1461038a57610181565b80634d04321a1461027e5780635da09b88146102a7578063715018a6146102e457610181565b80630ca7143214610186578063112940f9146101af5780632c98e64d146101d85780632d9235611461021557806341c0e1b51461023e57806349dae76614610255575b600080fd5b34801561019257600080fd5b506101ad60048036038101906101a89190612f1f565b6105ec565b005b3480156101bb57600080fd5b506101d660048036038101906101d19190612f1f565b610646565b005b3480156101e457600080fd5b506101ff60048036038101906101fa91906130c8565b6106a0565b60405161020c9190613133565b60405180910390f35b34801561022157600080fd5b5061023c6004803603810190610237919061314e565b6106fa565b005b34801561024a57600080fd5b50610253610969565b005b34801561026157600080fd5b5061027c6004803603810190610277919061318e565b6109f7565b005b34801561028a57600080fd5b506102a560048036038101906102a09190612f1f565b610c5c565b005b3480156102b357600080fd5b506102ce60048036038101906102c99190612f1f565b610cb6565b6040516102db91906131d6565b60405180910390f35b3480156102f057600080fd5b506102f9610cd3565b005b34801561030757600080fd5b50610322600480360381019061031d9190612f1f565b610e1f565b005b34801561033057600080fd5b5061034b60048036038101906103469190612f1f565b610e79565b005b34801561035957600080fd5b50610374600480360381019061036f9190612f1f565b610ed3565b60405161038191906131d6565b60405180910390f35b34801561039657600080fd5b5061039f610ef0565b6040516103ac9190613133565b60405180910390f35b3480156103c157600080fd5b506103dc60048036038101906103d79190612f1f565b610f19565b005b3480156103ea57600080fd5b5061040560048036038101906104009190612f1f565b610f73565b60405161041291906131d6565b60405180910390f35b34801561042757600080fd5b50610442600480360381019061043d919061318e565b610f90565b005b34801561045057600080fd5b5061046b6004803603810190610466919061318e565b6111e0565b604051610478919061347f565b60405180910390f35b34801561048d57600080fd5b506104a860048036038101906104a39190612f1f565b6116ff565b6040516104b591906131d6565b60405180910390f35b3480156104ca57600080fd5b506104e560048036038101906104e09190612f1f565b61171c565b005b3480156104f357600080fd5b5061050e600480360381019061050991906134cd565b611776565b005b61052a6004803603810190610525919061318e565b611bf0565b005b6105466004803603810190610541919061318e565b611f47565b005b34801561055457600080fd5b5061056f600480360381019061056a91906135fb565b612337565b005b34801561057d57600080fd5b506105986004803603810190610593919061318e565b6124f1565b005b3480156105a657600080fd5b506105c160048036038101906105bc9190612f1f565b612756565b005b3480156105cf57600080fd5b506105ea60048036038101906105e5919061318e565b6127b0565b005b610600816003612b3790919063ffffffff16565b8073ffffffffffffffffffffffffffffffffffffffff167fdb7176e79cffef81cb01767dd0447a0b24bb72ca9778d4b245581086b2a7e6db60405160405180910390a250565b61065a816004612a2090919063ffffffff16565b8073ffffffffffffffffffffffffffffffffffffffff167f28b26e7a3d20aedbc5f8f2ebf7da671c0491723a2b78f47a097b0e46dee0714260405160405180910390a250565b600060086000848152602001908152602001600020826040516106c39190613664565b908152602001604051809103902060009054906101000a900473ffffffffffffffffffffffffffffffffffffffff16905092915050565b610703336116ff565b610742576040517f08c379a0000000000000000000000000000000000000000000000000000000008152600401610739906136fe565b60405180910390fd5b8160026007811115610757576107566132a9565b5b60076000838152602001908152602001600020600b0160009054906101000a900460ff16600781111561078d5761078c6132a9565b5b146107cd576040517f08c379a00000000000000000000000000000000000000000000000000000000081526004016107c49061376a565b60405180910390fd5b6007600084815260200190815260200160002060030160009054906101000a900473ffffffffffffffffffffffffffffffffffffffff168073ffffffffffffffffffffffffffffffffffffffff163373ffffffffffffffffffffffffffffffffffffffff1614610872576040517f08c379a0000000000000000000000000000000000000000000000000000000008152600401610869906137fc565b60405180910390fd5b6000600760008681526020019081526020016000209050600381600b0160006101000a81548160ff021916908360078111156108b1576108b06132a9565b5b02179055508381600a018190555032600860008781526020019081526020016000206040516108df90613868565b908152602001604051809103902060006101000a81548173ffffffffffffffffffffffffffffffffffffffff021916908373ffffffffffffffffffffffffffffffffffffffff1602179055507fa96ae0fc3224ebd79eebfe54bd130cc9cb94416cddd1f2386115e00b725324688560405161095a919061388c565b60405180910390a15050505050565b60008054906101000a900473ffffffffffffffffffffffffffffffffffffffff1673ffffffffffffffffffffffffffffffffffffffff163373ffffffffffffffffffffffffffffffffffffffff16036109f55760008054906101000a900473ffffffffffffffffffffffffffffffffffffffff1673ffffffffffffffffffffffffffffffffffffffff16ff5b565b610a00336116ff565b610a3f576040517f08c379a0000000000000000000000000000000000000000000000000000000008152600401610a36906136fe565b60405180910390fd5b8060006007811115610a5457610a536132a9565b5b60076000838152602001908152602001600020600b0160009054906101000a900460ff166007811115610a8a57610a896132a9565b5b14610aca576040517f08c379a0000000000000000000000000000000000000000000000000000000008152600401610ac190613919565b60405180910390fd5b6007600083815260200190815260200160002060030160009054906101000a900473ffffffffffffffffffffffffffffffffffffffff168073ffffffffffffffffffffffffffffffffffffffff163373ffffffffffffffffffffffffffffffffffffffff1614610b6f576040517f08c379a0000000000000000000000000000000000000000000000000000000008152600401610b66906137fc565b60405180910390fd5b6000600760008581526020019081526020016000209050600181600b0160006101000a81548160ff02191690836007811115610bae57610bad6132a9565b5b02179055503260086000868152602001908152602001600020604051610bd390613985565b908152602001604051809103902060006101000a81548173ffffffffffffffffffffffffffffffffffffffff021916908373ffffffffffffffffffffffffffffffffffffffff1602179055507f5afe3b1bf87069693c075da5c22a98d63d1aef98a30dbbe538d0781a98b77ee584604051610c4e919061388c565b60405180910390a150505050565b610c70816001612b3790919063ffffffff16565b8073ffffffffffffffffffffffffffffffffffffffff167fa5e0f060af304ab17dd418c7927e3da3ae7868189bf387aee09ab179ccc572f260405160405180910390a250565b6000610ccc826003612c4d90919063ffffffff16565b9050919050565b60008054906101000a900473ffffffffffffffffffffffffffffffffffffffff1673ffffffffffffffffffffffffffffffffffffffff163373ffffffffffffffffffffffffffffffffffffffff1614610d61576040517f08c379a0000000000000000000000000000000000000000000000000000000008152600401610d5890613a0c565b60405180910390fd5b600073ffffffffffffffffffffffffffffffffffffffff1660008054906101000a900473ffffffffffffffffffffffffffffffffffffffff1673ffffffffffffffffffffffffffffffffffffffff167f5c486528ec3e3f0ea91181cff8116f02bfa350e03b8b6f12e00765adbb5af85c60405160405180910390a360008060006101000a81548173ffffffffffffffffffffffffffffffffffffffff021916908373ffffffffffffffffffffffffffffffffffffffff160217905550565b610e33816002612a2090919063ffffffff16565b8073ffffffffffffffffffffffffffffffffffffffff167fddbf200aa634dc3fb81cfd68583dd1040d1c751d335e1d86b631bde3e977fea860405160405180910390a250565b610e8d816001612a2090919063ffffffff16565b8073ffffffffffffffffffffffffffffffffffffffff167f2e0ded4123377a3c2bc9a26f1717655a129e2f20752924d42e730ec89c83dbd060405160405180910390a250565b6000610ee9826004612c4d90919063ffffffff16565b9050919050565b60008060009054906101000a900473ffffffffffffffffffffffffffffffffffffffff16905090565b610f2d816003612a2090919063ffffffff16565b8073ffffffffffffffffffffffffffffffffffffffff167f71ae26cad02663e3d92efd6ec56031a80d74a20c0ab4183faa8bf262261c9baa60405160405180910390a250565b6000610f89826002612c4d90919063ffffffff16565b9050919050565b610fa4336003612c4d90919063ffffffff16565b610fe3576040517f08c379a0000000000000000000000000000000000000000000000000000000008152600401610fda90613a9e565b60405180910390fd5b8060056007811115610ff857610ff76132a9565b5b60076000838152602001908152602001600020600b0160009054906101000a900460ff16600781111561102e5761102d6132a9565b5b1461106e576040517f08c379a000000000000000000000000000000000000000000000000000000000815260040161106590613b30565b60405180910390fd5b6000600760008481526020019081526020016000209050338160020160006101000a81548173ffffffffffffffffffffffffffffffffffffffff021916908373ffffffffffffffffffffffffffffffffffffffff160217905550600681600b0160006101000a81548160ff021916908360078111156110f0576110ef6132a9565b5b02179055503381600c0160006101000a81548173ffffffffffffffffffffffffffffffffffffffff021916908373ffffffffffffffffffffffffffffffffffffffff160217905550326008600085815260200190815260200160002060405161115890613b9c565b908152602001604051809103902060006101000a81548173ffffffffffffffffffffffffffffffffffffffff021916908373ffffffffffffffffffffffffffffffffffffffff1602179055507fa8142743f8f70a4c26f3691cf4ed59718381fb2f18070ec52be1f1022d855557836040516111d3919061388c565b60405180910390a1505050565b6111e8612d14565b600060076000848152602001908152602001600020604051806101e001604052908160008201548152602001600182015481526020016002820160009054906101000a900473ffffffffffffffffffffffffffffffffffffffff1673ffffffffffffffffffffffffffffffffffffffff1673ffffffffffffffffffffffffffffffffffffffff1681526020016003820160009054906101000a900473ffffffffffffffffffffffffffffffffffffffff1673ffffffffffffffffffffffffffffffffffffffff1673ffffffffffffffffffffffffffffffffffffffff1681526020016004820180546112d990613be0565b80601f016020809104026020016040519081016040528092919081815260200182805461130590613be0565b80156113525780601f1061132757610100808354040283529160200191611352565b820191906000526020600020905b81548152906001019060200180831161133557829003601f168201915b5050505050815260200160058201805461136b90613be0565b80601f016020809104026020016040519081016040528092919081815260200182805461139790613be0565b80156113e45780601f106113b9576101008083540402835291602001916113e4565b820191906000526020600020905b8154815290600101906020018083116113c757829003601f168201915b505050505081526020016006820180546113fd90613be0565b80601f016020809104026020016040519081016040528092919081815260200182805461142990613be0565b80156114765780601f1061144b57610100808354040283529160200191611476565b820191906000526020600020905b81548152906001019060200180831161145957829003601f168201915b5050505050815260200160078201805461148f90613be0565b80601f01602080910402602001604051908101604052809291908181526020018280546114bb90613be0565b80156115085780601f106114dd57610100808354040283529160200191611508565b820191906000526020600020905b8154815290600101906020018083116114eb57829003601f168201915b505050505081526020016008820154815260200160098201805461152b90613be0565b80601f016020809104026020016040519081016040528092919081815260200182805461155790613be0565b80156115a45780601f10611579576101008083540402835291602001916115a4565b820191906000526020600020905b81548152906001019060200180831161158757829003601f168201915b50505050508152602001600a8201548152602001600b820160009054906101000a900460ff1660078111156115dc576115db6132a9565b5b60078111156115ee576115ed6132a9565b5b8152602001600b820160019054906101000a900473ffffffffffffffffffffffffffffffffffffffff1673ffffffffffffffffffffffffffffffffffffffff1673ffffffffffffffffffffffffffffffffffffffff168152602001600c820160009054906101000a900473ffffffffffffffffffffffffffffffffffffffff1673ffffffffffffffffffffffffffffffffffffffff1673ffffffffffffffffffffffffffffffffffffffff168152602001600d820160009054906101000a900473ffffffffffffffffffffffffffffffffffffffff1673ffffffffffffffffffffffffffffffffffffffff1673ffffffffffffffffffffffffffffffffffffffff1681525050905080915050919050565b6000611715826001612c4d90919063ffffffff16565b9050919050565b611730816002612b3790919063ffffffff16565b8073ffffffffffffffffffffffffffffffffffffffff167f126174f6cf49c81cdb4a9214c6b8f037bef55b4ec31e4fc776cea2a1c8a88d5960405160405180910390a250565b61177f336116ff565b6117be576040517f08c379a00000000000000000000000000000000000000000000000000000000081526004016117b5906136fe565b60405180910390fd5b6117c6612d14565b8781602001818152505086816040019073ffffffffffffffffffffffffffffffffffffffff16908173ffffffffffffffffffffffffffffffffffffffff168152505086816060019073ffffffffffffffffffffffffffffffffffffffff16908173ffffffffffffffffffffffffffffffffffffffff1681525050858160800181905250848160a00181905250838160c00181905250828160e0018190525081816101200181905250600654816000018181525050600654886118889190613c40565b8161010001818152505032600860008a81526020019081526020016000206040516118b290613ce2565b908152602001604051809103902060006101000a81548173ffffffffffffffffffffffffffffffffffffffff021916908373ffffffffffffffffffffffffffffffffffffffff160217905550600160065461190d9190613c40565b6006819055506000816101600190600781111561192d5761192c6132a9565b5b90816007811115611941576119406132a9565b5b8152505080600760008a8152602001908152602001600020600082015181600001556020820151816001015560408201518160020160006101000a81548173ffffffffffffffffffffffffffffffffffffffff021916908373ffffffffffffffffffffffffffffffffffffffff16021790555060608201518160030160006101000a81548173ffffffffffffffffffffffffffffffffffffffff021916908373ffffffffffffffffffffffffffffffffffffffff1602179055506080820151816004019080519060200190611a17929190612e0a565b5060a0820151816005019080519060200190611a34929190612e0a565b5060c0820151816006019080519060200190611a51929190612e0a565b5060e0820151816007019080519060200190611a6e929190612e0a565b506101008201518160080155610120820151816009019080519060200190611a97929190612e0a565b5061014082015181600a015561016082015181600b0160006101000a81548160ff02191690836007811115611acf57611ace6132a9565b5b021790555061018082015181600b0160016101000a81548173ffffffffffffffffffffffffffffffffffffffff021916908373ffffffffffffffffffffffffffffffffffffffff1602179055506101a082015181600c0160006101000a81548173ffffffffffffffffffffffffffffffffffffffff021916908373ffffffffffffffffffffffffffffffffffffffff1602179055506101c082015181600d0160006101000a81548173ffffffffffffffffffffffffffffffffffffffff021916908373ffffffffffffffffffffffffffffffffffffffff1602179055509050507f8e55ccfc9778ff8eba1646d765cf1982537ce0f9257054a17b48aad74525018388604051611bde919061388c565b60405180910390a15050505050505050565b611c04336004612c4d90919063ffffffff16565b611c43576040517f08c379a0000000000000000000000000000000000000000000000000000000008152600401611c3a90613d69565b60405180910390fd5b8060066007811115611c5857611c576132a9565b5b60076000838152602001908152602001600020600b0160009054906101000a900460ff166007811115611c8e57611c8d6132a9565b5b14611cce576040517f08c379a0000000000000000000000000000000000000000000000000000000008152600401611cc590613dfb565b60405180910390fd5b60076000838152602001908152602001600020600a015480341015611d28576040517f08c379a0000000000000000000000000000000000000000000000000000000008152600401611d1f90613e8d565b60405180910390fd5b826000600760008681526020019081526020016000209050338160020160006101000a81548173ffffffffffffffffffffffffffffffffffffffff021916908373ffffffffffffffffffffffffffffffffffffffff160217905550600781600b0160006101000a81548160ff02191690836007811115611dab57611daa6132a9565b5b02179055503381600d0160006101000a81548173ffffffffffffffffffffffffffffffffffffffff021916908373ffffffffffffffffffffffffffffffffffffffff1602179055503260086000878152602001908152602001600020604051611e1390613ef9565b908152602001604051809103902060006101000a81548173ffffffffffffffffffffffffffffffffffffffff021916908373ffffffffffffffffffffffffffffffffffffffff1602179055507f653d56639fee6b566a5c804764e9689de38645f0b733df89a36a1b7b42173dd885604051611e8e919061388c565b60405180910390a150600060076000838152602001908152602001600020600a0154905060008134611ec09190613f0e565b905060076000848152602001908152602001600020600d0160009054906101000a900473ffffffffffffffffffffffffffffffffffffffff1673ffffffffffffffffffffffffffffffffffffffff166108fc829081150290604051600060405180830381858888f19350505050158015611f3e573d6000803e3d6000fd5b50505050505050565b611f5b336002612c4d90919063ffffffff16565b611f9a576040517f08c379a0000000000000000000000000000000000000000000000000000000008152600401611f9190613fb4565b60405180910390fd5b8060036007811115611faf57611fae6132a9565b5b60076000838152602001908152602001600020600b0160009054906101000a900460ff166007811115611fe557611fe46132a9565b5b14612025576040517f08c379a000000000000000000000000000000000000000000000000000000000815260040161201c90614046565b60405180910390fd5b60076000838152602001908152602001600020600a01548034101561207f576040517f08c379a000000000000000000000000000000000000000000000000000000000815260040161207690613e8d565b60405180910390fd5b826000600760008681526020019081526020016000209050338160020160006101000a81548173ffffffffffffffffffffffffffffffffffffffff021916908373ffffffffffffffffffffffffffffffffffffffff160217905550600481600b0160006101000a81548160ff02191690836007811115612102576121016132a9565b5b02179055503381600b0160016101000a81548173ffffffffffffffffffffffffffffffffffffffff021916908373ffffffffffffffffffffffffffffffffffffffff160217905550600060076000878152602001908152602001600020600a015490506007600087815260200190815260200160002060030160009054906101000a900473ffffffffffffffffffffffffffffffffffffffff1673ffffffffffffffffffffffffffffffffffffffff166108fc829081150290604051600060405180830381858888f193505050501580156121e1573d6000803e3d6000fd5b503260086000888152602001908152602001600020604051612202906140b2565b908152602001604051809103902060006101000a81548173ffffffffffffffffffffffffffffffffffffffff021916908373ffffffffffffffffffffffffffffffffffffffff1602179055507f92f64ca637d023f354075a4be751b169c1a8a9ccb6d33cdd0cb35205439957278660405161227d919061388c565b60405180910390a15050600060076000838152602001908152602001600020600a01549050600081346122b09190613f0e565b905060076000848152602001908152602001600020600b0160019054906101000a900473ffffffffffffffffffffffffffffffffffffffff1673ffffffffffffffffffffffffffffffffffffffff166108fc829081150290604051600060405180830381858888f1935050505015801561232e573d6000803e3d6000fd5b50505050505050565b60008054906101000a900473ffffffffffffffffffffffffffffffffffffffff1673ffffffffffffffffffffffffffffffffffffffff163373ffffffffffffffffffffffffffffffffffffffff16146123c5576040517f08c379a00000000000000000000000000000000000000000000000000000000081526004016123bc90613a0c565b60405180910390fd5b600073ffffffffffffffffffffffffffffffffffffffff168173ffffffffffffffffffffffffffffffffffffffff1603612434576040517f08c379a000000000000000000000000000000000000000000000000000000000815260040161242b90614139565b60405180910390fd5b8073ffffffffffffffffffffffffffffffffffffffff1660008054906101000a900473ffffffffffffffffffffffffffffffffffffffff1673ffffffffffffffffffffffffffffffffffffffff167f5c486528ec3e3f0ea91181cff8116f02bfa350e03b8b6f12e00765adbb5af85c60405160405180910390a3806000806101000a81548173ffffffffffffffffffffffffffffffffffffffff021916908373ffffffffffffffffffffffffffffffffffffffff16021790555050565b6124fa336116ff565b612539576040517f08c379a0000000000000000000000000000000000000000000000000000000008152600401612530906136fe565b60405180910390fd5b806001600781111561254e5761254d6132a9565b5b60076000838152602001908152602001600020600b0160009054906101000a900460ff166007811115612584576125836132a9565b5b146125c4576040517f08c379a00000000000000000000000000000000000000000000000000000000081526004016125bb906141cb565b60405180910390fd5b6007600083815260200190815260200160002060030160009054906101000a900473ffffffffffffffffffffffffffffffffffffffff168073ffffffffffffffffffffffffffffffffffffffff163373ffffffffffffffffffffffffffffffffffffffff1614612669576040517f08c379a0000000000000000000000000000000000000000000000000000000008152600401612660906137fc565b60405180910390fd5b6000600760008581526020019081526020016000209050600281600b0160006101000a81548160ff021916908360078111156126a8576126a76132a9565b5b021790555032600860008681526020019081526020016000206040516126cd90614237565b908152602001604051809103902060006101000a81548173ffffffffffffffffffffffffffffffffffffffff021916908373ffffffffffffffffffffffffffffffffffffffff1602179055507f9b3b66e2380b690bae22c73ef1428fb0c91e72fe14a4b6defa13035214187aff84604051612748919061388c565b60405180910390a150505050565b61276a816004612b3790919063ffffffff16565b8073ffffffffffffffffffffffffffffffffffffffff167fe3f5ed5f263f1f01764a96edfc7d025f511ec5f7d180e8816908b78bcf74f09860405160405180910390a250565b6127c4336002612c4d90919063ffffffff16565b612803576040517f08c379a00000000000000000000000000000000000000000000000000000000081526004016127fa90613fb4565b60405180910390fd5b8060046007811115612818576128176132a9565b5b60076000838152602001908152602001600020600b0160009054906101000a900460ff16600781111561284e5761284d6132a9565b5b1461288e576040517f08c379a000000000000000000000000000000000000000000000000000000000815260040161288590614298565b60405180910390fd5b60076000838152602001908152602001600020600b0160019054906101000a900473ffffffffffffffffffffffffffffffffffffffff168073ffffffffffffffffffffffffffffffffffffffff163373ffffffffffffffffffffffffffffffffffffffff1614612933576040517f08c379a000000000000000000000000000000000000000000000000000000000815260040161292a906137fc565b60405180910390fd5b6000600760008581526020019081526020016000209050600581600b0160006101000a81548160ff02191690836007811115612972576129716132a9565b5b0217905550326008600086815260200190815260200160002060405161299790614304565b908152602001604051809103902060006101000a81548173ffffffffffffffffffffffffffffffffffffffff021916908373ffffffffffffffffffffffffffffffffffffffff1602179055507ff00b9a5725b80c54016f42114f6ed7792d22eecb116011c4afac29c57bef6c9584604051612a12919061388c565b60405180910390a150505050565b600073ffffffffffffffffffffffffffffffffffffffff168173ffffffffffffffffffffffffffffffffffffffff1603612a8f576040517f08c379a0000000000000000000000000000000000000000000000000000000008152600401612a8690614365565b60405180910390fd5b612a998282612c4d565b15612ad9576040517f08c379a0000000000000000000000000000000000000000000000000000000008152600401612ad0906143f7565b60405180910390fd5b60018260000160008373ffffffffffffffffffffffffffffffffffffffff1673ffffffffffffffffffffffffffffffffffffffff16815260200190815260200160002060006101000a81548160ff0219169083151502179055505050565b600073ffffffffffffffffffffffffffffffffffffffff168173ffffffffffffffffffffffffffffffffffffffff1603612ba6576040517f08c379a0000000000000000000000000000000000000000000000000000000008152600401612b9d90614365565b60405180910390fd5b612bb08282612c4d565b612bef576040517f08c379a0000000000000000000000000000000000000000000000000000000008152600401612be690614489565b60405180910390fd5b60008260000160008373ffffffffffffffffffffffffffffffffffffffff1673ffffffffffffffffffffffffffffffffffffffff16815260200190815260200160002060006101000a81548160ff0219169083151502179055505050565b60008073ffffffffffffffffffffffffffffffffffffffff168273ffffffffffffffffffffffffffffffffffffffff1603612cbd576040517f08c379a0000000000000000000000000000000000000000000000000000000008152600401612cb490614365565b60405180910390fd5b8260000160008373ffffffffffffffffffffffffffffffffffffffff1673ffffffffffffffffffffffffffffffffffffffff16815260200190815260200160002060009054906101000a900460ff16905092915050565b604051806101e001604052806000815260200160008152602001600073ffffffffffffffffffffffffffffffffffffffff168152602001600073ffffffffffffffffffffffffffffffffffffffff1681526020016060815260200160608152602001606081526020016060815260200160008152602001606081526020016000815260200160006007811115612dad57612dac6132a9565b5b8152602001600073ffffffffffffffffffffffffffffffffffffffff168152602001600073ffffffffffffffffffffffffffffffffffffffff168152602001600073ffffffffffffffffffffffffffffffffffffffff1681525090565b828054612e1690613be0565b90600052602060002090601f016020900481019282612e385760008555612e7f565b82601f10612e5157805160ff1916838001178555612e7f565b82800160010185558215612e7f579182015b82811115612e7e578251825591602001919060010190612e63565b5b509050612e8c9190612e90565b5090565b5b80821115612ea9576000816000905550600101612e91565b5090565b6000604051905090565b600080fd5b600080fd5b600073ffffffffffffffffffffffffffffffffffffffff82169050919050565b6000612eec82612ec1565b9050919050565b612efc81612ee1565b8114612f0757600080fd5b50565b600081359050612f1981612ef3565b92915050565b600060208284031215612f3557612f34612eb7565b5b6000612f4384828501612f0a565b91505092915050565b6000819050919050565b612f5f81612f4c565b8114612f6a57600080fd5b50565b600081359050612f7c81612f56565b92915050565b600080fd5b600080fd5b6000601f19601f8301169050919050565b7f4e487b7100000000000000000000000000000000000000000000000000000000600052604160045260246000fd5b612fd582612f8c565b810181811067ffffffffffffffff82111715612ff457612ff3612f9d565b5b80604052505050565b6000613007612ead565b90506130138282612fcc565b919050565b600067ffffffffffffffff82111561303357613032612f9d565b5b61303c82612f8c565b9050602081019050919050565b82818337600083830152505050565b600061306b61306684613018565b612ffd565b90508281526020810184848401111561308757613086612f87565b5b613092848285613049565b509392505050565b600082601f8301126130af576130ae612f82565b5b81356130bf848260208601613058565b91505092915050565b600080604083850312156130df576130de612eb7565b5b60006130ed85828601612f6d565b925050602083013567ffffffffffffffff81111561310e5761310d612ebc565b5b61311a8582860161309a565b9150509250929050565b61312d81612ee1565b82525050565b60006020820190506131486000830184613124565b92915050565b6000806040838503121561316557613164612eb7565b5b600061317385828601612f6d565b925050602061318485828601612f6d565b9150509250929050565b6000602082840312156131a4576131a3612eb7565b5b60006131b284828501612f6d565b91505092915050565b60008115159050919050565b6131d0816131bb565b82525050565b60006020820190506131eb60008301846131c7565b92915050565b6131fa81612f4c565b82525050565b600061320b82612ec1565b9050919050565b61321b81613200565b82525050565b600081519050919050565b600082825260208201905092915050565b60005b8381101561325b578082015181840152602081019050613240565b8381111561326a576000848401525b50505050565b600061327b82613221565b613285818561322c565b935061329581856020860161323d565b61329e81612f8c565b840191505092915050565b7f4e487b7100000000000000000000000000000000000000000000000000000000600052602160045260246000fd5b600881106132e9576132e86132a9565b5b50565b60008190506132fa826132d8565b919050565b600061330a826132ec565b9050919050565b61331a816132ff565b82525050565b60006101e08301600083015161333960008601826131f1565b50602083015161334c60208601826131f1565b50604083015161335f6040860182613212565b5060608301516133726060860182613212565b506080830151848203608086015261338a8282613270565b91505060a083015184820360a08601526133a48282613270565b91505060c083015184820360c08601526133be8282613270565b91505060e083015184820360e08601526133d88282613270565b9150506101008301516133ef6101008601826131f1565b506101208301518482036101208601526134098282613270565b9150506101408301516134206101408601826131f1565b50610160830151613435610160860182613311565b5061018083015161344a610180860182613212565b506101a083015161345f6101a0860182613212565b506101c08301516134746101c0860182613212565b508091505092915050565b600060208201905081810360008301526134998184613320565b905092915050565b6134aa81613200565b81146134b557600080fd5b50565b6000813590506134c7816134a1565b92915050565b600080600080600080600060e0888a0312156134ec576134eb612eb7565b5b60006134fa8a828b01612f6d565b975050602061350b8a828b016134b8565b965050604088013567ffffffffffffffff81111561352c5761352b612ebc565b5b6135388a828b0161309a565b955050606088013567ffffffffffffffff81111561355957613558612ebc565b5b6135658a828b0161309a565b945050608088013567ffffffffffffffff81111561358657613585612ebc565b5b6135928a828b0161309a565b93505060a088013567ffffffffffffffff8111156135b3576135b2612ebc565b5b6135bf8a828b0161309a565b92505060c088013567ffffffffffffffff8111156135e0576135df612ebc565b5b6135ec8a828b0161309a565b91505092959891949750929550565b60006020828403121561361157613610612eb7565b5b600061361f848285016134b8565b91505092915050565b600081905092915050565b600061363e82613221565b6136488185613628565b935061365881856020860161323d565b80840191505092915050565b60006136708284613633565b915081905092915050565b600082825260208201905092915050565b7f54686973206163636f756e7420686173206e6f2061204661726d657220526f6c60008201527f6500000000000000000000000000000000000000000000000000000000000000602082015250565b60006136e860218361367b565b91506136f38261368c565b604082019050919050565b60006020820190508181036000830152613717816136db565b9050919050565b7f546865204974656d206973206e6f7420696e205061636b656420737461746521600082015250565b600061375460208361367b565b915061375f8261371e565b602082019050919050565b6000602082019050818103600083015261378381613747565b9050919050565b7f54686973206163636f756e74206973206e6f7420746865206f776e6572206f6660008201527f2074686973206974656d00000000000000000000000000000000000000000000602082015250565b60006137e6602a8361367b565b91506137f18261378a565b604082019050919050565b60006020820190508181036000830152613815816137d9565b9050919050565b7f466f7253616c6500000000000000000000000000000000000000000000000000600082015250565b6000613852600783613628565b915061385d8261381c565b600782019050919050565b600061387382613845565b9150819050919050565b61388681612f4c565b82525050565b60006020820190506138a1600083018461387d565b92915050565b7f546865204974656d206973206e6f7420696e204861727665737465642073746160008201527f7465210000000000000000000000000000000000000000000000000000000000602082015250565b600061390360238361367b565b915061390e826138a7565b604082019050919050565b60006020820190508181036000830152613932816138f6565b9050919050565b7f50726f6365737365640000000000000000000000000000000000000000000000600082015250565b600061396f600983613628565b915061397a82613939565b600982019050919050565b600061399082613962565b9150819050919050565b7f4f6e6c7920746865206f776e65722063616e20706572666f726d20746869732060008201527f6f7065726174696f6e0000000000000000000000000000000000000000000000602082015250565b60006139f660298361367b565b9150613a018261399a565b604082019050919050565b60006020820190508181036000830152613a25816139e9565b9050919050565b7f54686973206163636f756e7420686173206e6f2052657461696c657220726f6c60008201527f6500000000000000000000000000000000000000000000000000000000000000602082015250565b6000613a8860218361367b565b9150613a9382613a2c565b604082019050919050565b60006020820190508181036000830152613ab781613a7b565b9050919050565b7f546865204974656d206973206e6f7420696e205368697070656420737461746560008201527f2100000000000000000000000000000000000000000000000000000000000000602082015250565b6000613b1a60218361367b565b9150613b2582613abe565b604082019050919050565b60006020820190508181036000830152613b4981613b0d565b9050919050565b7f5265636569766564000000000000000000000000000000000000000000000000600082015250565b6000613b86600883613628565b9150613b9182613b50565b600882019050919050565b6000613ba782613b79565b9150819050919050565b7f4e487b7100000000000000000000000000000000000000000000000000000000600052602260045260246000fd5b60006002820490506001821680613bf857607f821691505b602082108103613c0b57613c0a613bb1565b5b50919050565b7f4e487b7100000000000000000000000000000000000000000000000000000000600052601160045260246000fd5b6000613c4b82612f4c565b9150613c5683612f4c565b9250827fffffffffffffffffffffffffffffffffffffffffffffffffffffffffffffffff03821115613c8b57613c8a613c11565b5b828201905092915050565b7f4861727665737465640000000000000000000000000000000000000000000000600082015250565b6000613ccc600983613628565b9150613cd782613c96565b600982019050919050565b6000613ced82613cbf565b9150819050919050565b7f54686973206163636f756e7420686173206e6f20436f6e73756d657220526f6c60008201527f6500000000000000000000000000000000000000000000000000000000000000602082015250565b6000613d5360218361367b565b9150613d5e82613cf7565b604082019050919050565b60006020820190508181036000830152613d8281613d46565b9050919050565b7f546865204974656d206973206e6f7420696e205265636569766564207374617460008201527f6521000000000000000000000000000000000000000000000000000000000000602082015250565b6000613de560228361367b565b9150613df082613d89565b604082019050919050565b60006020820190508181036000830152613e1481613dd8565b9050919050565b7f54686520616d6f756e742073656e74206973206e6f742073756666696369656e60008201527f7420666f72207468652070726963650000000000000000000000000000000000602082015250565b6000613e77602f8361367b565b9150613e8282613e1b565b604082019050919050565b60006020820190508181036000830152613ea681613e6a565b9050919050565b7f5075726368617365640000000000000000000000000000000000000000000000600082015250565b6000613ee3600983613628565b9150613eee82613ead565b600982019050919050565b6000613f0482613ed6565b9150819050919050565b6000613f1982612f4c565b9150613f2483612f4c565b925082821015613f3757613f36613c11565b5b828203905092915050565b7f54686973206163636f756e7420686173206e6f204469737472696275746f722060008201527f526f6c6500000000000000000000000000000000000000000000000000000000602082015250565b6000613f9e60248361367b565b9150613fa982613f42565b604082019050919050565b60006020820190508181036000830152613fcd81613f91565b9050919050565b7f546865204974656d206973206e6f7420696e20466f7253616c6520737461746560008201527f2100000000000000000000000000000000000000000000000000000000000000602082015250565b600061403060218361367b565b915061403b82613fd4565b604082019050919050565b6000602082019050818103600083015261405f81614023565b9050919050565b7f536f6c6400000000000000000000000000000000000000000000000000000000600082015250565b600061409c600483613628565b91506140a782614066565b600482019050919050565b60006140bd8261408f565b9150819050919050565b7f546865206e6577204f776e65722063616e6e6f7420626520616464726573732060008201527f3000000000000000000000000000000000000000000000000000000000000000602082015250565b600061412360218361367b565b915061412e826140c7565b604082019050919050565b6000602082019050818103600083015261415281614116565b9050919050565b7f546865204974656d206973206e6f7420696e2050726f6365737365642073746160008201527f7465210000000000000000000000000000000000000000000000000000000000602082015250565b60006141b560238361367b565b91506141c082614159565b604082019050919050565b600060208201905081810360008301526141e4816141a8565b9050919050565b7f5061636b65640000000000000000000000000000000000000000000000000000600082015250565b6000614221600683613628565b915061422c826141eb565b600682019050919050565b600061424282614214565b9150819050919050565b7f546865204974656d206973206e6f7420696e20536f6c64207374617465210000600082015250565b6000614282601e8361367b565b915061428d8261424c565b602082019050919050565b600060208201905081810360008301526142b181614275565b9050919050565b7f5368697070656400000000000000000000000000000000000000000000000000600082015250565b60006142ee600783613628565b91506142f9826142b8565b600782019050919050565b600061430f826142e1565b9150819050919050565b7f416464726573732063616e6e6f74206265207a65726f20616464726573730000600082015250565b600061434f601e8361367b565b915061435a82614319565b602082019050919050565b6000602082019050818103600083015261437e81614342565b9050919050565b7f54686973206164647265737320616c726561647920686173207468697320726f60008201527f6c65000000000000000000000000000000000000000000000000000000000000602082015250565b60006143e160228361367b565b91506143ec82614385565b604082019050919050565b60006020820190508181036000830152614410816143d4565b9050919050565b7f54686973206164647265737320646f6573206e6f74206861766520746869732060008201527f726f6c6520796574000000000000000000000000000000000000000000000000602082015250565b600061447360288361367b565b915061447e82614417565b604082019050919050565b600060208201905081810360008301526144a281614466565b905091905056fea26469706673582212205f1b99373b23ea441584a8a6cf7761af3a9465fff35845e58bc511c510dba15b64736f6c634300080e0033",
  "immutableReferences": {},
  "source": "// SPDX-License-Identifier: MIT\npragma solidity >=0.4.22 <0.9.0;\n\nimport \"./Ownable.sol\";\nimport \"./Roles/Farmer.sol\";\nimport \"./Roles/Distributor.sol\";\nimport \"./Roles/Retailer.sol\";\nimport \"./Roles/Consumer.sol\";\nimport \"./utilities/Enums.sol\";\nimport \"./utilities/Structs.sol\";\n\n/**\n * @title Supplychain\n * @dev Contract for managing the entire supplychain\n */\ncontract SupplyChain is Ownable, Farmer, Distributor, Retailer, Consumer {\n    // Define a variable called 'upc' for Universal Product Code (UPC)\n    uint256 upc;\n    // Define a variable called 'sku' for Stock Keeping Unit (SKU)\n    uint256 sku;\n    // Define a public mapping 'items' that maps the UPC to an Item.\n    mapping(uint256 => Item) items;\n    // Define a public mapping 'itemsHistory' that maps the UPC to an array of TxHash, that track its journey through the supply chain -- to be sent from DApp.\n    mapping(uint256 => mapping(string => address)) itemsHistory;\n    // Default Product State\n    StateProduct constant defaultState = StateProduct.Harvested;\n\n    // Define 8 events with the same 8 state values and accept 'upc' as input argument\n    event Harvested(uint256 upc);\n    event Processed(uint256 upc);\n    event Packed(uint256 upc);\n    event ForSale(uint256 upc);\n    event Sold(uint256 upc);\n    event Shipped(uint256 upc);\n    event Received(uint256 upc);\n    event Purchased(uint256 upc);\n\n    // Using Ownable to define the owner\n    constructor() payable {\n        sku = 1;\n        upc = 1;\n    }\n\n    /** GENERAL MODIFIERS */\n    // Define a modifier that verifies the Caller\n    modifier verifyCaller(address _address) {\n        require(\n            msg.sender == _address,\n            \"This account is not the owner of this item\"\n        );\n        _;\n    }\n    // Define a modifier that checks if the paid amount is sufficient to cover the price\n    modifier paidEnough(uint256 _price) {\n        require(\n            msg.value >= _price,\n            \"The amount sent is not sufficient for the price\"\n        );\n        _;\n    }\n    // Define a modifier that checks the price and refunds the remaining balance to the Distributor\n    modifier checkValueForDistributor(uint256 _upc) {\n        _;\n        uint256 _price = items[_upc].productPrice;\n        uint256 amountToReturn = msg.value - _price;\n        items[_upc].distributorID.transfer(amountToReturn);\n    }\n    // Define a modifier that checks the price and refunds the remaining balance to the Consumer\n    modifier checkValueForConsumer(uint256 _upc) {\n        _;\n        uint256 _price = items[_upc].productPrice;\n        uint256 amountToReturn = msg.value - _price;\n        items[_upc].consumerID.transfer(amountToReturn);\n    }\n\n    /** PRODUCT STATE MODIFIERS */\n    // Define a modifier that checks if an item.state of a upc is Harvested\n    modifier harvested(uint256 _upc) {\n        require(\n            items[_upc].itemState == StateProduct.Harvested,\n            \"The Item is not in Harvested state!\"\n        );\n        _;\n    }\n    // Define a modifier that checks if an item.state of a upc is Processed\n    modifier processed(uint256 _upc) {\n        require(\n            items[_upc].itemState == StateProduct.Processed,\n            \"The Item is not in Processed state!\"\n        );\n        _;\n    }\n    // Define a modifier that checks if an item.state of a upc is Packed\n    modifier packed(uint256 _upc) {\n        require(\n            items[_upc].itemState == StateProduct.Packed,\n            \"The Item is not in Packed state!\"\n        );\n        _;\n    }\n    // Define a modifier that checks if an item.state of a upc is ForSale\n    modifier forSale(uint256 _upc) {\n        require(\n            items[_upc].itemState == StateProduct.ForSale,\n            \"The Item is not in ForSale state!\"\n        );\n        _;\n    }\n    // Define a modifier that checks if an item.state of a upc is Sold\n    modifier sold(uint256 _upc) {\n        require(\n            items[_upc].itemState == StateProduct.Sold,\n            \"The Item is not in Sold state!\"\n        );\n        _;\n    }\n    // Define a modifier that checks if an item.state of a upc is Shipped\n    modifier shipped(uint256 _upc) {\n        require(\n            items[_upc].itemState == StateProduct.Shipped,\n            \"The Item is not in Shipped state!\"\n        );\n        _;\n    }\n    // Define a modifier that checks if an item.state of a upc is Received\n    modifier received(uint256 _upc) {\n        require(\n            items[_upc].itemState == StateProduct.Received,\n            \"The Item is not in Received state!\"\n        );\n        _;\n    }\n    // Define a modifier that checks if an item.state of a upc is Purchased\n    modifier purchased(uint256 _upc) {\n        require(\n            items[_upc].itemState == StateProduct.Purchased,\n            \"The Item is not in Purchased state!\"\n        );\n        _;\n    }\n\n    /** FUNCTIONS (GETTERS) */\n    // Get The Item History\n    function getItemHistory(uint256 _upc, string memory state)\n        public\n        view\n        returns (address)\n    {\n        return itemsHistory[_upc][state];\n    }\n\n    /** FUNCTIONS (STATE) */\n    // Define a function 'harvestItem' that allows a farmer to mark an item 'Harvested'\n    function harvestItem(\n        uint256 _upc,\n        address payable _originFarmerID,\n        string memory _originFarmName,\n        string memory _originFarmInformation,\n        string memory _originFarmLatitude,\n        string memory _originFarmLongitude,\n        string memory _productNotes\n    ) public onlyFarmer {\n        // Add the new item as part of Harvest\n        Item memory newItem;\n        newItem.upc = _upc;\n        newItem.ownerID = _originFarmerID;\n        newItem.originFarmerID = _originFarmerID;\n        newItem.originFarmName = _originFarmName;\n        newItem.originFarmInformation = _originFarmInformation;\n        newItem.originFarmLatitude = _originFarmLatitude;\n        newItem.originFarmLongitude = _originFarmLongitude;\n        newItem.productNotes = _productNotes;\n        newItem.sku = sku;\n        newItem.productID = _upc + sku;\n        // Add Harvest to Item History\n        itemsHistory[_upc][\"Harvested\"] = tx.origin;\n        // Increment sku\n        sku = sku + 1;\n        // Setting state\n        newItem.itemState = StateProduct.Harvested;\n        // Adding new Item to map\n        items[_upc] = newItem;\n        // Emit the appropriate event\n        emit Harvested(_upc);\n    }\n\n    // Define a function 'processtItem' that allows a farmer to mark an item 'Processed'\n    function processItem(uint256 _upc)\n        public\n        //Only Farmer\n        onlyFarmer\n        // Call modifier to check if upc has passed previous supply chain stage\n        harvested(_upc)\n        // Call modifier to verify caller of this function\n        verifyCaller(items[_upc].originFarmerID)\n    {\n        // Update the appropriate fields\n        Item storage existingItem = items[_upc];\n        existingItem.itemState = StateProduct.Processed;\n        // Add Harvest to Item History\n        itemsHistory[_upc][\"Processed\"] = tx.origin;\n        // Emit the appropriate event\n        emit Processed(_upc);\n    }\n\n    // Define a function 'packItem' that allows a farmer to mark an item 'Packed'\n    function packItem(uint256 _upc)\n        public\n        //Only Farmer\n        onlyFarmer\n        // Call modifier to check if upc has passed previous supply chain stage\n        processed(_upc)\n        // Call modifier to verify caller of this function\n        verifyCaller(items[_upc].originFarmerID)\n    {\n        // Update the appropriate fields\n        Item storage existingItem = items[_upc];\n        existingItem.itemState = StateProduct.Packed;\n        // Add Harvest to Item History\n        itemsHistory[_upc][\"Packed\"] = tx.origin;\n        // Emit the appropriate event\n        emit Packed(_upc);\n    }\n\n    // Define a function 'sellItem' that allows a farmer to mark an item is 'ForSale'\n    function sellItem(uint256 _upc, uint256 _price)\n        public\n        //Only Farmer\n        onlyFarmer\n        // Call modifier to check if upc has passed previous supply chain stage\n        packed(_upc)\n        // Call modifier to verify caller of this function\n        verifyCaller(items[_upc].originFarmerID)\n    {\n        // Update the appropriate fields\n        Item storage existingItem = items[_upc];\n        existingItem.itemState = StateProduct.ForSale;\n        existingItem.productPrice = _price;\n        // Add Harvest to Item History\n        itemsHistory[_upc][\"ForSale\"] = tx.origin;\n        // Emit the appropriate event\n        emit ForSale(_upc);\n    }\n\n    // Define a function 'buyItem' that allows the disributor to mark an item 'Sold'\n    // Use the above defined modifiers to check if the item is available for sale, if the buyer has paid enough,\n    // and any excess ether sent is refunded back to the buyer\n    function buyItem(uint256 _upc)\n        public\n        payable\n        // Only Distributor\n        onlyDistributor\n        // Call modifier to check if upc has passed previous supply chain stage\n        forSale(_upc)\n        // Call modifer to check if buyer has paid enough\n        paidEnough(items[_upc].productPrice)\n        // Call modifer to send any excess ether back to buyer\n        checkValueForDistributor(_upc)\n    {\n        // Update the appropriate fields - ownerID, distributorID, itemState\n        Item storage existingItem = items[_upc];\n        existingItem.ownerID = payable(msg.sender);\n        existingItem.itemState = StateProduct.Sold;\n        existingItem.distributorID = payable(msg.sender);\n        // Transfer money to farmer\n        uint256 productPrice = items[_upc].productPrice;\n        items[_upc].originFarmerID.transfer(productPrice);\n        // Add Harvest to Item History\n        itemsHistory[_upc][\"Sold\"] = tx.origin;\n        // emit the appropriate event\n        emit Sold(_upc);\n    }\n\n    // Define a function 'shipItem' that allows the distributor to mark an item 'Shipped'\n    // Use the above modifers to check if the item is sold\n    function shipItem(uint256 _upc)\n        public\n        // Only Distributor\n        onlyDistributor\n        // Call modifier to check if upc has passed previous supply chain stage\n        sold(_upc)\n        // Call modifier to verify caller of this function\n        verifyCaller(items[_upc].distributorID)\n    {\n        // Update the appropriate fields\n        Item storage existingItem = items[_upc];\n        existingItem.itemState = StateProduct.Shipped;\n        // Add Harvest to Item History\n        itemsHistory[_upc][\"Shipped\"] = tx.origin;\n        // Emit the appropriate event\n        emit Shipped(_upc);\n    }\n\n    // Define a function 'receiveItem' that allows the retailer to mark an item 'Received'\n    // Use the above modifiers to check if the item is shipped\n    function receiveItem(uint256 _upc)\n        public\n        // Only Retailer\n        onlyRetailer\n        // Call modifier to check if upc has passed previous supply chain stage\n        shipped(_upc)\n    // Access Control List enforced by calling Smart Contract / DApp\n    {\n        // Update the appropriate fields - ownerID, retailerID, itemState\n        Item storage existingItem = items[_upc];\n        existingItem.ownerID = payable(msg.sender);\n        existingItem.itemState = StateProduct.Received;\n        existingItem.retailerID = payable(msg.sender);\n        // Add Harvest to Item History\n        itemsHistory[_upc][\"Received\"] = tx.origin;\n        // Emit the appropriate event\n        emit Received(_upc);\n    }\n\n    // Define a function 'purchaseItem' that allows the consumer to mark an item 'Purchased'\n    // Use the above modifiers to check if the item is received\n    function purchaseItem(uint256 _upc)\n        public\n        payable\n        //Only Consumer\n        onlyConsumer\n        // Call modifier to check if upc has passed previous supply chain stage\n        received(_upc)\n        // Make sure paid enough\n        paidEnough(items[_upc].productPrice)\n        // Access Control List enforced by calling Smart Contract / DApp\n        checkValueForConsumer(_upc)\n    {\n        // Update the appropriate fields - ownerID, consumerID, itemState\n        Item storage existingItem = items[_upc];\n        existingItem.ownerID = payable(msg.sender);\n        existingItem.itemState = StateProduct.Purchased;\n        existingItem.consumerID = payable(msg.sender);\n        // Add Harvest to Item History\n        itemsHistory[_upc][\"Purchased\"] = tx.origin;\n        // Emit the appropriate event\n        emit Purchased(_upc);\n    }\n\n    // Define a function 'fetchItemBufferOne' that fetches the data\n    function fetchItem(uint256 _upc) public view returns (Item memory) {\n        // Assign values to the 8 parameters\n        Item memory existingItem = items[_upc];\n        return existingItem;\n    }\n}\n",
  "sourcePath": "/home/hakim/Templates/supply-chain-dapp/contracts/SupplyChain.sol",
  "compiler": {
    "name": "solc",
    "version": "0.8.14+commit.80d49f37.Emscripten.clang"
  },
  "schemaVersion": "3.4.7",
  "updatedAt": "2022-05-31T19:18:08.823Z",
  "networkType": "ethereum",
  "devdoc": {
    "details": "Contract for managing the entire supplychain",
    "kind": "dev",
    "methods": {
      "kill()": {
        "details": "Define a function 'kill' if required"
      },
      "owner()": {
        "details": "Look up the address of the owner"
      },
      "renounceOwnership()": {
        "details": "Define a function to renounce ownerhip"
      },
      "transferOwnership(address)": {
        "details": "Define an public function to transfer ownership"
      }
    },
    "title": "Supplychain",
    "version": 1
  },
  "userdoc": {
    "kind": "user",
    "methods": {
      "getItemHistory(uint256,string)": {
        "notice": "FUNCTIONS (GETTERS) "
      },
      "harvestItem(uint256,address,string,string,string,string,string)": {
        "notice": "FUNCTIONS (STATE) "
      }
    },
    "version": 1
  }
}