{
  "contractName": "SupplyChain",
  "abi": [
    {
      "inputs": [],
      "stateMutability": "payable",
      "type": "constructor"
    },
    {
      "anonymous": false,
      "inputs": [
        {
          "indexed": true,
          "internalType": "address",
          "name": "account",
          "type": "address"
        }
      ],
      "name": "ConsumerAdded",
      "type": "event"
    },
    {
      "anonymous": false,
      "inputs": [
        {
          "indexed": true,
          "internalType": "address",
          "name": "account",
          "type": "address"
        }
      ],
      "name": "ConsumerRemoved",
      "type": "event"
    },
    {
      "anonymous": false,
      "inputs": [
        {
          "indexed": true,
          "internalType": "address",
          "name": "account",
          "type": "address"
        }
      ],
      "name": "DistributorAdded",
      "type": "event"
    },
    {
      "anonymous": false,
      "inputs": [
        {
          "indexed": true,
          "internalType": "address",
          "name": "account",
          "type": "address"
        }
      ],
      "name": "DistributorRemoved",
      "type": "event"
    },
    {
      "anonymous": false,
      "inputs": [
        {
          "indexed": true,
          "internalType": "address",
          "name": "account",
          "type": "address"
        }
      ],
      "name": "FarmerAdded",
      "type": "event"
    },
    {
      "anonymous": false,
      "inputs": [
        {
          "indexed": true,
          "internalType": "address",
          "name": "account",
          "type": "address"
        }
      ],
      "name": "FarmerRemoved",
      "type": "event"
    },
    {
      "anonymous": false,
      "inputs": [
        {
          "indexed": false,
          "internalType": "uint256",
          "name": "upc",
          "type": "uint256"
        }
      ],
      "name": "ForSale",
      "type": "event"
    },
    {
      "anonymous": false,
      "inputs": [
        {
          "indexed": false,
          "internalType": "uint256",
          "name": "upc",
          "type": "uint256"
        }
      ],
      "name": "Harvested",
      "type": "event"
    },
    {
      "anonymous": false,
      "inputs": [
        {
          "indexed": false,
          "internalType": "uint256",
          "name": "upc",
          "type": "uint256"
        }
      ],
      "name": "Packed",
      "type": "event"
    },
    {
      "anonymous": false,
      "inputs": [
        {
          "indexed": false,
          "internalType": "uint256",
          "name": "upc",
          "type": "uint256"
        }
      ],
      "name": "Processed",
      "type": "event"
    },
    {
      "anonymous": false,
      "inputs": [
        {
          "indexed": false,
          "internalType": "uint256",
          "name": "upc",
          "type": "uint256"
        }
      ],
      "name": "Purchased",
      "type": "event"
    },
    {
      "anonymous": false,
      "inputs": [
        {
          "indexed": false,
          "internalType": "uint256",
          "name": "upc",
          "type": "uint256"
        }
      ],
      "name": "Received",
      "type": "event"
    },
    {
      "anonymous": false,
      "inputs": [
        {
          "indexed": true,
          "internalType": "address",
          "name": "account",
          "type": "address"
        }
      ],
      "name": "RetailerAdded",
      "type": "event"
    },
    {
      "anonymous": false,
      "inputs": [
        {
          "indexed": true,
          "internalType": "address",
          "name": "account",
          "type": "address"
        }
      ],
      "name": "RetailerRemoved",
      "type": "event"
    },
    {
      "anonymous": false,
      "inputs": [
        {
          "indexed": false,
          "internalType": "uint256",
          "name": "upc",
          "type": "uint256"
        }
      ],
      "name": "Shipped",
      "type": "event"
    },
    {
      "anonymous": false,
      "inputs": [
        {
          "indexed": false,
          "internalType": "uint256",
          "name": "upc",
          "type": "uint256"
        }
      ],
      "name": "Sold",
      "type": "event"
    },
    {
      "anonymous": false,
      "inputs": [
        {
          "indexed": true,
          "internalType": "address",
          "name": "oldOwner",
          "type": "address"
        },
        {
          "indexed": true,
          "internalType": "address",
          "name": "newOwner",
          "type": "address"
        }
      ],
      "name": "TransferOwnership",
      "type": "event"
    },
    {
      "inputs": [
        {
          "internalType": "address",
          "name": "account",
          "type": "address"
        }
      ],
      "name": "addConsumer",
      "outputs": [],
      "stateMutability": "nonpayable",
      "type": "function"
    },
    {
      "inputs": [
        {
          "internalType": "address",
          "name": "account",
          "type": "address"
        }
      ],
      "name": "addDistributor",
      "outputs": [],
      "stateMutability": "nonpayable",
      "type": "function"
    },
    {
      "inputs": [
        {
          "internalType": "address",
          "name": "account",
          "type": "address"
        }
      ],
      "name": "addFarmer",
      "outputs": [],
      "stateMutability": "nonpayable",
      "type": "function"
    },
    {
      "inputs": [
        {
          "internalType": "address",
          "name": "account",
          "type": "address"
        }
      ],
      "name": "addRetailer",
      "outputs": [],
      "stateMutability": "nonpayable",
      "type": "function"
    },
    {
      "inputs": [
        {
          "internalType": "address",
          "name": "account",
          "type": "address"
        }
      ],
      "name": "isConsumer",
      "outputs": [
        {
          "internalType": "bool",
          "name": "",
          "type": "bool"
        }
      ],
      "stateMutability": "view",
      "type": "function"
    },
    {
      "inputs": [
        {
          "internalType": "address",
          "name": "account",
          "type": "address"
        }
      ],
      "name": "isDistributor",
      "outputs": [
        {
          "internalType": "bool",
          "name": "",
          "type": "bool"
        }
      ],
      "stateMutability": "view",
      "type": "function"
    },
    {
      "inputs": [
        {
          "internalType": "address",
          "name": "account",
          "type": "address"
        }
      ],
      "name": "isFarmer",
      "outputs": [
        {
          "internalType": "bool",
          "name": "",
          "type": "bool"
        }
      ],
      "stateMutability": "view",
      "type": "function"
    },
    {
      "inputs": [
        {
          "internalType": "address",
          "name": "account",
          "type": "address"
        }
      ],
      "name": "isRetailer",
      "outputs": [
        {
          "internalType": "bool",
          "name": "",
          "type": "bool"
        }
      ],
      "stateMutability": "view",
      "type": "function"
    },
    {
      "inputs": [],
      "name": "kill",
      "outputs": [],
      "stateMutability": "nonpayable",
      "type": "function"
    },
    {
      "inputs": [],
      "name": "owner",
      "outputs": [
        {
          "internalType": "address",
          "name": "",
          "type": "address"
        }
      ],
      "stateMutability": "view",
      "type": "function"
    },
    {
      "inputs": [
        {
          "internalType": "address",
          "name": "account",
          "type": "address"
        }
      ],
      "name": "renounceConsumer",
      "outputs": [],
      "stateMutability": "nonpayable",
      "type": "function"
    },
    {
      "inputs": [
        {
          "internalType": "address",
          "name": "account",
          "type": "address"
        }
      ],
      "name": "renounceDistributor",
      "outputs": [],
      "stateMutability": "nonpayable",
      "type": "function"
    },
    {
      "inputs": [
        {
          "internalType": "address",
          "name": "account",
          "type": "address"
        }
      ],
      "name": "renounceFarmer",
      "outputs": [],
      "stateMutability": "nonpayable",
      "type": "function"
    },
    {
      "inputs": [],
      "name": "renounceOwnership",
      "outputs": [],
      "stateMutability": "nonpayable",
      "type": "function"
    },
    {
      "inputs": [
        {
          "internalType": "address",
          "name": "account",
          "type": "address"
        }
      ],
      "name": "renounceRetailer",
      "outputs": [],
      "stateMutability": "nonpayable",
      "type": "function"
    },
    {
      "inputs": [
        {
          "internalType": "address payable",
          "name": "newOwner",
          "type": "address"
        }
      ],
      "name": "transferOwnership",
      "outputs": [],
      "stateMutability": "nonpayable",
      "type": "function"
    },
    {
      "inputs": [
        {
          "internalType": "uint256",
          "name": "_upc",
          "type": "uint256"
        },
        {
          "internalType": "string",
          "name": "state",
          "type": "string"
        }
      ],
      "name": "getItemHistory",
      "outputs": [
        {
          "internalType": "address",
          "name": "",
          "type": "address"
        }
      ],
      "stateMutability": "view",
      "type": "function"
    },
    {
      "inputs": [
        {
          "internalType": "uint256",
          "name": "_upc",
          "type": "uint256"
        },
        {
          "internalType": "address payable",
          "name": "_originFarmerID",
          "type": "address"
        },
        {
          "internalType": "string",
          "name": "_originFarmName",
          "type": "string"
        },
        {
          "internalType": "string",
          "name": "_originFarmInformation",
          "type": "string"
        },
        {
          "internalType": "string",
          "name": "_originFarmLatitude",
          "type": "string"
        },
        {
          "internalType": "string",
          "name": "_originFarmLongitude",
          "type": "string"
        },
        {
          "internalType": "string",
          "name": "_productNotes",
          "type": "string"
        }
      ],
      "name": "harvestItem",
      "outputs": [],
      "stateMutability": "nonpayable",
      "type": "function"
    },
    {
      "inputs": [
        {
          "internalType": "uint256",
          "name": "_upc",
          "type": "uint256"
        }
      ],
      "name": "processItem",
      "outputs": [],
      "stateMutability": "nonpayable",
      "type": "function"
    },
    {
      "inputs": [
        {
          "internalType": "uint256",
          "name": "_upc",
          "type": "uint256"
        }
      ],
      "name": "packItem",
      "outputs": [],
      "stateMutability": "nonpayable",
      "type": "function"
    },
    {
      "inputs": [
        {
          "internalType": "uint256",
          "name": "_upc",
          "type": "uint256"
        },
        {
          "internalType": "uint256",
          "name": "_price",
          "type": "uint256"
        }
      ],
      "name": "sellItem",
      "outputs": [],
      "stateMutability": "nonpayable",
      "type": "function"
    },
    {
      "inputs": [
        {
          "internalType": "uint256",
          "name": "_upc",
          "type": "uint256"
        }
      ],
      "name": "buyItem",
      "outputs": [],
      "stateMutability": "payable",
      "type": "function"
    },
    {
      "inputs": [
        {
          "internalType": "uint256",
          "name": "_upc",
          "type": "uint256"
        }
      ],
      "name": "shipItem",
      "outputs": [],
      "stateMutability": "nonpayable",
      "type": "function"
    },
    {
      "inputs": [
        {
          "internalType": "uint256",
          "name": "_upc",
          "type": "uint256"
        }
      ],
      "name": "receiveItem",
      "outputs": [],
      "stateMutability": "nonpayable",
      "type": "function"
    },
    {
      "inputs": [
        {
          "internalType": "uint256",
          "name": "_upc",
          "type": "uint256"
        }
      ],
      "name": "purchaseItem",
      "outputs": [],
      "stateMutability": "payable",
      "type": "function"
    },
    {
      "inputs": [
        {
          "internalType": "uint256",
          "name": "_upc",
          "type": "uint256"
        }
      ],
      "name": "fetchItemBufferOne",
      "outputs": [
        {
          "internalType": "uint256",
          "name": "itemSKU",
          "type": "uint256"
        },
        {
          "internalType": "uint256",
          "name": "itemUPC",
          "type": "uint256"
        },
        {
          "internalType": "address",
          "name": "ownerID",
          "type": "address"
        },
        {
          "internalType": "address",
          "name": "originFarmerID",
          "type": "address"
        },
        {
          "internalType": "string",
          "name": "originFarmName",
          "type": "string"
        },
        {
          "internalType": "string",
          "name": "originFarmInformation",
          "type": "string"
        },
        {
          "internalType": "string",
          "name": "originFarmLatitude",
          "type": "string"
        },
        {
          "internalType": "string",
          "name": "originFarmLongitude",
          "type": "string"
        }
      ],
      "stateMutability": "view",
      "type": "function"
    },
    {
      "inputs": [
        {
          "internalType": "uint256",
          "name": "_upc",
          "type": "uint256"
        }
      ],
      "name": "fetchItemBufferTwo",
      "outputs": [
        {
          "internalType": "uint256",
          "name": "itemSKU",
          "type": "uint256"
        },
        {
          "internalType": "uint256",
          "name": "itemUPC",
          "type": "uint256"
        },
        {
          "internalType": "uint256",
          "name": "productID",
          "type": "uint256"
        },
        {
          "internalType": "string",
          "name": "productNotes",
          "type": "string"
        },
        {
          "internalType": "uint256",
          "name": "productPrice",
          "type": "uint256"
        },
        {
          "internalType": "uint256",
          "name": "itemState",
          "type": "uint256"
        },
        {
          "internalType": "address",
          "name": "distributorID",
          "type": "address"
        },
        {
          "internalType": "address",
          "name": "retailerID",
          "type": "address"
        },
        {
          "internalType": "address",
          "name": "consumerID",
          "type": "address"
        }
      ],
      "stateMutability": "view",
      "type": "function"
    }
  ],
  "bytecode": "0x6080604052336000806101000a81548173ffffffffffffffffffffffffffffffffffffffff021916908373ffffffffffffffffffffffffffffffffffffffff16021790555060008054906101000a900473ffffffffffffffffffffffffffffffffffffffff1673ffffffffffffffffffffffffffffffffffffffff16600073ffffffffffffffffffffffffffffffffffffffff167f5c486528ec3e3f0ea91181cff8116f02bfa350e03b8b6f12e00765adbb5af85c60405160405180910390a3620000d0336200011960201b60201c565b620000e1336200017a60201b60201c565b620000f233620001db60201b60201c565b62000103336200023c60201b60201c565b60016006819055506001600581905550620005a7565b620001348160016200029d60201b620030481790919060201c565b8073ffffffffffffffffffffffffffffffffffffffff167f2e0ded4123377a3c2bc9a26f1717655a129e2f20752924d42e730ec89c83dbd060405160405180910390a250565b620001958160026200029d60201b620030481790919060201c565b8073ffffffffffffffffffffffffffffffffffffffff167fddbf200aa634dc3fb81cfd68583dd1040d1c751d335e1d86b631bde3e977fea860405160405180910390a250565b620001f68160036200029d60201b620030481790919060201c565b8073ffffffffffffffffffffffffffffffffffffffff167f71ae26cad02663e3d92efd6ec56031a80d74a20c0ab4183faa8bf262261c9baa60405160405180910390a250565b620002578160046200029d60201b620030481790919060201c565b8073ffffffffffffffffffffffffffffffffffffffff167f28b26e7a3d20aedbc5f8f2ebf7da671c0491723a2b78f47a097b0e46dee0714260405160405180910390a250565b600073ffffffffffffffffffffffffffffffffffffffff168173ffffffffffffffffffffffffffffffffffffffff16036200030f576040517f08c379a00000000000000000000000000000000000000000000000000000000081526004016200030690620004ed565b60405180910390fd5b620003218282620003c260201b60201c565b1562000364576040517f08c379a00000000000000000000000000000000000000000000000000000000081526004016200035b9062000585565b60405180910390fd5b60018260000160008373ffffffffffffffffffffffffffffffffffffffff1673ffffffffffffffffffffffffffffffffffffffff16815260200190815260200160002060006101000a81548160ff0219169083151502179055505050565b60008073ffffffffffffffffffffffffffffffffffffffff168273ffffffffffffffffffffffffffffffffffffffff160362000435576040517f08c379a00000000000000000000000000000000000000000000000000000000081526004016200042c90620004ed565b60405180910390fd5b8260000160008373ffffffffffffffffffffffffffffffffffffffff1673ffffffffffffffffffffffffffffffffffffffff16815260200190815260200160002060009054906101000a900460ff16905092915050565b600082825260208201905092915050565b7f416464726573732063616e6e6f74206265207a65726f20616464726573730000600082015250565b6000620004d5601e836200048c565b9150620004e2826200049d565b602082019050919050565b600060208201905081810360008301526200050881620004c6565b9050919050565b7f54686973206164647265737320616c726561647920686173207468697320726f60008201527f6c65000000000000000000000000000000000000000000000000000000000000602082015250565b60006200056d6022836200048c565b91506200057a826200050f565b604082019050919050565b60006020820190508181036000830152620005a0816200055e565b9050919050565b6149dc80620005b76000396000f3fe60806040526004361061019c5760003560e01c8063834ff739116100ec578063bdd8a6a81161008a578063f2fde38b11610064578063f2fde38b146105af578063f30fc480146105d8578063f487d48d14610601578063f61c899a1461062a5761019c565b8063bdd8a6a81461054e578063d38ea5bf14610577578063e7fb74c7146105935761019c565b80638f0c86fa116100c65780638f0c86fa14610482578063a26be999146104bf578063b9429069146104e8578063bbb67db9146105255761019c565b8063834ff739146103f15780638da5cb5b1461042e5780638ec4f505146104595761019c565b80634d04321a11610159578063715018a611610133578063715018a6146103445780637250e2241461035b57806377c459131461038457806380c3f96d146103c85761019c565b80634d04321a146102995780635da09b88146102c257806366225ff9146102ff5761019c565b80630ca71432146101a1578063112940f9146101ca5780632c98e64d146101f35780632d9235611461023057806341c0e1b51461025957806349dae76614610270575b600080fd5b3480156101ad57600080fd5b506101c860048036038101906101c39190613547565b610653565b005b3480156101d657600080fd5b506101f160048036038101906101ec9190613547565b6106ad565b005b3480156101ff57600080fd5b5061021a600480360381019061021591906136f0565b610707565b604051610227919061375b565b60405180910390f35b34801561023c57600080fd5b5061025760048036038101906102529190613776565b610761565b005b34801561026557600080fd5b5061026e6109d0565b005b34801561027c57600080fd5b50610297600480360381019061029291906137b6565b610a5e565b005b3480156102a557600080fd5b506102c060048036038101906102bb9190613547565b610cc3565b005b3480156102ce57600080fd5b506102e960048036038101906102e49190613547565b610d1d565b6040516102f691906137fe565b60405180910390f35b34801561030b57600080fd5b50610326600480360381019061032191906137b6565b610d3a565b60405161033b999897969594939291906138b0565b60405180910390f35b34801561035057600080fd5b506103596112bc565b005b34801561036757600080fd5b50610382600480360381019061037d9190613547565b611408565b005b34801561039057600080fd5b506103ab60048036038101906103a691906137b6565b611462565b6040516103bf989796959493929190613944565b60405180910390f35b3480156103d457600080fd5b506103ef60048036038101906103ea9190613547565b6119c0565b005b3480156103fd57600080fd5b5061041860048036038101906104139190613547565b611a1a565b60405161042591906137fe565b60405180910390f35b34801561043a57600080fd5b50610443611a37565b604051610450919061375b565b60405180910390f35b34801561046557600080fd5b50610480600480360381019061047b9190613547565b611a60565b005b34801561048e57600080fd5b506104a960048036038101906104a49190613547565b611aba565b6040516104b691906137fe565b60405180910390f35b3480156104cb57600080fd5b506104e660048036038101906104e191906137b6565b611ad7565b005b3480156104f457600080fd5b5061050f600480360381019061050a9190613547565b611d27565b60405161051c91906137fe565b60405180910390f35b34801561053157600080fd5b5061054c60048036038101906105479190613547565b611d44565b005b34801561055a57600080fd5b5061057560048036038101906105709190613a1c565b611d9e565b005b610591600480360381019061058c91906137b6565b612218565b005b6105ad60048036038101906105a891906137b6565b61256f565b005b3480156105bb57600080fd5b506105d660048036038101906105d19190613b4a565b61295f565b005b3480156105e457600080fd5b506105ff60048036038101906105fa91906137b6565b612b19565b005b34801561060d57600080fd5b5061062860048036038101906106239190613547565b612d7e565b005b34801561063657600080fd5b50610651600480360381019061064c91906137b6565b612dd8565b005b61066781600361315f90919063ffffffff16565b8073ffffffffffffffffffffffffffffffffffffffff167fdb7176e79cffef81cb01767dd0447a0b24bb72ca9778d4b245581086b2a7e6db60405160405180910390a250565b6106c181600461304890919063ffffffff16565b8073ffffffffffffffffffffffffffffffffffffffff167f28b26e7a3d20aedbc5f8f2ebf7da671c0491723a2b78f47a097b0e46dee0714260405160405180910390a250565b6000600860008481526020019081526020016000208260405161072a9190613bb3565b908152602001604051809103902060009054906101000a900473ffffffffffffffffffffffffffffffffffffffff16905092915050565b61076a33611d27565b6107a9576040517f08c379a00000000000000000000000000000000000000000000000000000000081526004016107a090613c3c565b60405180910390fd5b81600260078111156107be576107bd613c5c565b5b60076000838152602001908152602001600020600b0160009054906101000a900460ff1660078111156107f4576107f3613c5c565b5b14610834576040517f08c379a000000000000000000000000000000000000000000000000000000000815260040161082b90613cd7565b60405180910390fd5b6007600084815260200190815260200160002060030160009054906101000a900473ffffffffffffffffffffffffffffffffffffffff168073ffffffffffffffffffffffffffffffffffffffff163373ffffffffffffffffffffffffffffffffffffffff16146108d9576040517f08c379a00000000000000000000000000000000000000000000000000000000081526004016108d090613d69565b60405180910390fd5b6000600760008681526020019081526020016000209050600381600b0160006101000a81548160ff0219169083600781111561091857610917613c5c565b5b02179055508381600a0181905550326008600087815260200190815260200160002060405161094690613dd5565b908152602001604051809103902060006101000a81548173ffffffffffffffffffffffffffffffffffffffff021916908373ffffffffffffffffffffffffffffffffffffffff1602179055507fa96ae0fc3224ebd79eebfe54bd130cc9cb94416cddd1f2386115e00b72532468856040516109c19190613dea565b60405180910390a15050505050565b60008054906101000a900473ffffffffffffffffffffffffffffffffffffffff1673ffffffffffffffffffffffffffffffffffffffff163373ffffffffffffffffffffffffffffffffffffffff1603610a5c5760008054906101000a900473ffffffffffffffffffffffffffffffffffffffff1673ffffffffffffffffffffffffffffffffffffffff16ff5b565b610a6733611d27565b610aa6576040517f08c379a0000000000000000000000000000000000000000000000000000000008152600401610a9d90613c3c565b60405180910390fd5b8060006007811115610abb57610aba613c5c565b5b60076000838152602001908152602001600020600b0160009054906101000a900460ff166007811115610af157610af0613c5c565b5b14610b31576040517f08c379a0000000000000000000000000000000000000000000000000000000008152600401610b2890613e77565b60405180910390fd5b6007600083815260200190815260200160002060030160009054906101000a900473ffffffffffffffffffffffffffffffffffffffff168073ffffffffffffffffffffffffffffffffffffffff163373ffffffffffffffffffffffffffffffffffffffff1614610bd6576040517f08c379a0000000000000000000000000000000000000000000000000000000008152600401610bcd90613d69565b60405180910390fd5b6000600760008581526020019081526020016000209050600181600b0160006101000a81548160ff02191690836007811115610c1557610c14613c5c565b5b02179055503260086000868152602001908152602001600020604051610c3a90613ee3565b908152602001604051809103902060006101000a81548173ffffffffffffffffffffffffffffffffffffffff021916908373ffffffffffffffffffffffffffffffffffffffff1602179055507f5afe3b1bf87069693c075da5c22a98d63d1aef98a30dbbe538d0781a98b77ee584604051610cb59190613dea565b60405180910390a150505050565b610cd781600161315f90919063ffffffff16565b8073ffffffffffffffffffffffffffffffffffffffff167fa5e0f060af304ab17dd418c7927e3da3ae7868189bf387aee09ab179ccc572f260405160405180910390a250565b6000610d3382600361327590919063ffffffff16565b9050919050565b60008060006060600080600080600080600760008c8152602001908152602001600020604051806101e001604052908160008201548152602001600182015481526020016002820160009054906101000a900473ffffffffffffffffffffffffffffffffffffffff1673ffffffffffffffffffffffffffffffffffffffff1673ffffffffffffffffffffffffffffffffffffffff1681526020016003820160009054906101000a900473ffffffffffffffffffffffffffffffffffffffff1673ffffffffffffffffffffffffffffffffffffffff1673ffffffffffffffffffffffffffffffffffffffff168152602001600482018054610e3990613f27565b80601f0160208091040260200160405190810160405280929190818152602001828054610e6590613f27565b8015610eb25780601f10610e8757610100808354040283529160200191610eb2565b820191906000526020600020905b815481529060010190602001808311610e9557829003601f168201915b50505050508152602001600582018054610ecb90613f27565b80601f0160208091040260200160405190810160405280929190818152602001828054610ef790613f27565b8015610f445780601f10610f1957610100808354040283529160200191610f44565b820191906000526020600020905b815481529060010190602001808311610f2757829003601f168201915b50505050508152602001600682018054610f5d90613f27565b80601f0160208091040260200160405190810160405280929190818152602001828054610f8990613f27565b8015610fd65780601f10610fab57610100808354040283529160200191610fd6565b820191906000526020600020905b815481529060010190602001808311610fb957829003601f168201915b50505050508152602001600782018054610fef90613f27565b80601f016020809104026020016040519081016040528092919081815260200182805461101b90613f27565b80156110685780601f1061103d57610100808354040283529160200191611068565b820191906000526020600020905b81548152906001019060200180831161104b57829003601f168201915b505050505081526020016008820154815260200160098201805461108b90613f27565b80601f01602080910402602001604051908101604052809291908181526020018280546110b790613f27565b80156111045780601f106110d957610100808354040283529160200191611104565b820191906000526020600020905b8154815290600101906020018083116110e757829003601f168201915b50505050508152602001600a8201548152602001600b820160009054906101000a900460ff16600781111561113c5761113b613c5c565b5b600781111561114e5761114d613c5c565b5b8152602001600b820160019054906101000a900473ffffffffffffffffffffffffffffffffffffffff1673ffffffffffffffffffffffffffffffffffffffff1673ffffffffffffffffffffffffffffffffffffffff168152602001600c820160009054906101000a900473ffffffffffffffffffffffffffffffffffffffff1673ffffffffffffffffffffffffffffffffffffffff1673ffffffffffffffffffffffffffffffffffffffff168152602001600d820160009054906101000a900473ffffffffffffffffffffffffffffffffffffffff1673ffffffffffffffffffffffffffffffffffffffff1673ffffffffffffffffffffffffffffffffffffffff168152505090508060000151995080602001519850806101000151975080610120015196508061014001519550806101600151600781111561129457611293613c5c565b5b94508061018001519350806101a001519250806101c001519150509193959799909294969850565b60008054906101000a900473ffffffffffffffffffffffffffffffffffffffff1673ffffffffffffffffffffffffffffffffffffffff163373ffffffffffffffffffffffffffffffffffffffff161461134a576040517f08c379a000000000000000000000000000000000000000000000000000000000815260040161134190613fca565b60405180910390fd5b600073ffffffffffffffffffffffffffffffffffffffff1660008054906101000a900473ffffffffffffffffffffffffffffffffffffffff1673ffffffffffffffffffffffffffffffffffffffff167f5c486528ec3e3f0ea91181cff8116f02bfa350e03b8b6f12e00765adbb5af85c60405160405180910390a360008060006101000a81548173ffffffffffffffffffffffffffffffffffffffff021916908373ffffffffffffffffffffffffffffffffffffffff160217905550565b61141c81600261304890919063ffffffff16565b8073ffffffffffffffffffffffffffffffffffffffff167fddbf200aa634dc3fb81cfd68583dd1040d1c751d335e1d86b631bde3e977fea860405160405180910390a250565b6000806000806060806060806000600760008b8152602001908152602001600020604051806101e001604052908160008201548152602001600182015481526020016002820160009054906101000a900473ffffffffffffffffffffffffffffffffffffffff1673ffffffffffffffffffffffffffffffffffffffff1673ffffffffffffffffffffffffffffffffffffffff1681526020016003820160009054906101000a900473ffffffffffffffffffffffffffffffffffffffff1673ffffffffffffffffffffffffffffffffffffffff1673ffffffffffffffffffffffffffffffffffffffff16815260200160048201805461155f90613f27565b80601f016020809104026020016040519081016040528092919081815260200182805461158b90613f27565b80156115d85780601f106115ad576101008083540402835291602001916115d8565b820191906000526020600020905b8154815290600101906020018083116115bb57829003601f168201915b505050505081526020016005820180546115f190613f27565b80601f016020809104026020016040519081016040528092919081815260200182805461161d90613f27565b801561166a5780601f1061163f5761010080835404028352916020019161166a565b820191906000526020600020905b81548152906001019060200180831161164d57829003601f168201915b5050505050815260200160068201805461168390613f27565b80601f01602080910402602001604051908101604052809291908181526020018280546116af90613f27565b80156116fc5780601f106116d1576101008083540402835291602001916116fc565b820191906000526020600020905b8154815290600101906020018083116116df57829003601f168201915b5050505050815260200160078201805461171590613f27565b80601f016020809104026020016040519081016040528092919081815260200182805461174190613f27565b801561178e5780601f106117635761010080835404028352916020019161178e565b820191906000526020600020905b81548152906001019060200180831161177157829003601f168201915b50505050508152602001600882015481526020016009820180546117b190613f27565b80601f01602080910402602001604051908101604052809291908181526020018280546117dd90613f27565b801561182a5780601f106117ff5761010080835404028352916020019161182a565b820191906000526020600020905b81548152906001019060200180831161180d57829003601f168201915b50505050508152602001600a8201548152602001600b820160009054906101000a900460ff16600781111561186257611861613c5c565b5b600781111561187457611873613c5c565b5b8152602001600b820160019054906101000a900473ffffffffffffffffffffffffffffffffffffffff1673ffffffffffffffffffffffffffffffffffffffff1673ffffffffffffffffffffffffffffffffffffffff168152602001600c820160009054906101000a900473ffffffffffffffffffffffffffffffffffffffff1673ffffffffffffffffffffffffffffffffffffffff1673ffffffffffffffffffffffffffffffffffffffff168152602001600d820160009054906101000a900473ffffffffffffffffffffffffffffffffffffffff1673ffffffffffffffffffffffffffffffffffffffff1673ffffffffffffffffffffffffffffffffffffffff1681525050905080600001519850806020015197508060400151965080606001519550806080015194508060a0015193508060c0015192508060e00151915050919395975091939597565b6119d481600161304890919063ffffffff16565b8073ffffffffffffffffffffffffffffffffffffffff167f2e0ded4123377a3c2bc9a26f1717655a129e2f20752924d42e730ec89c83dbd060405160405180910390a250565b6000611a3082600461327590919063ffffffff16565b9050919050565b60008060009054906101000a900473ffffffffffffffffffffffffffffffffffffffff16905090565b611a7481600361304890919063ffffffff16565b8073ffffffffffffffffffffffffffffffffffffffff167f71ae26cad02663e3d92efd6ec56031a80d74a20c0ab4183faa8bf262261c9baa60405160405180910390a250565b6000611ad082600261327590919063ffffffff16565b9050919050565b611aeb33600361327590919063ffffffff16565b611b2a576040517f08c379a0000000000000000000000000000000000000000000000000000000008152600401611b219061405c565b60405180910390fd5b8060056007811115611b3f57611b3e613c5c565b5b60076000838152602001908152602001600020600b0160009054906101000a900460ff166007811115611b7557611b74613c5c565b5b14611bb5576040517f08c379a0000000000000000000000000000000000000000000000000000000008152600401611bac906140ee565b60405180910390fd5b6000600760008481526020019081526020016000209050338160020160006101000a81548173ffffffffffffffffffffffffffffffffffffffff021916908373ffffffffffffffffffffffffffffffffffffffff160217905550600681600b0160006101000a81548160ff02191690836007811115611c3757611c36613c5c565b5b02179055503381600c0160006101000a81548173ffffffffffffffffffffffffffffffffffffffff021916908373ffffffffffffffffffffffffffffffffffffffff1602179055503260086000858152602001908152602001600020604051611c9f9061415a565b908152602001604051809103902060006101000a81548173ffffffffffffffffffffffffffffffffffffffff021916908373ffffffffffffffffffffffffffffffffffffffff1602179055507fa8142743f8f70a4c26f3691cf4ed59718381fb2f18070ec52be1f1022d85555783604051611d1a9190613dea565b60405180910390a1505050565b6000611d3d82600161327590919063ffffffff16565b9050919050565b611d5881600261315f90919063ffffffff16565b8073ffffffffffffffffffffffffffffffffffffffff167f126174f6cf49c81cdb4a9214c6b8f037bef55b4ec31e4fc776cea2a1c8a88d5960405160405180910390a250565b611da733611d27565b611de6576040517f08c379a0000000000000000000000000000000000000000000000000000000008152600401611ddd90613c3c565b60405180910390fd5b611dee61333c565b8781602001818152505086816040019073ffffffffffffffffffffffffffffffffffffffff16908173ffffffffffffffffffffffffffffffffffffffff168152505086816060019073ffffffffffffffffffffffffffffffffffffffff16908173ffffffffffffffffffffffffffffffffffffffff1681525050858160800181905250848160a00181905250838160c00181905250828160e001819052508181610120018190525060065481600001818152505060065488611eb0919061419e565b8161010001818152505032600860008a8152602001908152602001600020604051611eda90614240565b908152602001604051809103902060006101000a81548173ffffffffffffffffffffffffffffffffffffffff021916908373ffffffffffffffffffffffffffffffffffffffff1602179055506001600654611f35919061419e565b60068190555060008161016001906007811115611f5557611f54613c5c565b5b90816007811115611f6957611f68613c5c565b5b8152505080600760008a8152602001908152602001600020600082015181600001556020820151816001015560408201518160020160006101000a81548173ffffffffffffffffffffffffffffffffffffffff021916908373ffffffffffffffffffffffffffffffffffffffff16021790555060608201518160030160006101000a81548173ffffffffffffffffffffffffffffffffffffffff021916908373ffffffffffffffffffffffffffffffffffffffff160217905550608082015181600401908051906020019061203f929190613432565b5060a082015181600501908051906020019061205c929190613432565b5060c0820151816006019080519060200190612079929190613432565b5060e0820151816007019080519060200190612096929190613432565b5061010082015181600801556101208201518160090190805190602001906120bf929190613432565b5061014082015181600a015561016082015181600b0160006101000a81548160ff021916908360078111156120f7576120f6613c5c565b5b021790555061018082015181600b0160016101000a81548173ffffffffffffffffffffffffffffffffffffffff021916908373ffffffffffffffffffffffffffffffffffffffff1602179055506101a082015181600c0160006101000a81548173ffffffffffffffffffffffffffffffffffffffff021916908373ffffffffffffffffffffffffffffffffffffffff1602179055506101c082015181600d0160006101000a81548173ffffffffffffffffffffffffffffffffffffffff021916908373ffffffffffffffffffffffffffffffffffffffff1602179055509050507f8e55ccfc9778ff8eba1646d765cf1982537ce0f9257054a17b48aad745250183886040516122069190613dea565b60405180910390a15050505050505050565b61222c33600461327590919063ffffffff16565b61226b576040517f08c379a0000000000000000000000000000000000000000000000000000000008152600401612262906142c7565b60405180910390fd5b80600660078111156122805761227f613c5c565b5b60076000838152602001908152602001600020600b0160009054906101000a900460ff1660078111156122b6576122b5613c5c565b5b146122f6576040517f08c379a00000000000000000000000000000000000000000000000000000000081526004016122ed90614359565b60405180910390fd5b60076000838152602001908152602001600020600a015480341015612350576040517f08c379a0000000000000000000000000000000000000000000000000000000008152600401612347906143eb565b60405180910390fd5b826000600760008681526020019081526020016000209050338160020160006101000a81548173ffffffffffffffffffffffffffffffffffffffff021916908373ffffffffffffffffffffffffffffffffffffffff160217905550600781600b0160006101000a81548160ff021916908360078111156123d3576123d2613c5c565b5b02179055503381600d0160006101000a81548173ffffffffffffffffffffffffffffffffffffffff021916908373ffffffffffffffffffffffffffffffffffffffff160217905550326008600087815260200190815260200160002060405161243b90614457565b908152602001604051809103902060006101000a81548173ffffffffffffffffffffffffffffffffffffffff021916908373ffffffffffffffffffffffffffffffffffffffff1602179055507f653d56639fee6b566a5c804764e9689de38645f0b733df89a36a1b7b42173dd8856040516124b69190613dea565b60405180910390a150600060076000838152602001908152602001600020600a01549050600081346124e8919061446c565b905060076000848152602001908152602001600020600d0160009054906101000a900473ffffffffffffffffffffffffffffffffffffffff1673ffffffffffffffffffffffffffffffffffffffff166108fc829081150290604051600060405180830381858888f19350505050158015612566573d6000803e3d6000fd5b50505050505050565b61258333600261327590919063ffffffff16565b6125c2576040517f08c379a00000000000000000000000000000000000000000000000000000000081526004016125b990614512565b60405180910390fd5b80600360078111156125d7576125d6613c5c565b5b60076000838152602001908152602001600020600b0160009054906101000a900460ff16600781111561260d5761260c613c5c565b5b1461264d576040517f08c379a0000000000000000000000000000000000000000000000000000000008152600401612644906145a4565b60405180910390fd5b60076000838152602001908152602001600020600a0154803410156126a7576040517f08c379a000000000000000000000000000000000000000000000000000000000815260040161269e906143eb565b60405180910390fd5b826000600760008681526020019081526020016000209050338160020160006101000a81548173ffffffffffffffffffffffffffffffffffffffff021916908373ffffffffffffffffffffffffffffffffffffffff160217905550600481600b0160006101000a81548160ff0219169083600781111561272a57612729613c5c565b5b02179055503381600b0160016101000a81548173ffffffffffffffffffffffffffffffffffffffff021916908373ffffffffffffffffffffffffffffffffffffffff160217905550600060076000878152602001908152602001600020600a015490506007600087815260200190815260200160002060030160009054906101000a900473ffffffffffffffffffffffffffffffffffffffff1673ffffffffffffffffffffffffffffffffffffffff166108fc829081150290604051600060405180830381858888f19350505050158015612809573d6000803e3d6000fd5b50326008600088815260200190815260200160002060405161282a90613dd5565b908152602001604051809103902060006101000a81548173ffffffffffffffffffffffffffffffffffffffff021916908373ffffffffffffffffffffffffffffffffffffffff1602179055507f92f64ca637d023f354075a4be751b169c1a8a9ccb6d33cdd0cb3520543995727866040516128a59190613dea565b60405180910390a15050600060076000838152602001908152602001600020600a01549050600081346128d8919061446c565b905060076000848152602001908152602001600020600b0160019054906101000a900473ffffffffffffffffffffffffffffffffffffffff1673ffffffffffffffffffffffffffffffffffffffff166108fc829081150290604051600060405180830381858888f19350505050158015612956573d6000803e3d6000fd5b50505050505050565b60008054906101000a900473ffffffffffffffffffffffffffffffffffffffff1673ffffffffffffffffffffffffffffffffffffffff163373ffffffffffffffffffffffffffffffffffffffff16146129ed576040517f08c379a00000000000000000000000000000000000000000000000000000000081526004016129e490613fca565b60405180910390fd5b600073ffffffffffffffffffffffffffffffffffffffff168173ffffffffffffffffffffffffffffffffffffffff1603612a5c576040517f08c379a0000000000000000000000000000000000000000000000000000000008152600401612a5390614636565b60405180910390fd5b8073ffffffffffffffffffffffffffffffffffffffff1660008054906101000a900473ffffffffffffffffffffffffffffffffffffffff1673ffffffffffffffffffffffffffffffffffffffff167f5c486528ec3e3f0ea91181cff8116f02bfa350e03b8b6f12e00765adbb5af85c60405160405180910390a3806000806101000a81548173ffffffffffffffffffffffffffffffffffffffff021916908373ffffffffffffffffffffffffffffffffffffffff16021790555050565b612b2233611d27565b612b61576040517f08c379a0000000000000000000000000000000000000000000000000000000008152600401612b5890613c3c565b60405180910390fd5b8060016007811115612b7657612b75613c5c565b5b60076000838152602001908152602001600020600b0160009054906101000a900460ff166007811115612bac57612bab613c5c565b5b14612bec576040517f08c379a0000000000000000000000000000000000000000000000000000000008152600401612be3906146c8565b60405180910390fd5b6007600083815260200190815260200160002060030160009054906101000a900473ffffffffffffffffffffffffffffffffffffffff168073ffffffffffffffffffffffffffffffffffffffff163373ffffffffffffffffffffffffffffffffffffffff1614612c91576040517f08c379a0000000000000000000000000000000000000000000000000000000008152600401612c8890613d69565b60405180910390fd5b6000600760008581526020019081526020016000209050600281600b0160006101000a81548160ff02191690836007811115612cd057612ccf613c5c565b5b02179055503260086000868152602001908152602001600020604051612cf590614734565b908152602001604051809103902060006101000a81548173ffffffffffffffffffffffffffffffffffffffff021916908373ffffffffffffffffffffffffffffffffffffffff1602179055507f9b3b66e2380b690bae22c73ef1428fb0c91e72fe14a4b6defa13035214187aff84604051612d709190613dea565b60405180910390a150505050565b612d9281600461315f90919063ffffffff16565b8073ffffffffffffffffffffffffffffffffffffffff167fe3f5ed5f263f1f01764a96edfc7d025f511ec5f7d180e8816908b78bcf74f09860405160405180910390a250565b612dec33600261327590919063ffffffff16565b612e2b576040517f08c379a0000000000000000000000000000000000000000000000000000000008152600401612e2290614512565b60405180910390fd5b8060046007811115612e4057612e3f613c5c565b5b60076000838152602001908152602001600020600b0160009054906101000a900460ff166007811115612e7657612e75613c5c565b5b14612eb6576040517f08c379a0000000000000000000000000000000000000000000000000000000008152600401612ead90614795565b60405180910390fd5b60076000838152602001908152602001600020600b0160019054906101000a900473ffffffffffffffffffffffffffffffffffffffff168073ffffffffffffffffffffffffffffffffffffffff163373ffffffffffffffffffffffffffffffffffffffff1614612f5b576040517f08c379a0000000000000000000000000000000000000000000000000000000008152600401612f5290613d69565b60405180910390fd5b6000600760008581526020019081526020016000209050600581600b0160006101000a81548160ff02191690836007811115612f9a57612f99613c5c565b5b02179055503260086000868152602001908152602001600020604051612fbf90614801565b908152602001604051809103902060006101000a81548173ffffffffffffffffffffffffffffffffffffffff021916908373ffffffffffffffffffffffffffffffffffffffff1602179055507ff00b9a5725b80c54016f42114f6ed7792d22eecb116011c4afac29c57bef6c958460405161303a9190613dea565b60405180910390a150505050565b600073ffffffffffffffffffffffffffffffffffffffff168173ffffffffffffffffffffffffffffffffffffffff16036130b7576040517f08c379a00000000000000000000000000000000000000000000000000000000081526004016130ae90614862565b60405180910390fd5b6130c18282613275565b15613101576040517f08c379a00000000000000000000000000000000000000000000000000000000081526004016130f8906148f4565b60405180910390fd5b60018260000160008373ffffffffffffffffffffffffffffffffffffffff1673ffffffffffffffffffffffffffffffffffffffff16815260200190815260200160002060006101000a81548160ff0219169083151502179055505050565b600073ffffffffffffffffffffffffffffffffffffffff168173ffffffffffffffffffffffffffffffffffffffff16036131ce576040517f08c379a00000000000000000000000000000000000000000000000000000000081526004016131c590614862565b60405180910390fd5b6131d88282613275565b613217576040517f08c379a000000000000000000000000000000000000000000000000000000000815260040161320e90614986565b60405180910390fd5b60008260000160008373ffffffffffffffffffffffffffffffffffffffff1673ffffffffffffffffffffffffffffffffffffffff16815260200190815260200160002060006101000a81548160ff0219169083151502179055505050565b60008073ffffffffffffffffffffffffffffffffffffffff168273ffffffffffffffffffffffffffffffffffffffff16036132e5576040517f08c379a00000000000000000000000000000000000000000000000000000000081526004016132dc90614862565b60405180910390fd5b8260000160008373ffffffffffffffffffffffffffffffffffffffff1673ffffffffffffffffffffffffffffffffffffffff16815260200190815260200160002060009054906101000a900460ff16905092915050565b604051806101e001604052806000815260200160008152602001600073ffffffffffffffffffffffffffffffffffffffff168152602001600073ffffffffffffffffffffffffffffffffffffffff16815260200160608152602001606081526020016060815260200160608152602001600081526020016060815260200160008152602001600060078111156133d5576133d4613c5c565b5b8152602001600073ffffffffffffffffffffffffffffffffffffffff168152602001600073ffffffffffffffffffffffffffffffffffffffff168152602001600073ffffffffffffffffffffffffffffffffffffffff1681525090565b82805461343e90613f27565b90600052602060002090601f01602090048101928261346057600085556134a7565b82601f1061347957805160ff19168380011785556134a7565b828001600101855582156134a7579182015b828111156134a657825182559160200191906001019061348b565b5b5090506134b491906134b8565b5090565b5b808211156134d15760008160009055506001016134b9565b5090565b6000604051905090565b600080fd5b600080fd5b600073ffffffffffffffffffffffffffffffffffffffff82169050919050565b6000613514826134e9565b9050919050565b61352481613509565b811461352f57600080fd5b50565b6000813590506135418161351b565b92915050565b60006020828403121561355d5761355c6134df565b5b600061356b84828501613532565b91505092915050565b6000819050919050565b61358781613574565b811461359257600080fd5b50565b6000813590506135a48161357e565b92915050565b600080fd5b600080fd5b6000601f19601f8301169050919050565b7f4e487b7100000000000000000000000000000000000000000000000000000000600052604160045260246000fd5b6135fd826135b4565b810181811067ffffffffffffffff8211171561361c5761361b6135c5565b5b80604052505050565b600061362f6134d5565b905061363b82826135f4565b919050565b600067ffffffffffffffff82111561365b5761365a6135c5565b5b613664826135b4565b9050602081019050919050565b82818337600083830152505050565b600061369361368e84613640565b613625565b9050828152602081018484840111156136af576136ae6135af565b5b6136ba848285613671565b509392505050565b600082601f8301126136d7576136d66135aa565b5b81356136e7848260208601613680565b91505092915050565b60008060408385031215613707576137066134df565b5b600061371585828601613595565b925050602083013567ffffffffffffffff811115613736576137356134e4565b5b613742858286016136c2565b9150509250929050565b61375581613509565b82525050565b6000602082019050613770600083018461374c565b92915050565b6000806040838503121561378d5761378c6134df565b5b600061379b85828601613595565b92505060206137ac85828601613595565b9150509250929050565b6000602082840312156137cc576137cb6134df565b5b60006137da84828501613595565b91505092915050565b60008115159050919050565b6137f8816137e3565b82525050565b600060208201905061381360008301846137ef565b92915050565b61382281613574565b82525050565b600081519050919050565b600082825260208201905092915050565b60005b83811015613862578082015181840152602081019050613847565b83811115613871576000848401525b50505050565b600061388282613828565b61388c8185613833565b935061389c818560208601613844565b6138a5816135b4565b840191505092915050565b6000610120820190506138c6600083018c613819565b6138d3602083018b613819565b6138e0604083018a613819565b81810360608301526138f28189613877565b90506139016080830188613819565b61390e60a0830187613819565b61391b60c083018661374c565b61392860e083018561374c565b61393661010083018461374c565b9a9950505050505050505050565b60006101008201905061395a600083018b613819565b613967602083018a613819565b613974604083018961374c565b613981606083018861374c565b81810360808301526139938187613877565b905081810360a08301526139a78186613877565b905081810360c08301526139bb8185613877565b905081810360e08301526139cf8184613877565b90509998505050505050505050565b60006139e9826134e9565b9050919050565b6139f9816139de565b8114613a0457600080fd5b50565b600081359050613a16816139f0565b92915050565b600080600080600080600060e0888a031215613a3b57613a3a6134df565b5b6000613a498a828b01613595565b9750506020613a5a8a828b01613a07565b965050604088013567ffffffffffffffff811115613a7b57613a7a6134e4565b5b613a878a828b016136c2565b955050606088013567ffffffffffffffff811115613aa857613aa76134e4565b5b613ab48a828b016136c2565b945050608088013567ffffffffffffffff811115613ad557613ad46134e4565b5b613ae18a828b016136c2565b93505060a088013567ffffffffffffffff811115613b0257613b016134e4565b5b613b0e8a828b016136c2565b92505060c088013567ffffffffffffffff811115613b2f57613b2e6134e4565b5b613b3b8a828b016136c2565b91505092959891949750929550565b600060208284031215613b6057613b5f6134df565b5b6000613b6e84828501613a07565b91505092915050565b600081905092915050565b6000613b8d82613828565b613b978185613b77565b9350613ba7818560208601613844565b80840191505092915050565b6000613bbf8284613b82565b915081905092915050565b7f54686973206163636f756e7420686173206e6f2061204661726d657220526f6c60008201527f6500000000000000000000000000000000000000000000000000000000000000602082015250565b6000613c26602183613833565b9150613c3182613bca565b604082019050919050565b60006020820190508181036000830152613c5581613c19565b9050919050565b7f4e487b7100000000000000000000000000000000000000000000000000000000600052602160045260246000fd5b7f546865204974656d206973206e6f7420696e205061636b656420737461746521600082015250565b6000613cc1602083613833565b9150613ccc82613c8b565b602082019050919050565b60006020820190508181036000830152613cf081613cb4565b9050919050565b7f54686973206163636f756e74206973206e6f7420746865206f776e6572206f6660008201527f2074686973206974656d00000000000000000000000000000000000000000000602082015250565b6000613d53602a83613833565b9150613d5e82613cf7565b604082019050919050565b60006020820190508181036000830152613d8281613d46565b9050919050565b7f536f6c6400000000000000000000000000000000000000000000000000000000600082015250565b6000613dbf600483613b77565b9150613dca82613d89565b600482019050919050565b6000613de082613db2565b9150819050919050565b6000602082019050613dff6000830184613819565b92915050565b7f546865204974656d206973206e6f7420696e204861727665737465642073746160008201527f7465210000000000000000000000000000000000000000000000000000000000602082015250565b6000613e61602383613833565b9150613e6c82613e05565b604082019050919050565b60006020820190508181036000830152613e9081613e54565b9050919050565b7f50726f6365737365640000000000000000000000000000000000000000000000600082015250565b6000613ecd600983613b77565b9150613ed882613e97565b600982019050919050565b6000613eee82613ec0565b9150819050919050565b7f4e487b7100000000000000000000000000000000000000000000000000000000600052602260045260246000fd5b60006002820490506001821680613f3f57607f821691505b602082108103613f5257613f51613ef8565b5b50919050565b7f4f6e6c7920746865206f776e65722063616e20706572666f726d20746869732060008201527f6f7065726174696f6e0000000000000000000000000000000000000000000000602082015250565b6000613fb4602983613833565b9150613fbf82613f58565b604082019050919050565b60006020820190508181036000830152613fe381613fa7565b9050919050565b7f54686973206163636f756e7420686173206e6f2052657461696c657220726f6c60008201527f6500000000000000000000000000000000000000000000000000000000000000602082015250565b6000614046602183613833565b915061405182613fea565b604082019050919050565b6000602082019050818103600083015261407581614039565b9050919050565b7f546865204974656d206973206e6f7420696e205368697070656420737461746560008201527f2100000000000000000000000000000000000000000000000000000000000000602082015250565b60006140d8602183613833565b91506140e38261407c565b604082019050919050565b60006020820190508181036000830152614107816140cb565b9050919050565b7f5265636569766564000000000000000000000000000000000000000000000000600082015250565b6000614144600883613b77565b915061414f8261410e565b600882019050919050565b600061416582614137565b9150819050919050565b7f4e487b7100000000000000000000000000000000000000000000000000000000600052601160045260246000fd5b60006141a982613574565b91506141b483613574565b9250827fffffffffffffffffffffffffffffffffffffffffffffffffffffffffffffffff038211156141e9576141e861416f565b5b828201905092915050565b7f4861727665737465640000000000000000000000000000000000000000000000600082015250565b600061422a600983613b77565b9150614235826141f4565b600982019050919050565b600061424b8261421d565b9150819050919050565b7f54686973206163636f756e7420686173206e6f20436f6e73756d657220526f6c60008201527f6500000000000000000000000000000000000000000000000000000000000000602082015250565b60006142b1602183613833565b91506142bc82614255565b604082019050919050565b600060208201905081810360008301526142e0816142a4565b9050919050565b7f546865204974656d206973206e6f7420696e205265636569766564207374617460008201527f6521000000000000000000000000000000000000000000000000000000000000602082015250565b6000614343602283613833565b915061434e826142e7565b604082019050919050565b6000602082019050818103600083015261437281614336565b9050919050565b7f54686520616d6f756e742073656e74206973206e6f742073756666696369656e60008201527f7420666f72207468652070726963650000000000000000000000000000000000602082015250565b60006143d5602f83613833565b91506143e082614379565b604082019050919050565b60006020820190508181036000830152614404816143c8565b9050919050565b7f5075726368617365640000000000000000000000000000000000000000000000600082015250565b6000614441600983613b77565b915061444c8261440b565b600982019050919050565b600061446282614434565b9150819050919050565b600061447782613574565b915061448283613574565b9250828210156144955761449461416f565b5b828203905092915050565b7f54686973206163636f756e7420686173206e6f204469737472696275746f722060008201527f526f6c6500000000000000000000000000000000000000000000000000000000602082015250565b60006144fc602483613833565b9150614507826144a0565b604082019050919050565b6000602082019050818103600083015261452b816144ef565b9050919050565b7f546865204974656d206973206e6f7420696e20466f7253616c6520737461746560008201527f2100000000000000000000000000000000000000000000000000000000000000602082015250565b600061458e602183613833565b915061459982614532565b604082019050919050565b600060208201905081810360008301526145bd81614581565b9050919050565b7f546865206e6577204f776e65722063616e6e6f7420626520616464726573732060008201527f3000000000000000000000000000000000000000000000000000000000000000602082015250565b6000614620602183613833565b915061462b826145c4565b604082019050919050565b6000602082019050818103600083015261464f81614613565b9050919050565b7f546865204974656d206973206e6f7420696e2050726f6365737365642073746160008201527f7465210000000000000000000000000000000000000000000000000000000000602082015250565b60006146b2602383613833565b91506146bd82614656565b604082019050919050565b600060208201905081810360008301526146e1816146a5565b9050919050565b7f5061636b65640000000000000000000000000000000000000000000000000000600082015250565b600061471e600683613b77565b9150614729826146e8565b600682019050919050565b600061473f82614711565b9150819050919050565b7f546865204974656d206973206e6f7420696e20536f6c64207374617465210000600082015250565b600061477f601e83613833565b915061478a82614749565b602082019050919050565b600060208201905081810360008301526147ae81614772565b9050919050565b7f5368697070656400000000000000000000000000000000000000000000000000600082015250565b60006147eb600783613b77565b91506147f6826147b5565b600782019050919050565b600061480c826147de565b9150819050919050565b7f416464726573732063616e6e6f74206265207a65726f20616464726573730000600082015250565b600061484c601e83613833565b915061485782614816565b602082019050919050565b6000602082019050818103600083015261487b8161483f565b9050919050565b7f54686973206164647265737320616c726561647920686173207468697320726f60008201527f6c65000000000000000000000000000000000000000000000000000000000000602082015250565b60006148de602283613833565b91506148e982614882565b604082019050919050565b6000602082019050818103600083015261490d816148d1565b9050919050565b7f54686973206164647265737320646f6573206e6f74206861766520746869732060008201527f726f6c6520796574000000000000000000000000000000000000000000000000602082015250565b6000614970602883613833565b915061497b82614914565b604082019050919050565b6000602082019050818103600083015261499f81614963565b905091905056fea2646970667358221220e456f9163665c124ccd9d353674b00fd3e086c2de0b38fca83cb8cc99320722564736f6c634300080e0033",
  "immutableReferences": {},
  "source": "// SPDX-License-Identifier: MIT\npragma solidity >=0.4.22 <0.9.0;\n\nimport \"./Ownable.sol\";\nimport \"./Roles/Farmer.sol\";\nimport \"./Roles/Distributor.sol\";\nimport \"./Roles/Retailer.sol\";\nimport \"./Roles/Consumer.sol\";\nimport \"./utilities/Enums.sol\";\nimport \"./utilities/Structs.sol\";\n\n/**\n * @title Supplychain\n * @dev Contract for managing the entire supplychain\n */\ncontract SupplyChain is Ownable, Farmer, Distributor, Retailer, Consumer {\n    // Define a variable called 'upc' for Universal Product Code (UPC)\n    uint256 upc;\n    // Define a variable called 'sku' for Stock Keeping Unit (SKU)\n    uint256 sku;\n    // Define a public mapping 'items' that maps the UPC to an Item.\n    mapping(uint256 => Item) items;\n    // Define a public mapping 'itemsHistory' that maps the UPC to an array of TxHash, that track its journey through the supply chain -- to be sent from DApp.\n    mapping(uint256 => mapping(string => address)) itemsHistory;\n    // Default Product State\n    StateProduct constant defaultState = StateProduct.Harvested;\n\n    // Define 8 events with the same 8 state values and accept 'upc' as input argument\n    event Harvested(uint256 upc);\n    event Processed(uint256 upc);\n    event Packed(uint256 upc);\n    event ForSale(uint256 upc);\n    event Sold(uint256 upc);\n    event Shipped(uint256 upc);\n    event Received(uint256 upc);\n    event Purchased(uint256 upc);\n\n    // Using Ownable to define the owner\n    constructor() payable {\n        sku = 1;\n        upc = 1;\n    }\n\n    /** GENERAL MODIFIERS */\n    // Define a modifier that verifies the Caller\n    modifier verifyCaller(address _address) {\n        require(\n            msg.sender == _address,\n            \"This account is not the owner of this item\"\n        );\n        _;\n    }\n    // Define a modifier that checks if the paid amount is sufficient to cover the price\n    modifier paidEnough(uint256 _price) {\n        require(\n            msg.value >= _price,\n            \"The amount sent is not sufficient for the price\"\n        );\n        _;\n    }\n    // Define a modifier that checks the price and refunds the remaining balance to the Distributor\n    modifier checkValueForDistributor(uint256 _upc) {\n        _;\n        uint256 _price = items[_upc].productPrice;\n        uint256 amountToReturn = msg.value - _price;\n        items[_upc].distributorID.transfer(amountToReturn);\n    }\n    // Define a modifier that checks the price and refunds the remaining balance to the Consumer\n    modifier checkValueForConsumer(uint256 _upc) {\n        _;\n        uint256 _price = items[_upc].productPrice;\n        uint256 amountToReturn = msg.value - _price;\n        items[_upc].consumerID.transfer(amountToReturn);\n    }\n\n    /** PRODUCT STATE MODIFIERS */\n    // Define a modifier that checks if an item.state of a upc is Harvested\n    modifier harvested(uint256 _upc) {\n        require(\n            items[_upc].itemState == StateProduct.Harvested,\n            \"The Item is not in Harvested state!\"\n        );\n        _;\n    }\n    // Define a modifier that checks if an item.state of a upc is Processed\n    modifier processed(uint256 _upc) {\n        require(\n            items[_upc].itemState == StateProduct.Processed,\n            \"The Item is not in Processed state!\"\n        );\n        _;\n    }\n    // Define a modifier that checks if an item.state of a upc is Packed\n    modifier packed(uint256 _upc) {\n        require(\n            items[_upc].itemState == StateProduct.Packed,\n            \"The Item is not in Packed state!\"\n        );\n        _;\n    }\n    // Define a modifier that checks if an item.state of a upc is ForSale\n    modifier forSale(uint256 _upc) {\n        require(\n            items[_upc].itemState == StateProduct.ForSale,\n            \"The Item is not in ForSale state!\"\n        );\n        _;\n    }\n    // Define a modifier that checks if an item.state of a upc is Sold\n    modifier sold(uint256 _upc) {\n        require(\n            items[_upc].itemState == StateProduct.Sold,\n            \"The Item is not in Sold state!\"\n        );\n        _;\n    }\n    // Define a modifier that checks if an item.state of a upc is Shipped\n    modifier shipped(uint256 _upc) {\n        require(\n            items[_upc].itemState == StateProduct.Shipped,\n            \"The Item is not in Shipped state!\"\n        );\n        _;\n    }\n    // Define a modifier that checks if an item.state of a upc is Received\n    modifier received(uint256 _upc) {\n        require(\n            items[_upc].itemState == StateProduct.Received,\n            \"The Item is not in Received state!\"\n        );\n        _;\n    }\n    // Define a modifier that checks if an item.state of a upc is Purchased\n    modifier purchased(uint256 _upc) {\n        require(\n            items[_upc].itemState == StateProduct.Purchased,\n            \"The Item is not in Purchased state!\"\n        );\n        _;\n    }\n\n    /** FUNCTIONS (GETTERS) */\n    // Get The Item History\n    function getItemHistory(uint256 _upc, string memory state)\n        public\n        view\n        returns (address)\n    {\n        return itemsHistory[_upc][state];\n    }\n\n    /** FUNCTIONS (STATE) */\n    // Define a function 'harvestItem' that allows a farmer to mark an item 'Harvested'\n    function harvestItem(\n        uint256 _upc,\n        address payable _originFarmerID,\n        string memory _originFarmName,\n        string memory _originFarmInformation,\n        string memory _originFarmLatitude,\n        string memory _originFarmLongitude,\n        string memory _productNotes\n    ) public onlyFarmer {\n        // Add the new item as part of Harvest\n        Item memory newItem;\n        newItem.upc = _upc;\n        newItem.ownerID = _originFarmerID;\n        newItem.originFarmerID = _originFarmerID;\n        newItem.originFarmName = _originFarmName;\n        newItem.originFarmInformation = _originFarmInformation;\n        newItem.originFarmLatitude = _originFarmLatitude;\n        newItem.originFarmLongitude = _originFarmLongitude;\n        newItem.productNotes = _productNotes;\n        newItem.sku = sku;\n        newItem.productID = _upc + sku;\n        // Add Harvest to Item History\n        itemsHistory[_upc][\"Harvested\"] = tx.origin;\n        // Increment sku\n        sku = sku + 1;\n        // Setting state\n        newItem.itemState = StateProduct.Harvested;\n        // Adding new Item to map\n        items[_upc] = newItem;\n        // Emit the appropriate event\n        emit Harvested(_upc);\n    }\n\n    // Define a function 'processtItem' that allows a farmer to mark an item 'Processed'\n    function processItem(uint256 _upc)\n        public\n        //Only Farmer\n        onlyFarmer\n        // Call modifier to check if upc has passed previous supply chain stage\n        harvested(_upc)\n        // Call modifier to verify caller of this function\n        verifyCaller(items[_upc].originFarmerID)\n    {\n        // Update the appropriate fields\n        Item storage existingItem = items[_upc];\n        existingItem.itemState = StateProduct.Processed;\n        // Add Harvest to Item History\n        itemsHistory[_upc][\"Processed\"] = tx.origin;\n        // Emit the appropriate event\n        emit Processed(_upc);\n    }\n\n    // Define a function 'packItem' that allows a farmer to mark an item 'Packed'\n    function packItem(uint256 _upc)\n        public\n        //Only Farmer\n        onlyFarmer\n        // Call modifier to check if upc has passed previous supply chain stage\n        processed(_upc)\n        // Call modifier to verify caller of this function\n        verifyCaller(items[_upc].originFarmerID)\n    {\n        // Update the appropriate fields\n        Item storage existingItem = items[_upc];\n        existingItem.itemState = StateProduct.Packed;\n        // Add Harvest to Item History\n        itemsHistory[_upc][\"Packed\"] = tx.origin;\n        // Emit the appropriate event\n        emit Packed(_upc);\n    }\n\n    // Define a function 'sellItem' that allows a farmer to mark an item is 'ForSale'\n    function sellItem(uint256 _upc, uint256 _price)\n        public\n        //Only Farmer\n        onlyFarmer\n        // Call modifier to check if upc has passed previous supply chain stage\n        packed(_upc)\n        // Call modifier to verify caller of this function\n        verifyCaller(items[_upc].originFarmerID)\n    {\n        // Update the appropriate fields\n        Item storage existingItem = items[_upc];\n        existingItem.itemState = StateProduct.ForSale;\n        existingItem.productPrice = _price;\n        // Add Harvest to Item History\n        itemsHistory[_upc][\"Sold\"] = tx.origin;\n        // Emit the appropriate event\n        emit ForSale(_upc);\n    }\n\n    // Define a function 'buyItem' that allows the disributor to mark an item 'Sold'\n    // Use the above defined modifiers to check if the item is available for sale, if the buyer has paid enough,\n    // and any excess ether sent is refunded back to the buyer\n    function buyItem(uint256 _upc)\n        public\n        payable\n        // Only Distributor\n        onlyDistributor\n        // Call modifier to check if upc has passed previous supply chain stage\n        forSale(_upc)\n        // Call modifer to check if buyer has paid enough\n        paidEnough(items[_upc].productPrice)\n        // Call modifer to send any excess ether back to buyer\n        checkValueForDistributor(_upc)\n    {\n        // Update the appropriate fields - ownerID, distributorID, itemState\n        Item storage existingItem = items[_upc];\n        existingItem.ownerID = payable(msg.sender);\n        existingItem.itemState = StateProduct.Sold;\n        existingItem.distributorID = payable(msg.sender);\n        // Transfer money to farmer\n        uint256 productPrice = items[_upc].productPrice;\n        items[_upc].originFarmerID.transfer(productPrice);\n        // Add Harvest to Item History\n        itemsHistory[_upc][\"Sold\"] = tx.origin;\n        // emit the appropriate event\n        emit Sold(_upc);\n    }\n\n    // Define a function 'shipItem' that allows the distributor to mark an item 'Shipped'\n    // Use the above modifers to check if the item is sold\n    function shipItem(uint256 _upc)\n        public\n        // Only Distributor\n        onlyDistributor\n        // Call modifier to check if upc has passed previous supply chain stage\n        sold(_upc)\n        // Call modifier to verify caller of this function\n        verifyCaller(items[_upc].distributorID)\n    {\n        // Update the appropriate fields\n        Item storage existingItem = items[_upc];\n        existingItem.itemState = StateProduct.Shipped;\n        // Add Harvest to Item History\n        itemsHistory[_upc][\"Shipped\"] = tx.origin;\n        // Emit the appropriate event\n        emit Shipped(_upc);\n    }\n\n    // Define a function 'receiveItem' that allows the retailer to mark an item 'Received'\n    // Use the above modifiers to check if the item is shipped\n    function receiveItem(uint256 _upc)\n        public\n        // Only Retailer\n        onlyRetailer\n        // Call modifier to check if upc has passed previous supply chain stage\n        shipped(_upc)\n    // Access Control List enforced by calling Smart Contract / DApp\n    {\n        // Update the appropriate fields - ownerID, retailerID, itemState\n        Item storage existingItem = items[_upc];\n        existingItem.ownerID = payable(msg.sender);\n        existingItem.itemState = StateProduct.Received;\n        existingItem.retailerID = payable(msg.sender);\n        // Add Harvest to Item History\n        itemsHistory[_upc][\"Received\"] = tx.origin;\n        // Emit the appropriate event\n        emit Received(_upc);\n    }\n\n    // Define a function 'purchaseItem' that allows the consumer to mark an item 'Purchased'\n    // Use the above modifiers to check if the item is received\n    function purchaseItem(uint256 _upc)\n        public\n        payable\n        //Only Consumer\n        onlyConsumer\n        // Call modifier to check if upc has passed previous supply chain stage\n        received(_upc)\n        // Make sure paid enough\n        paidEnough(items[_upc].productPrice)\n        // Access Control List enforced by calling Smart Contract / DApp\n        checkValueForConsumer(_upc)\n    {\n        // Update the appropriate fields - ownerID, consumerID, itemState\n        Item storage existingItem = items[_upc];\n        existingItem.ownerID = payable(msg.sender);\n        existingItem.itemState = StateProduct.Purchased;\n        existingItem.consumerID = payable(msg.sender);\n        // Add Harvest to Item History\n        itemsHistory[_upc][\"Purchased\"] = tx.origin;\n        // Emit the appropriate event\n        emit Purchased(_upc);\n    }\n\n    // Define a function 'fetchItemBufferOne' that fetches the data\n    function fetchItemBufferOne(uint256 _upc)\n        public\n        view\n        returns (\n            uint256 itemSKU,\n            uint256 itemUPC,\n            address ownerID,\n            address originFarmerID,\n            string memory originFarmName,\n            string memory originFarmInformation,\n            string memory originFarmLatitude,\n            string memory originFarmLongitude\n        )\n    {\n        // Assign values to the 8 parameters\n        Item memory existingItem = items[_upc];\n\n        itemSKU = existingItem.sku;\n        itemUPC = existingItem.upc;\n        ownerID = existingItem.ownerID;\n        originFarmerID = existingItem.originFarmerID;\n        originFarmName = existingItem.originFarmName;\n        originFarmInformation = existingItem.originFarmInformation;\n        originFarmLatitude = existingItem.originFarmLatitude;\n        originFarmLongitude = existingItem.originFarmLongitude;\n\n        return (\n            itemSKU,\n            itemUPC,\n            ownerID,\n            originFarmerID,\n            originFarmName,\n            originFarmInformation,\n            originFarmLatitude,\n            originFarmLongitude\n        );\n    }\n\n    // Define a function 'fetchItemBufferTwo' that fetches the data\n    function fetchItemBufferTwo(uint256 _upc)\n        public\n        view\n        returns (\n            uint256 itemSKU,\n            uint256 itemUPC,\n            uint256 productID,\n            string memory productNotes,\n            uint256 productPrice,\n            uint256 itemState,\n            address distributorID,\n            address retailerID,\n            address consumerID\n        )\n    {\n        // Assign values to the 9 parameters\n        Item memory existingItem = items[_upc];\n        itemSKU = existingItem.sku;\n        itemUPC = existingItem.upc;\n        productID = existingItem.productID;\n        productNotes = existingItem.productNotes;\n        productPrice = existingItem.productPrice;\n        itemState = uint256(existingItem.itemState);\n        distributorID = existingItem.distributorID;\n        retailerID = existingItem.retailerID;\n        consumerID = existingItem.consumerID;\n\n        return (\n            itemSKU,\n            itemUPC,\n            productID,\n            productNotes,\n            productPrice,\n            itemState,\n            distributorID,\n            retailerID,\n            consumerID\n        );\n    }\n}\n",
  "sourcePath": "/home/hakim/Templates/supply-chain-dapp/contracts/SupplyChain.sol",
  "compiler": {
    "name": "solc",
    "version": "0.8.14+commit.80d49f37.Emscripten.clang"
  },
  "schemaVersion": "3.4.7",
  "updatedAt": "2022-05-31T14:55:05.356Z",
  "devdoc": {
    "details": "Contract for managing the entire supplychain",
    "kind": "dev",
    "methods": {
      "kill()": {
        "details": "Define a function 'kill' if required"
      },
      "owner()": {
        "details": "Look up the address of the owner"
      },
      "renounceOwnership()": {
        "details": "Define a function to renounce ownerhip"
      },
      "transferOwnership(address)": {
        "details": "Define an public function to transfer ownership"
      }
    },
    "title": "Supplychain",
    "version": 1
  },
  "userdoc": {
    "kind": "user",
    "methods": {
      "getItemHistory(uint256,string)": {
        "notice": "FUNCTIONS (GETTERS) "
      },
      "harvestItem(uint256,address,string,string,string,string,string)": {
        "notice": "FUNCTIONS (STATE) "
      }
    },
    "version": 1
  }
}