{
  "contractName": "SupplyChain",
  "abi": [
    {
      "anonymous": false,
      "inputs": [
        {
          "indexed": true,
          "internalType": "address",
          "name": "oldOwner",
          "type": "address"
        },
        {
          "indexed": true,
          "internalType": "address",
          "name": "newOwner",
          "type": "address"
        }
      ],
      "name": "TransferOwnership",
      "type": "event"
    },
    {
      "inputs": [],
      "name": "kill",
      "outputs": [],
      "stateMutability": "nonpayable",
      "type": "function"
    },
    {
      "inputs": [],
      "name": "owner",
      "outputs": [
        {
          "internalType": "address",
          "name": "",
          "type": "address"
        }
      ],
      "stateMutability": "view",
      "type": "function"
    },
    {
      "inputs": [],
      "name": "renounceOwnership",
      "outputs": [],
      "stateMutability": "nonpayable",
      "type": "function"
    },
    {
      "inputs": [
        {
          "internalType": "address payable",
          "name": "newOwner",
          "type": "address"
        }
      ],
      "name": "transferOwnership",
      "outputs": [],
      "stateMutability": "nonpayable",
      "type": "function"
    }
  ],
  "bytecode": "0x608060405234801561001057600080fd5b50336000806101000a81548173ffffffffffffffffffffffffffffffffffffffff021916908373ffffffffffffffffffffffffffffffffffffffff16021790555060008054906101000a900473ffffffffffffffffffffffffffffffffffffffff1673ffffffffffffffffffffffffffffffffffffffff16600073ffffffffffffffffffffffffffffffffffffffff167f5c486528ec3e3f0ea91181cff8116f02bfa350e03b8b6f12e00765adbb5af85c60405160405180910390a3610693806100db6000396000f3fe608060405234801561001057600080fd5b506004361061004c5760003560e01c806341c0e1b514610051578063715018a61461005b5780638da5cb5b14610065578063f2fde38b14610083575b600080fd5b61005961009f565b005b61006361012d565b005b61006d610279565b60405161007a919061049d565b60405180910390f35b61009d600480360381019061009891906104fb565b6102a2565b005b60008054906101000a900473ffffffffffffffffffffffffffffffffffffffff1673ffffffffffffffffffffffffffffffffffffffff163373ffffffffffffffffffffffffffffffffffffffff160361012b5760008054906101000a900473ffffffffffffffffffffffffffffffffffffffff1673ffffffffffffffffffffffffffffffffffffffff16ff5b565b60008054906101000a900473ffffffffffffffffffffffffffffffffffffffff1673ffffffffffffffffffffffffffffffffffffffff163373ffffffffffffffffffffffffffffffffffffffff16146101bb576040517f08c379a00000000000000000000000000000000000000000000000000000000081526004016101b2906105ab565b60405180910390fd5b600073ffffffffffffffffffffffffffffffffffffffff1660008054906101000a900473ffffffffffffffffffffffffffffffffffffffff1673ffffffffffffffffffffffffffffffffffffffff167f5c486528ec3e3f0ea91181cff8116f02bfa350e03b8b6f12e00765adbb5af85c60405160405180910390a360008060006101000a81548173ffffffffffffffffffffffffffffffffffffffff021916908373ffffffffffffffffffffffffffffffffffffffff160217905550565b60008060009054906101000a900473ffffffffffffffffffffffffffffffffffffffff16905090565b60008054906101000a900473ffffffffffffffffffffffffffffffffffffffff1673ffffffffffffffffffffffffffffffffffffffff163373ffffffffffffffffffffffffffffffffffffffff1614610330576040517f08c379a0000000000000000000000000000000000000000000000000000000008152600401610327906105ab565b60405180910390fd5b600073ffffffffffffffffffffffffffffffffffffffff168173ffffffffffffffffffffffffffffffffffffffff160361039f576040517f08c379a00000000000000000000000000000000000000000000000000000000081526004016103969061063d565b60405180910390fd5b8073ffffffffffffffffffffffffffffffffffffffff1660008054906101000a900473ffffffffffffffffffffffffffffffffffffffff1673ffffffffffffffffffffffffffffffffffffffff167f5c486528ec3e3f0ea91181cff8116f02bfa350e03b8b6f12e00765adbb5af85c60405160405180910390a3806000806101000a81548173ffffffffffffffffffffffffffffffffffffffff021916908373ffffffffffffffffffffffffffffffffffffffff16021790555050565b600073ffffffffffffffffffffffffffffffffffffffff82169050919050565b60006104878261045c565b9050919050565b6104978161047c565b82525050565b60006020820190506104b2600083018461048e565b92915050565b600080fd5b60006104c88261045c565b9050919050565b6104d8816104bd565b81146104e357600080fd5b50565b6000813590506104f5816104cf565b92915050565b600060208284031215610511576105106104b8565b5b600061051f848285016104e6565b91505092915050565b600082825260208201905092915050565b7f4f6e6c7920746865206f776e65722063616e20706572666f726d20746869732060008201527f6f7065726174696f6e0000000000000000000000000000000000000000000000602082015250565b6000610595602983610528565b91506105a082610539565b604082019050919050565b600060208201905081810360008301526105c481610588565b9050919050565b7f546865206e6577204f776e65722063616e6e6f7420626520616464726573732060008201527f3000000000000000000000000000000000000000000000000000000000000000602082015250565b6000610627602183610528565b9150610632826105cb565b604082019050919050565b600060208201905081810360008301526106568161061a565b905091905056fea26469706673582212207ade46569d24f09a97c36a3f45fd47f1d7ca69ad6519fffdc035ebfbb9c1299464736f6c634300080e0033",
  "immutableReferences": {},
  "source": "// SPDX-License-Identifier: MIT\npragma solidity >=0.4.22 <0.9.0;\n\nimport \"./Ownable.sol\";\nimport \"./Roles/Farmer.sol\";\nimport \"./Roles/Distributor.sol\";\nimport \"./Roles/Retailer.sol\";\nimport \"./Roles/Consumer.sol\";\nimport \"./Utilities.sol\";\n\n/**\n * @title Supplychain\n * @dev Contract for managing the entire supplychain\n */\ncontract SupplyChain is Ownable, Farmer, Distributor, Retailer, Consumer {\n    // Define a public mapping 'items' that maps the UPC to an Item.\n    mapping(uint256 => Item) items;\n    // Default Product State\n    StateProduct constant defaultState = StateProduct.Harvested;\n}\n",
  "sourcePath": "/home/hakim/Templates/supply-chain-dapp/contracts/SupplyChain.sol",
  "compiler": {
    "name": "solc",
    "version": "0.8.14+commit.80d49f37.Emscripten.clang"
  },
  "schemaVersion": "3.4.7",
  "updatedAt": "2022-05-31T13:07:48.323Z",
  "devdoc": {
    "details": "Contract for managing the entire supplychain",
    "kind": "dev",
    "methods": {
      "kill()": {
        "details": "Define a function 'kill' if required"
      },
      "owner()": {
        "details": "Look up the address of the owner"
      },
      "renounceOwnership()": {
        "details": "Define a function to renounce ownerhip"
      },
      "transferOwnership(address)": {
        "details": "Define an public function to transfer ownership"
      }
    },
    "title": "Supplychain",
    "version": 1
  },
  "userdoc": {
    "kind": "user",
    "methods": {},
    "version": 1
  }
}